{
    "contractName": "BansclawNftMarket",
    "abi": [
        {
            "anonymous": false,
            "inputs": [
                {
                    "indexed": true,
                    "internalType": "address",
                    "name": "account",
                    "type": "address"
                },
                {
                    "indexed": true,
                    "internalType": "address",
                    "name": "operator",
                    "type": "address"
                },
                {
                    "indexed": false,
                    "internalType": "bool",
                    "name": "approved",
                    "type": "bool"
                }
            ],
            "name": "ApprovalForAll",
            "type": "event"
        },
        {
            "anonymous": false,
            "inputs": [
                {
                    "indexed": false,
                    "internalType": "address",
                    "name": "sender",
                    "type": "address"
                },
                {
                    "components": [
                        {
                            "internalType": "uint256",
                            "name": "tokenId",
                            "type": "uint256"
                        },
                        {
                            "internalType": "uint256",
                            "name": "catIdTokId",
                            "type": "uint256"
                        },
                        {
                            "internalType": "uint256",
                            "name": "catId",
                            "type": "uint256"
                        },
                        {
                            "internalType": "uint256",
                            "name": "decimals",
                            "type": "uint256"
                        },
                        {
                            "internalType": "uint256",
                            "name": "cost",
                            "type": "uint256"
                        },
                        {
                            "internalType": "address",
                            "name": "author",
                            "type": "address"
                        },
                        {
                            "internalType": "string",
                            "name": "name",
                            "type": "string"
                        },
                        {
                            "internalType": "string",
                            "name": "desc",
                            "type": "string"
                        },
                        {
                            "internalType": "string",
                            "name": "ipfs",
                            "type": "string"
                        },
                        {
                            "internalType": "uint256",
                            "name": "supply",
                            "type": "uint256"
                        },
                        {
                            "internalType": "uint256",
                            "name": "createdAt",
                            "type": "uint256"
                        },
                        {
                            "internalType": "uint256",
                            "name": "startsAt",
                            "type": "uint256"
                        },
                        {
                            "internalType": "uint256",
                            "name": "endsAt",
                            "type": "uint256"
                        },
                        {
                            "internalType": "uint256",
                            "name": "itemsSold",
                            "type": "uint256"
                        },
                        {
                            "internalType": "bool",
                            "name": "paused",
                            "type": "bool"
                        },
                        {
                            "internalType": "bool",
                            "name": "soldOut",
                            "type": "bool"
                        },
                        {
                            "internalType": "bool",
                            "name": "purchasable",
                            "type": "bool"
                        },
                        {
                            "internalType": "bool",
                            "name": "airdrop",
                            "type": "bool"
                        }
                    ],
                    "indexed": false,
                    "internalType": "struct BansclawNftMarket.Struct",
                    "name": "str",
                    "type": "tuple"
                }
            ],
            "name": "CreateNftItem",
            "type": "event"
        },
        {
            "anonymous": false,
            "inputs": [
                {
                    "indexed": false,
                    "internalType": "address",
                    "name": "purchaser",
                    "type": "address"
                },
                {
                    "indexed": false,
                    "internalType": "uint256",
                    "name": "tokenId",
                    "type": "uint256"
                },
                {
                    "indexed": false,
                    "internalType": "uint256",
                    "name": "catId",
                    "type": "uint256"
                },
                {
                    "indexed": false,
                    "internalType": "uint256",
                    "name": "catTokenid",
                    "type": "uint256"
                },
                {
                    "indexed": false,
                    "internalType": "uint256",
                    "name": "amount",
                    "type": "uint256"
                }
            ],
            "name": "EventPurchasedToken",
            "type": "event"
        },
        {
            "anonymous": false,
            "inputs": [
                {
                    "indexed": false,
                    "internalType": "uint8",
                    "name": "version",
                    "type": "uint8"
                }
            ],
            "name": "Initialized",
            "type": "event"
        },
        {
            "anonymous": false,
            "inputs": [
                {
                    "indexed": false,
                    "internalType": "address",
                    "name": "from",
                    "type": "address"
                },
                {
                    "indexed": false,
                    "internalType": "uint256",
                    "name": "id",
                    "type": "uint256"
                },
                {
                    "indexed": false,
                    "internalType": "uint256",
                    "name": "amount",
                    "type": "uint256"
                }
            ],
            "name": "MintBurnEmit",
            "type": "event"
        },
        {
            "anonymous": false,
            "inputs": [
                {
                    "indexed": false,
                    "internalType": "address",
                    "name": "to",
                    "type": "address"
                },
                {
                    "indexed": false,
                    "internalType": "uint256",
                    "name": "id",
                    "type": "uint256"
                },
                {
                    "indexed": false,
                    "internalType": "uint256",
                    "name": "amount",
                    "type": "uint256"
                }
            ],
            "name": "MintEmit",
            "type": "event"
        },
        {
            "anonymous": false,
            "inputs": [
                {
                    "indexed": true,
                    "internalType": "address",
                    "name": "previousOwner",
                    "type": "address"
                },
                {
                    "indexed": true,
                    "internalType": "address",
                    "name": "newOwner",
                    "type": "address"
                }
            ],
            "name": "OwnershipTransferred",
            "type": "event"
        },
        {
            "anonymous": false,
            "inputs": [
                {
                    "indexed": false,
                    "internalType": "address",
                    "name": "account",
                    "type": "address"
                }
            ],
            "name": "Paused",
            "type": "event"
        },
        {
            "anonymous": false,
            "inputs": [
                {
                    "indexed": true,
                    "internalType": "bytes32",
                    "name": "role",
                    "type": "bytes32"
                },
                {
                    "indexed": true,
                    "internalType": "bytes32",
                    "name": "previousAdminRole",
                    "type": "bytes32"
                },
                {
                    "indexed": true,
                    "internalType": "bytes32",
                    "name": "newAdminRole",
                    "type": "bytes32"
                }
            ],
            "name": "RoleAdminChanged",
            "type": "event"
        },
        {
            "anonymous": false,
            "inputs": [
                {
                    "indexed": true,
                    "internalType": "bytes32",
                    "name": "role",
                    "type": "bytes32"
                },
                {
                    "indexed": true,
                    "internalType": "address",
                    "name": "account",
                    "type": "address"
                },
                {
                    "indexed": true,
                    "internalType": "address",
                    "name": "sender",
                    "type": "address"
                }
            ],
            "name": "RoleGranted",
            "type": "event"
        },
        {
            "anonymous": false,
            "inputs": [
                {
                    "indexed": true,
                    "internalType": "bytes32",
                    "name": "role",
                    "type": "bytes32"
                },
                {
                    "indexed": true,
                    "internalType": "address",
                    "name": "account",
                    "type": "address"
                },
                {
                    "indexed": true,
                    "internalType": "address",
                    "name": "sender",
                    "type": "address"
                }
            ],
            "name": "RoleRevoked",
            "type": "event"
        },
        {
            "anonymous": false,
            "inputs": [
                {
                    "indexed": true,
                    "internalType": "address",
                    "name": "operator",
                    "type": "address"
                },
                {
                    "indexed": true,
                    "internalType": "address",
                    "name": "from",
                    "type": "address"
                },
                {
                    "indexed": true,
                    "internalType": "address",
                    "name": "to",
                    "type": "address"
                },
                {
                    "indexed": false,
                    "internalType": "uint256[]",
                    "name": "ids",
                    "type": "uint256[]"
                },
                {
                    "indexed": false,
                    "internalType": "uint256[]",
                    "name": "values",
                    "type": "uint256[]"
                }
            ],
            "name": "TransferBatch",
            "type": "event"
        },
        {
            "anonymous": false,
            "inputs": [
                {
                    "indexed": true,
                    "internalType": "address",
                    "name": "operator",
                    "type": "address"
                },
                {
                    "indexed": true,
                    "internalType": "address",
                    "name": "from",
                    "type": "address"
                },
                {
                    "indexed": true,
                    "internalType": "address",
                    "name": "to",
                    "type": "address"
                },
                {
                    "indexed": false,
                    "internalType": "uint256",
                    "name": "id",
                    "type": "uint256"
                },
                {
                    "indexed": false,
                    "internalType": "uint256",
                    "name": "value",
                    "type": "uint256"
                }
            ],
            "name": "TransferSingle",
            "type": "event"
        },
        {
            "anonymous": false,
            "inputs": [
                {
                    "indexed": false,
                    "internalType": "string",
                    "name": "value",
                    "type": "string"
                },
                {
                    "indexed": true,
                    "internalType": "uint256",
                    "name": "id",
                    "type": "uint256"
                }
            ],
            "name": "URI",
            "type": "event"
        },
        {
            "anonymous": false,
            "inputs": [
                {
                    "indexed": false,
                    "internalType": "address",
                    "name": "account",
                    "type": "address"
                }
            ],
            "name": "Unpaused",
            "type": "event"
        },
        {
            "inputs": [],
            "name": "ADMIN_ROLE",
            "outputs": [
                {
                    "internalType": "bytes32",
                    "name": "",
                    "type": "bytes32"
                }
            ],
            "stateMutability": "view",
            "type": "function"
        },
        {
            "inputs": [],
            "name": "DEFAULT_ADMIN_ROLE",
            "outputs": [
                {
                    "internalType": "bytes32",
                    "name": "",
                    "type": "bytes32"
                }
            ],
            "stateMutability": "view",
            "type": "function"
        },
        {
            "inputs": [
                {
                    "internalType": "address",
                    "name": "newAddress",
                    "type": "address"
                }
            ],
            "name": "addAddressAdmin",
            "outputs": [],
            "stateMutability": "nonpayable",
            "type": "function"
        },
        {
            "inputs": [
                {
                    "internalType": "address",
                    "name": "account",
                    "type": "address"
                },
                {
                    "internalType": "uint256",
                    "name": "id",
                    "type": "uint256"
                }
            ],
            "name": "balanceOf",
            "outputs": [
                {
                    "internalType": "uint256",
                    "name": "",
                    "type": "uint256"
                }
            ],
            "stateMutability": "view",
            "type": "function"
        },
        {
            "inputs": [
                {
                    "internalType": "address[]",
                    "name": "accounts",
                    "type": "address[]"
                },
                {
                    "internalType": "uint256[]",
                    "name": "ids",
                    "type": "uint256[]"
                }
            ],
            "name": "balanceOfBatch",
            "outputs": [
                {
                    "internalType": "uint256[]",
                    "name": "",
                    "type": "uint256[]"
                }
            ],
            "stateMutability": "view",
            "type": "function"
        },
        {
            "inputs": [
                {
                    "internalType": "address",
                    "name": "account",
                    "type": "address"
                },
                {
                    "internalType": "uint256",
                    "name": "id",
                    "type": "uint256"
                },
                {
                    "internalType": "uint256",
                    "name": "value",
                    "type": "uint256"
                }
            ],
            "name": "burn",
            "outputs": [],
            "stateMutability": "nonpayable",
            "type": "function"
        },
        {
            "inputs": [
                {
                    "internalType": "address",
                    "name": "account",
                    "type": "address"
                },
                {
                    "internalType": "uint256[]",
                    "name": "ids",
                    "type": "uint256[]"
                },
                {
                    "internalType": "uint256[]",
                    "name": "values",
                    "type": "uint256[]"
                }
            ],
            "name": "burnBatch",
            "outputs": [],
            "stateMutability": "nonpayable",
            "type": "function"
        },
        {
            "inputs": [],
            "name": "categoryId",
            "outputs": [
                {
                    "internalType": "uint256",
                    "name": "",
                    "type": "uint256"
                }
            ],
            "stateMutability": "view",
            "type": "function"
        },
        {
            "inputs": [
                {
                    "internalType": "uint256",
                    "name": "",
                    "type": "uint256"
                }
            ],
            "name": "categoryStructs",
            "outputs": [
                {
                    "internalType": "uint256",
                    "name": "categoryId",
                    "type": "uint256"
                },
                {
                    "internalType": "string",
                    "name": "name",
                    "type": "string"
                },
                {
                    "internalType": "string",
                    "name": "desc",
                    "type": "string"
                },
                {
                    "internalType": "uint256",
                    "name": "createdAt",
                    "type": "uint256"
                }
            ],
            "stateMutability": "view",
            "type": "function"
        },
        {
            "inputs": [
                {
                    "internalType": "address",
                    "name": "newAddress",
                    "type": "address"
                }
            ],
            "name": "changeWalletStore",
            "outputs": [],
            "stateMutability": "nonpayable",
            "type": "function"
        },
        {
            "inputs": [
                {
                    "internalType": "string",
                    "name": "_name",
                    "type": "string"
                },
                {
                    "internalType": "string",
                    "name": "_desc",
                    "type": "string"
                }
            ],
            "name": "createCategory",
            "outputs": [
                {
                    "components": [
                        {
                            "internalType": "uint256",
                            "name": "categoryId",
                            "type": "uint256"
                        },
                        {
                            "internalType": "string",
                            "name": "name",
                            "type": "string"
                        },
                        {
                            "internalType": "string",
                            "name": "desc",
                            "type": "string"
                        },
                        {
                            "internalType": "uint256",
                            "name": "createdAt",
                            "type": "uint256"
                        }
                    ],
                    "internalType": "struct BansclawNftMarket.CategoryStruct",
                    "name": "",
                    "type": "tuple"
                }
            ],
            "stateMutability": "nonpayable",
            "type": "function"
        },
        {
            "inputs": [],
            "name": "distributeFunds",
            "outputs": [],
            "stateMutability": "nonpayable",
            "type": "function"
        },
        {
            "inputs": [
                {
                    "internalType": "uint256",
                    "name": "id",
                    "type": "uint256"
                }
            ],
            "name": "exists",
            "outputs": [
                {
                    "internalType": "bool",
                    "name": "",
                    "type": "bool"
                }
            ],
            "stateMutability": "view",
            "type": "function"
        },
        {
            "inputs": [
                {
                    "internalType": "bytes32",
                    "name": "role",
                    "type": "bytes32"
                }
            ],
            "name": "getRoleAdmin",
            "outputs": [
                {
                    "internalType": "bytes32",
                    "name": "",
                    "type": "bytes32"
                }
            ],
            "stateMutability": "view",
            "type": "function"
        },
        {
            "inputs": [
                {
                    "internalType": "uint256",
                    "name": "_category",
                    "type": "uint256"
                },
                {
                    "internalType": "uint256",
                    "name": "catIdTokId",
                    "type": "uint256"
                }
            ],
            "name": "getTokenId",
            "outputs": [
                {
                    "internalType": "uint256",
                    "name": "",
                    "type": "uint256"
                }
            ],
            "stateMutability": "view",
            "type": "function"
        },
        {
            "inputs": [
                {
                    "internalType": "bytes32",
                    "name": "role",
                    "type": "bytes32"
                },
                {
                    "internalType": "address",
                    "name": "account",
                    "type": "address"
                }
            ],
            "name": "grantRole",
            "outputs": [],
            "stateMutability": "nonpayable",
            "type": "function"
        },
        {
            "inputs": [
                {
                    "internalType": "bytes32",
                    "name": "role",
                    "type": "bytes32"
                },
                {
                    "internalType": "address",
                    "name": "account",
                    "type": "address"
                }
            ],
            "name": "hasRole",
            "outputs": [
                {
                    "internalType": "bool",
                    "name": "",
                    "type": "bool"
                }
            ],
            "stateMutability": "view",
            "type": "function"
        },
        {
            "inputs": [],
            "name": "initialize",
            "outputs": [],
            "stateMutability": "nonpayable",
            "type": "function"
        },
        {
            "inputs": [
                {
                    "internalType": "address",
                    "name": "account",
                    "type": "address"
                },
                {
                    "internalType": "address",
                    "name": "operator",
                    "type": "address"
                }
            ],
            "name": "isApprovedForAll",
            "outputs": [
                {
                    "internalType": "bool",
                    "name": "",
                    "type": "bool"
                }
            ],
            "stateMutability": "view",
            "type": "function"
        },
        {
            "inputs": [
                {
                    "internalType": "uint256",
                    "name": "catId",
                    "type": "uint256"
                },
                {
                    "internalType": "uint256",
                    "name": "catIdTokId",
                    "type": "uint256"
                },
                {
                    "internalType": "uint256",
                    "name": "amount",
                    "type": "uint256"
                }
            ],
            "name": "mint",
            "outputs": [],
            "stateMutability": "payable",
            "type": "function"
        },
        {
            "inputs": [
                {
                    "internalType": "uint256",
                    "name": "catId",
                    "type": "uint256"
                },
                {
                    "internalType": "uint256",
                    "name": "catIdTokId",
                    "type": "uint256"
                },
                {
                    "internalType": "uint256",
                    "name": "amount",
                    "type": "uint256"
                },
                {
                    "internalType": "address",
                    "name": "airdropAddress",
                    "type": "address"
                }
            ],
            "name": "mintAirdrop",
            "outputs": [],
            "stateMutability": "payable",
            "type": "function"
        },
        {
            "inputs": [
                {
                    "internalType": "uint256",
                    "name": "catId",
                    "type": "uint256"
                },
                {
                    "internalType": "uint256",
                    "name": "catIdTokId",
                    "type": "uint256"
                },
                {
                    "internalType": "uint256",
                    "name": "amount",
                    "type": "uint256"
                },
                {
                    "internalType": "address",
                    "name": "airdropAddress",
                    "type": "address"
                }
            ],
            "name": "mintEmergencyAirdrop",
            "outputs": [],
            "stateMutability": "payable",
            "type": "function"
        },
        {
            "inputs": [],
            "name": "name",
            "outputs": [
                {
                    "internalType": "string",
                    "name": "",
                    "type": "string"
                }
            ],
            "stateMutability": "view",
            "type": "function"
        },
        {
            "inputs": [
                {
                    "internalType": "uint256",
                    "name": "_category",
                    "type": "uint256"
                },
                {
                    "internalType": "uint256",
                    "name": "catIdTokId",
                    "type": "uint256"
                },
                {
                    "internalType": "uint256",
                    "name": "cost",
                    "type": "uint256"
                },
                {
                    "internalType": "uint256",
                    "name": "supply",
                    "type": "uint256"
                },
                {
                    "internalType": "string",
                    "name": "_ipfs",
                    "type": "string"
                },
                {
                    "internalType": "uint256",
                    "name": "startAt",
                    "type": "uint256"
                },
                {
                    "internalType": "uint256",
                    "name": "endAt",
                    "type": "uint256"
                },
                {
                    "internalType": "bool",
                    "name": "isPurchasbale",
                    "type": "bool"
                },
                {
                    "internalType": "bool",
                    "name": "isAirdrop",
                    "type": "bool"
                }
            ],
            "name": "nftChangeDefaultSetting",
            "outputs": [],
            "stateMutability": "nonpayable",
            "type": "function"
        },
        {
            "inputs": [
                {
                    "internalType": "uint256",
                    "name": "_category",
                    "type": "uint256"
                },
                {
                    "internalType": "address",
                    "name": "_author",
                    "type": "address"
                },
                {
                    "internalType": "string",
                    "name": "_name",
                    "type": "string"
                },
                {
                    "internalType": "string",
                    "name": "_desc",
                    "type": "string"
                },
                {
                    "internalType": "bool",
                    "name": "isPurchasable",
                    "type": "bool"
                },
                {
                    "internalType": "bool",
                    "name": "isAirdrop",
                    "type": "bool"
                }
            ],
            "name": "nftCreateItem",
            "outputs": [
                {
                    "components": [
                        {
                            "internalType": "uint256",
                            "name": "tokenId",
                            "type": "uint256"
                        },
                        {
                            "internalType": "uint256",
                            "name": "catIdTokId",
                            "type": "uint256"
                        },
                        {
                            "internalType": "uint256",
                            "name": "catId",
                            "type": "uint256"
                        },
                        {
                            "internalType": "uint256",
                            "name": "decimals",
                            "type": "uint256"
                        },
                        {
                            "internalType": "uint256",
                            "name": "cost",
                            "type": "uint256"
                        },
                        {
                            "internalType": "address",
                            "name": "author",
                            "type": "address"
                        },
                        {
                            "internalType": "string",
                            "name": "name",
                            "type": "string"
                        },
                        {
                            "internalType": "string",
                            "name": "desc",
                            "type": "string"
                        },
                        {
                            "internalType": "string",
                            "name": "ipfs",
                            "type": "string"
                        },
                        {
                            "internalType": "uint256",
                            "name": "supply",
                            "type": "uint256"
                        },
                        {
                            "internalType": "uint256",
                            "name": "createdAt",
                            "type": "uint256"
                        },
                        {
                            "internalType": "uint256",
                            "name": "startsAt",
                            "type": "uint256"
                        },
                        {
                            "internalType": "uint256",
                            "name": "endsAt",
                            "type": "uint256"
                        },
                        {
                            "internalType": "uint256",
                            "name": "itemsSold",
                            "type": "uint256"
                        },
                        {
                            "internalType": "bool",
                            "name": "paused",
                            "type": "bool"
                        },
                        {
                            "internalType": "bool",
                            "name": "soldOut",
                            "type": "bool"
                        },
                        {
                            "internalType": "bool",
                            "name": "purchasable",
                            "type": "bool"
                        },
                        {
                            "internalType": "bool",
                            "name": "airdrop",
                            "type": "bool"
                        }
                    ],
                    "internalType": "struct BansclawNftMarket.Struct",
                    "name": "",
                    "type": "tuple"
                }
            ],
            "stateMutability": "nonpayable",
            "type": "function"
        },
        {
            "inputs": [
                {
                    "internalType": "uint256",
                    "name": "_category",
                    "type": "uint256"
                },
                {
                    "internalType": "uint256",
                    "name": "catIdTokId",
                    "type": "uint256"
                }
            ],
            "name": "nftGetPrice",
            "outputs": [
                {
                    "internalType": "uint256",
                    "name": "",
                    "type": "uint256"
                }
            ],
            "stateMutability": "view",
            "type": "function"
        },
        {
            "inputs": [
                {
                    "internalType": "uint256",
                    "name": "_category",
                    "type": "uint256"
                },
                {
                    "internalType": "uint256",
                    "name": "catIdTokId",
                    "type": "uint256"
                },
                {
                    "internalType": "uint256",
                    "name": "_cost",
                    "type": "uint256"
                },
                {
                    "internalType": "uint256",
                    "name": "_supply",
                    "type": "uint256"
                },
                {
                    "internalType": "uint256",
                    "name": "_decimal",
                    "type": "uint256"
                },
                {
                    "internalType": "uint256",
                    "name": "startAt",
                    "type": "uint256"
                },
                {
                    "internalType": "uint256",
                    "name": "endAt",
                    "type": "uint256"
                },
                {
                    "internalType": "string",
                    "name": "ipfsUri",
                    "type": "string"
                }
            ],
            "name": "nftInitSale",
            "outputs": [
                {
                    "components": [
                        {
                            "internalType": "uint256",
                            "name": "tokenId",
                            "type": "uint256"
                        },
                        {
                            "internalType": "uint256",
                            "name": "catIdTokId",
                            "type": "uint256"
                        },
                        {
                            "internalType": "uint256",
                            "name": "catId",
                            "type": "uint256"
                        },
                        {
                            "internalType": "uint256",
                            "name": "decimals",
                            "type": "uint256"
                        },
                        {
                            "internalType": "uint256",
                            "name": "cost",
                            "type": "uint256"
                        },
                        {
                            "internalType": "address",
                            "name": "author",
                            "type": "address"
                        },
                        {
                            "internalType": "string",
                            "name": "name",
                            "type": "string"
                        },
                        {
                            "internalType": "string",
                            "name": "desc",
                            "type": "string"
                        },
                        {
                            "internalType": "string",
                            "name": "ipfs",
                            "type": "string"
                        },
                        {
                            "internalType": "uint256",
                            "name": "supply",
                            "type": "uint256"
                        },
                        {
                            "internalType": "uint256",
                            "name": "createdAt",
                            "type": "uint256"
                        },
                        {
                            "internalType": "uint256",
                            "name": "startsAt",
                            "type": "uint256"
                        },
                        {
                            "internalType": "uint256",
                            "name": "endsAt",
                            "type": "uint256"
                        },
                        {
                            "internalType": "uint256",
                            "name": "itemsSold",
                            "type": "uint256"
                        },
                        {
                            "internalType": "bool",
                            "name": "paused",
                            "type": "bool"
                        },
                        {
                            "internalType": "bool",
                            "name": "soldOut",
                            "type": "bool"
                        },
                        {
                            "internalType": "bool",
                            "name": "purchasable",
                            "type": "bool"
                        },
                        {
                            "internalType": "bool",
                            "name": "airdrop",
                            "type": "bool"
                        }
                    ],
                    "internalType": "struct BansclawNftMarket.Struct",
                    "name": "",
                    "type": "tuple"
                }
            ],
            "stateMutability": "nonpayable",
            "type": "function"
        },
        {
            "inputs": [
                {
                    "internalType": "uint256",
                    "name": "_category",
                    "type": "uint256"
                },
                {
                    "internalType": "uint256",
                    "name": "catIdTokId",
                    "type": "uint256"
                }
            ],
            "name": "nftItemsSold",
            "outputs": [
                {
                    "internalType": "uint256",
                    "name": "",
                    "type": "uint256"
                }
            ],
            "stateMutability": "view",
            "type": "function"
        },
        {
            "inputs": [
                {
                    "internalType": "uint256",
                    "name": "_category",
                    "type": "uint256"
                },
                {
                    "internalType": "uint256",
                    "name": "catIdTokId",
                    "type": "uint256"
                },
                {
                    "internalType": "bool",
                    "name": "setPaused",
                    "type": "bool"
                }
            ],
            "name": "nftPause",
            "outputs": [
                {
                    "components": [
                        {
                            "internalType": "uint256",
                            "name": "tokenId",
                            "type": "uint256"
                        },
                        {
                            "internalType": "uint256",
                            "name": "catIdTokId",
                            "type": "uint256"
                        },
                        {
                            "internalType": "uint256",
                            "name": "catId",
                            "type": "uint256"
                        },
                        {
                            "internalType": "uint256",
                            "name": "decimals",
                            "type": "uint256"
                        },
                        {
                            "internalType": "uint256",
                            "name": "cost",
                            "type": "uint256"
                        },
                        {
                            "internalType": "address",
                            "name": "author",
                            "type": "address"
                        },
                        {
                            "internalType": "string",
                            "name": "name",
                            "type": "string"
                        },
                        {
                            "internalType": "string",
                            "name": "desc",
                            "type": "string"
                        },
                        {
                            "internalType": "string",
                            "name": "ipfs",
                            "type": "string"
                        },
                        {
                            "internalType": "uint256",
                            "name": "supply",
                            "type": "uint256"
                        },
                        {
                            "internalType": "uint256",
                            "name": "createdAt",
                            "type": "uint256"
                        },
                        {
                            "internalType": "uint256",
                            "name": "startsAt",
                            "type": "uint256"
                        },
                        {
                            "internalType": "uint256",
                            "name": "endsAt",
                            "type": "uint256"
                        },
                        {
                            "internalType": "uint256",
                            "name": "itemsSold",
                            "type": "uint256"
                        },
                        {
                            "internalType": "bool",
                            "name": "paused",
                            "type": "bool"
                        },
                        {
                            "internalType": "bool",
                            "name": "soldOut",
                            "type": "bool"
                        },
                        {
                            "internalType": "bool",
                            "name": "purchasable",
                            "type": "bool"
                        },
                        {
                            "internalType": "bool",
                            "name": "airdrop",
                            "type": "bool"
                        }
                    ],
                    "internalType": "struct BansclawNftMarket.Struct",
                    "name": "",
                    "type": "tuple"
                }
            ],
            "stateMutability": "nonpayable",
            "type": "function"
        },
        {
            "inputs": [],
            "name": "owner",
            "outputs": [
                {
                    "internalType": "address",
                    "name": "",
                    "type": "address"
                }
            ],
            "stateMutability": "view",
            "type": "function"
        },
        {
            "inputs": [],
            "name": "paused",
            "outputs": [
                {
                    "internalType": "bool",
                    "name": "",
                    "type": "bool"
                }
            ],
            "stateMutability": "view",
            "type": "function"
        },
        {
            "inputs": [
                {
                    "internalType": "address",
                    "name": "removeAddress",
                    "type": "address"
                }
            ],
            "name": "removeAdmin",
            "outputs": [],
            "stateMutability": "nonpayable",
            "type": "function"
        },
        {
            "inputs": [],
            "name": "renounceOwnership",
            "outputs": [],
            "stateMutability": "nonpayable",
            "type": "function"
        },
        {
            "inputs": [
                {
                    "internalType": "bytes32",
                    "name": "role",
                    "type": "bytes32"
                },
                {
                    "internalType": "address",
                    "name": "account",
                    "type": "address"
                }
            ],
            "name": "renounceRole",
            "outputs": [],
            "stateMutability": "nonpayable",
            "type": "function"
        },
        {
            "inputs": [
                {
                    "internalType": "bytes32",
                    "name": "role",
                    "type": "bytes32"
                },
                {
                    "internalType": "address",
                    "name": "account",
                    "type": "address"
                }
            ],
            "name": "revokeRole",
            "outputs": [],
            "stateMutability": "nonpayable",
            "type": "function"
        },
        {
            "inputs": [
                {
                    "internalType": "address",
                    "name": "from",
                    "type": "address"
                },
                {
                    "internalType": "address",
                    "name": "to",
                    "type": "address"
                },
                {
                    "internalType": "uint256[]",
                    "name": "ids",
                    "type": "uint256[]"
                },
                {
                    "internalType": "uint256[]",
                    "name": "amounts",
                    "type": "uint256[]"
                },
                {
                    "internalType": "bytes",
                    "name": "data",
                    "type": "bytes"
                }
            ],
            "name": "safeBatchTransferFrom",
            "outputs": [],
            "stateMutability": "nonpayable",
            "type": "function"
        },
        {
            "inputs": [
                {
                    "internalType": "address",
                    "name": "from",
                    "type": "address"
                },
                {
                    "internalType": "address",
                    "name": "to",
                    "type": "address"
                },
                {
                    "internalType": "uint256",
                    "name": "id",
                    "type": "uint256"
                },
                {
                    "internalType": "uint256",
                    "name": "amount",
                    "type": "uint256"
                },
                {
                    "internalType": "bytes",
                    "name": "data",
                    "type": "bytes"
                }
            ],
            "name": "safeTransferFrom",
            "outputs": [],
            "stateMutability": "nonpayable",
            "type": "function"
        },
        {
            "inputs": [
                {
                    "internalType": "address",
                    "name": "operator",
                    "type": "address"
                },
                {
                    "internalType": "bool",
                    "name": "approved",
                    "type": "bool"
                }
            ],
            "name": "setApprovalForAll",
            "outputs": [],
            "stateMutability": "nonpayable",
            "type": "function"
        },
        {
            "inputs": [
                {
                    "internalType": "uint256",
                    "name": "_catId",
                    "type": "uint256"
                }
            ],
            "name": "showCategoryCount",
            "outputs": [
                {
                    "components": [
                        {
                            "internalType": "uint256",
                            "name": "categoryId",
                            "type": "uint256"
                        },
                        {
                            "internalType": "string",
                            "name": "name",
                            "type": "string"
                        },
                        {
                            "internalType": "string",
                            "name": "desc",
                            "type": "string"
                        },
                        {
                            "internalType": "uint256",
                            "name": "createdAt",
                            "type": "uint256"
                        }
                    ],
                    "internalType": "struct BansclawNftMarket.CategoryStruct",
                    "name": "",
                    "type": "tuple"
                }
            ],
            "stateMutability": "view",
            "type": "function"
        },
        {
            "inputs": [
                {
                    "internalType": "uint256",
                    "name": "category",
                    "type": "uint256"
                },
                {
                    "internalType": "uint256",
                    "name": "id",
                    "type": "uint256"
                }
            ],
            "name": "showItemInCategory",
            "outputs": [
                {
                    "components": [
                        {
                            "internalType": "uint256",
                            "name": "tokenId",
                            "type": "uint256"
                        },
                        {
                            "internalType": "uint256",
                            "name": "catIdTokId",
                            "type": "uint256"
                        },
                        {
                            "internalType": "uint256",
                            "name": "catId",
                            "type": "uint256"
                        },
                        {
                            "internalType": "uint256",
                            "name": "decimals",
                            "type": "uint256"
                        },
                        {
                            "internalType": "uint256",
                            "name": "cost",
                            "type": "uint256"
                        },
                        {
                            "internalType": "address",
                            "name": "author",
                            "type": "address"
                        },
                        {
                            "internalType": "string",
                            "name": "name",
                            "type": "string"
                        },
                        {
                            "internalType": "string",
                            "name": "desc",
                            "type": "string"
                        },
                        {
                            "internalType": "string",
                            "name": "ipfs",
                            "type": "string"
                        },
                        {
                            "internalType": "uint256",
                            "name": "supply",
                            "type": "uint256"
                        },
                        {
                            "internalType": "uint256",
                            "name": "createdAt",
                            "type": "uint256"
                        },
                        {
                            "internalType": "uint256",
                            "name": "startsAt",
                            "type": "uint256"
                        },
                        {
                            "internalType": "uint256",
                            "name": "endsAt",
                            "type": "uint256"
                        },
                        {
                            "internalType": "uint256",
                            "name": "itemsSold",
                            "type": "uint256"
                        },
                        {
                            "internalType": "bool",
                            "name": "paused",
                            "type": "bool"
                        },
                        {
                            "internalType": "bool",
                            "name": "soldOut",
                            "type": "bool"
                        },
                        {
                            "internalType": "bool",
                            "name": "purchasable",
                            "type": "bool"
                        },
                        {
                            "internalType": "bool",
                            "name": "airdrop",
                            "type": "bool"
                        }
                    ],
                    "internalType": "struct BansclawNftMarket.Struct",
                    "name": "",
                    "type": "tuple"
                }
            ],
            "stateMutability": "view",
            "type": "function"
        },
        {
            "inputs": [],
            "name": "showWalletStoreAddress",
            "outputs": [
                {
                    "internalType": "address",
                    "name": "",
                    "type": "address"
                }
            ],
            "stateMutability": "view",
            "type": "function"
        },
        {
            "inputs": [],
            "name": "soldGetReport",
            "outputs": [
                {
                    "internalType": "uint256",
                    "name": "totalSold",
                    "type": "uint256"
                },
                {
                    "internalType": "uint256",
                    "name": "totalDispersed",
                    "type": "uint256"
                },
                {
                    "internalType": "uint256",
                    "name": "totalWaitingToDisperse",
                    "type": "uint256"
                }
            ],
            "stateMutability": "view",
            "type": "function"
        },
        {
            "inputs": [
                {
                    "internalType": "bytes4",
                    "name": "interfaceId",
                    "type": "bytes4"
                }
            ],
            "name": "supportsInterface",
            "outputs": [
                {
                    "internalType": "bool",
                    "name": "",
                    "type": "bool"
                }
            ],
            "stateMutability": "view",
            "type": "function"
        },
        {
            "inputs": [],
            "name": "symbol",
            "outputs": [
                {
                    "internalType": "string",
                    "name": "",
                    "type": "string"
                }
            ],
            "stateMutability": "view",
            "type": "function"
        },
        {
            "inputs": [],
            "name": "tokenId",
            "outputs": [
                {
                    "internalType": "uint256",
                    "name": "",
                    "type": "uint256"
                }
            ],
            "stateMutability": "view",
            "type": "function"
        },
        {
            "inputs": [
                {
                    "internalType": "uint256",
                    "name": "",
                    "type": "uint256"
                }
            ],
            "name": "totalStructs",
            "outputs": [
                {
                    "internalType": "uint256",
                    "name": "",
                    "type": "uint256"
                }
            ],
            "stateMutability": "view",
            "type": "function"
        },
        {
            "inputs": [
                {
                    "internalType": "uint256",
                    "name": "id",
                    "type": "uint256"
                }
            ],
            "name": "totalSupply",
            "outputs": [
                {
                    "internalType": "uint256",
                    "name": "",
                    "type": "uint256"
                }
            ],
            "stateMutability": "view",
            "type": "function"
        },
        {
            "inputs": [
                {
                    "internalType": "address",
                    "name": "newOwner",
                    "type": "address"
                }
            ],
            "name": "transferOwnership",
            "outputs": [],
            "stateMutability": "nonpayable",
            "type": "function"
        },
        {
            "inputs": [],
            "name": "txAuditCnt",
            "outputs": [
                {
                    "internalType": "uint256",
                    "name": "",
                    "type": "uint256"
                }
            ],
            "stateMutability": "view",
            "type": "function"
        },
        {
            "inputs": [
                {
                    "internalType": "uint256",
                    "name": "",
                    "type": "uint256"
                }
            ],
            "name": "txAuditDetails",
            "outputs": [
                {
                    "internalType": "enum BansclawNftMarket.TxType",
                    "name": "txType",
                    "type": "uint8"
                },
                {
                    "internalType": "address",
                    "name": "from",
                    "type": "address"
                },
                {
                    "internalType": "address",
                    "name": "to",
                    "type": "address"
                },
                {
                    "internalType": "uint256",
                    "name": "tokenId",
                    "type": "uint256"
                },
                {
                    "internalType": "uint256",
                    "name": "amount",
                    "type": "uint256"
                }
            ],
            "stateMutability": "view",
            "type": "function"
        },
        {
            "inputs": [
                {
                    "internalType": "uint256",
                    "name": "_tokenId",
                    "type": "uint256"
                }
            ],
            "name": "uri",
            "outputs": [
                {
                    "internalType": "string",
                    "name": "",
                    "type": "string"
                }
            ],
            "stateMutability": "view",
            "type": "function"
        },
        {
            "inputs": [
                {
                    "internalType": "uint256",
                    "name": "catId",
                    "type": "uint256"
                },
                {
                    "internalType": "uint256",
                    "name": "catIdTokId",
                    "type": "uint256"
                }
            ],
            "name": "uriCatIdTokId",
            "outputs": [
                {
                    "internalType": "string",
                    "name": "",
                    "type": "string"
                }
            ],
            "stateMutability": "view",
            "type": "function"
        },
        {
            "stateMutability": "payable",
            "type": "receive"
        }
    ],
    "bytecode": "60806040526101f680546001600160a01b03191673bdf7604279a31e4779bd0b895a2304ad0ef3215717905534801561003757600080fd5b5061597e80620000486000396000f3fe6080604052600436106103025760003560e01c806375b238fc11610190578063b224b4e9116100dc578063e836ef1511610095578063f242432a1161006f578063f242432a146109cd578063f2fde38b146109ed578063f5298aca14610a0d578063fcd3336e14610a2d57600080fd5b8063e836ef1514610934578063e985e9c514610954578063e9d7b14f1461099d57600080fd5b8063b224b4e91461085f578063b503a2b91461087f578063b7db408c14610896578063bd85b039146108c6578063c951f1d8146108f4578063d547741f1461091457600080fd5b806391d14854116101495780639d481aa8116101235780639d481aa8146107ea5780639d55e4611461080a578063a217fddf1461082a578063a22cb4651461083f57600080fd5b806391d1485414610785578063947aef26146107a557806395d89b41146107b857600080fd5b806375b238fc146106f05780637c16ec801461047f5780637e628083146107125780638129fc1c146107325780638b08ac66146107475780638da5cb5b1461076757600080fd5b80632eb2c2d61161024f57806347be918511610208578063524355e2116101e2578063524355e2146106835780635c975abb146106a35780636b20c454146106bb578063715018a6146106db57600080fd5b806347be9185146106135780634e1273f4146106265780634f558e791461065357600080fd5b80632eb2c2d61461055e5780632f2ff15d1461057e5780633112de9a1461059e57806336568abe146105be5780633a6a4d2e146105de57806343dcc862146105f357600080fd5b806316d0a825116102bc5780631d6d13f8116102965780631d6d13f8146104b65780631eb35b59146104e9578063248a9ca3146105165780632a8448c81461054757600080fd5b806316d0a825146104515780631785f53c1461047f57806317d70f7c1461049f57600080fd5b8062fdd58e1461034657806301ffc9a71461037957806302acc94b146103a957806306fdde03146103bc5780630e89341c14610404578063165448591461042457600080fd5b3661034157600034116103365760405162461bcd60e51b815260206004820152600060248201526044015b60405180910390fd5b61033f34610a98565b005b600080fd5b34801561035257600080fd5b506103666103613660046144df565b610ab3565b6040519081526020015b60405180910390f35b34801561038557600080fd5b5061039961039436600461451f565b610b49565b6040519015158152602001610370565b61033f6103b736600461453c565b610b54565b3480156103c857600080fd5b506103f76040518060400160405280600f81526020016e131418590813999d0813585c9ad95d608a1b81525081565b60405161037091906145b8565b34801561041057600080fd5b506103f761041f3660046145cb565b610fd7565b34801561043057600080fd5b5061044461043f3660046145cb565b611082565b60405161037091906145e4565b34801561045d57600080fd5b5061036661046c3660046145cb565b6101ff6020526000908152604090205481565b34801561048b57600080fd5b5061033f61049a36600461463e565b61120b565b3480156104ab57600080fd5b506103666101f75481565b3480156104c257600080fd5b506101f6546001600160a01b03165b6040516001600160a01b039091168152602001610370565b3480156104f557600080fd5b5061050961050436600461471e565b611221565b60405161037091906147bb565b34801561052257600080fd5b506103666105313660046145cb565b6000908152610191602052604090206001015490565b34801561055357600080fd5b506103666101f85481565b34801561056a57600080fd5b5061033f610579366004614992565b61179c565b34801561058a57600080fd5b5061033f610599366004614a3b565b6117e8565b3480156105aa57600080fd5b506103666105b9366004614a67565b611813565b3480156105ca57600080fd5b5061033f6105d9366004614a3b565b611863565b3480156105ea57600080fd5b5061033f6118e1565b3480156105ff57600080fd5b5061036661060e366004614a67565b6119a5565b61033f610621366004614a89565b611a11565b34801561063257600080fd5b50610646610641366004614ac8565b611cea565b6040516103709190614bcd565b34801561065f57600080fd5b5061039961066e3660046145cb565b600090815261015f6020526040902054151590565b34801561068f57600080fd5b5061050961069e366004614be0565b611e13565b3480156106af57600080fd5b5060fb5460ff16610399565b3480156106c757600080fd5b5061033f6106d6366004614c15565b61212d565b3480156106e757600080fd5b5061033f612170565b3480156106fc57600080fd5b5061036660008051602061592983398151915281565b34801561071e57600080fd5b5061050961072d366004614c88565b612182565b34801561073e57600080fd5b5061033f6125ba565b34801561075357600080fd5b5061033f61076236600461463e565b612725565b34801561077357600080fd5b5060c9546001600160a01b03166104d1565b34801561079157600080fd5b506103996107a0366004614a3b565b612750565b61033f6107b3366004614a89565b61277c565b3480156107c457600080fd5b506103f7604051806040016040528060068152602001654c504e46544d60d01b81525081565b3480156107f657600080fd5b50610366610805366004614a67565b6127dd565b34801561081657600080fd5b506103f7610825366004614a67565b612840565b34801561083657600080fd5b50610366600081565b34801561084b57600080fd5b5061033f61085a366004614d08565b6128cf565b34801561086b57600080fd5b5061044461087a366004614d32565b6128da565b34801561088b57600080fd5b506103666101f95481565b3480156108a257600080fd5b506108b66108b13660046145cb565b612ad6565b6040516103709493929190614d8b565b3480156108d257600080fd5b506103666108e13660046145cb565b600090815261015f602052604090205490565b34801561090057600080fd5b5061033f61090f366004614dc8565b612c10565b34801561092057600080fd5b5061033f61092f366004614a3b565b612dc2565b34801561094057600080fd5b5061050961094f366004614a67565b612de8565b34801561096057600080fd5b5061039961096f366004614e60565b6001600160a01b03918216600090815260666020908152604080832093909416825291909152205460ff1690565b3480156109a957600080fd5b506109b261308e565b60408051938452602084019290925290820152606001610370565b3480156109d957600080fd5b5061033f6109e8366004614e8a565b6130d5565b3480156109f957600080fd5b5061033f610a0836600461463e565b6131d6565b348015610a1957600080fd5b5061033f610a28366004614eee565b61324c565b348015610a3957600080fd5b50610a87610a483660046145cb565b6101fc60205260009081526040902080546001820154600283015460039093015460ff8316936101009093046001600160a01b03908116939216919085565b604051610370959493929190614f21565b806101fa6000828254610aab9190614f81565b909155505050565b60006001600160a01b038316610b1e5760405162461bcd60e51b815260206004820152602a60248201527f455243313135353a2061646472657373207a65726f206973206e6f742061207660448201526930b634b21037bbb732b960b11b606482015260840161032d565b5060008181526065602090815260408083206001600160a01b03861684529091529020545b92915050565b6000610b438261328f565b60008381526101fe6020908152604080832085845290915290208054600b90910154421015610bc55760405162461bcd60e51b815260206004820152601d60248201527f5468697320746f6b656e206861736e742073746172746564207965742e000000604482015260640161032d565b60008481526101fe602090815260408083208684529091529020600c0154421115610c325760405162461bcd60e51b815260206004820152601e60248201527f5468697320746f6b656e2068617320656e64656420616c7265616479212e0000604482015260640161032d565b600081118015610c4557506101f7548111155b610c615760405162461bcd60e51b815260040161032d90614f94565b60008481526101fe602090815260408083208684529091529020600e015460ff1615610ccf5760405162461bcd60e51b815260206004820152601f60248201527f5468697320746f6b656e2069732063757272656e746c79207061757365642100604482015260640161032d565b60008481526101fe602090815260408083208684529091529020600e01546301000000900460ff1615610d445760405162461bcd60e51b815260206004820181905260248201527f5468697320746f6b656e2069736e2774207365742061732061697264726f7021604482015260640161032d565b60008481526101fe602090815260408083208684529091529020600e0154610100900460ff1615610dc25760405162461bcd60e51b815260206004820152602260248201527f5468697320746f6b656e20697320636f6d706c6574656c7920736f6c64206f75604482015261742160f01b606482015260840161032d565b600081815261015f60209081526040808320548784526101fe835281842087855290925290912060040154339190610dfb908590614fc4565b341015610e585760405162461bcd60e51b815260206004820152602560248201527f546865206e656564206d6f7265206d6f6e657920746f20707572636861736520604482015264746869732160d81b606482015260840161032d565b60008681526101fe60209081526040808320888452909152902060090154610e81908590614f81565b811115610ea05760405162461bcd60e51b815260040161032d90614fdb565b610ebb828486604051806020016040528060008152506132b4565b604080516001600160a01b0384168152602081018590529081018590527fcd3be83a84e5346ed2a99b490b333b8683509b6a2c877a802aa253932aeee49f9060600160405180910390a150600082815261015f60209081526040808320548884526101fe8352818420888552909252808320600d01829055848352909120600901548110610f6e5760008681526101fe602090815260408083208884529091529020600e01805461ff0019166101001790555b604080516001600160a01b03841681526020810185905290810187905260608101869052608081018590527ffa878df040a631c9e55625aa08e189634ce31b6e93293bee60a552236e915adc9060a00160405180910390a1610fcf34610a98565b505050505050565b6060600082118015610fec57506101f7548211155b61102b5760405162461bcd60e51b815260206004820152601060248201526f53656e6420612076616c69642069642160801b604482015260640161032d565b60008281527f5f4301e3e862ad13c0503d3de32ba4e2e40c90733d1da23c9df4d0addbcf65086020908152604091829020915161106c92600801910161508c565b6040516020818303038152906040529050919050565b6110ad6040518060800160405280600081526020016060815260200160608152602001600081525090565b6101fd6000838152602001908152602001600020604051806080016040529081600082015481526020016001820180546110e690615052565b80601f016020809104026020016040519081016040528092919081815260200182805461111290615052565b801561115f5780601f106111345761010080835404028352916020019161115f565b820191906000526020600020905b81548152906001019060200180831161114257829003601f168201915b5050505050815260200160028201805461117890615052565b80601f01602080910402602001604051908101604052809291908181526020018280546111a490615052565b80156111f15780601f106111c6576101008083540402835291602001916111f1565b820191906000526020600020905b8154815290600101906020018083116111d457829003601f168201915b505050505081526020016003820154815250509050919050565b6112136133d9565b61121e600082613433565b50565b611229614427565b600080516020615929833981519152611241816134ba565b60006101f76000815461125390615102565b918290555060008a81526101ff6020526040812080549293509091829061127990615102565b9190508190559050846101fe60008c81526020019081526020016000206000838152602001908152602001600020600e0160036101000a81548160ff021916908315150217905550856101fe60008c81526020019081526020016000206000838152602001908152602001600020600e0160026101000a81548160ff021916908315150217905550896101fe60008c815260200190815260200160002060008381526020019081526020016000206002018190555060016101fe60008c81526020019081526020016000206000838152602001908152602001600020600e0160006101000a81548160ff021916908315150217905550426101fe60008c81526020019081526020016000206000838152602001908152602001600020600a0181905550806101fe60008c8152602001908152602001600020600083815260200190815260200160002060010181905550816101fe60008c8152602001908152602001600020600083815260200190815260200160002060000181905550886101fe60008c8152602001908152602001600020600083815260200190815260200160002060050160006101000a8154816001600160a01b0302191690836001600160a01b03160217905550876101fe60008c8152602001908152602001600020600083815260200190815260200160002060060190816114789190615161565b5060008a81526101fe6020908152604080832084845290915290206007016114a08882615161565b5060008a81526101fe6020908152604080832084845290915290819020905133917f6c217b36c2f40142ea9af8351e43c00785db53488ea0b94f8b9eb6f12bc1990b916114ee91849161529d565b60405180910390a160008b81526101fe6020908152604080832086845282529182902082516102408101845281548152600182015492810192909252600281015492820192909252600382015460608201526004820154608082015260058201546001600160a01b031660a082015260068201805491929160c08401919061157590615052565b80601f01602080910402602001604051908101604052809291908181526020018280546115a190615052565b80156115ee5780601f106115c3576101008083540402835291602001916115ee565b820191906000526020600020905b8154815290600101906020018083116115d157829003601f168201915b5050505050815260200160078201805461160790615052565b80601f016020809104026020016040519081016040528092919081815260200182805461163390615052565b80156116805780601f1061165557610100808354040283529160200191611680565b820191906000526020600020905b81548152906001019060200180831161166357829003601f168201915b5050505050815260200160088201805461169990615052565b80601f01602080910402602001604051908101604052809291908181526020018280546116c590615052565b80156117125780601f106116e757610100808354040283529160200191611712565b820191906000526020600020905b8154815290600101906020018083116116f557829003601f168201915b505050918352505060098201546020820152600a8201546040820152600b8201546060820152600c8201546080820152600d82015460a0820152600e9091015460ff808216151560c08401526101008083048216151560e085015262010000830482161515908401526301000000909104161515610120909101529b9a5050505050505050505050565b6001600160a01b0385163314806117b857506117b8853361096f565b6117d45760405162461bcd60e51b815260040161032d906153d8565b6117e185858585856134c4565b5050505050565b60008281526101916020526040902060010154611804816134ba565b61180e8383613433565b505050565b60008281526101fe60209081526040808320848452909152812054801580159061184057506101f7548111155b61185c5760405162461bcd60e51b815260040161032d90614f94565b9392505050565b6001600160a01b03811633146118d35760405162461bcd60e51b815260206004820152602f60248201527f416363657373436f6e74726f6c3a2063616e206f6e6c792072656e6f756e636560448201526e103937b632b9903337b91039b2b63360891b606482015260840161032d565b6118dd8282613669565b5050565b6118e96136d1565b600080516020615929833981519152611901816134ba565b60006101fb546101fa546119159190615426565b9050806000036119415760405162461bcd60e51b8152602060048201526000602482015260440161032d565b6101f6546040516001600160a01b039091169082156108fc029083906000818181858888f1935050505015801561197c573d6000803e3d6000fd5b50806101fb60008282546119909190614f81565b909155505060016101c355506119a39050565b565b60008281526101fe6020908152604080832084845290915281205480158015906119d257506101f7548111155b6119ee5760405162461bcd60e51b815260040161032d90614f94565b505060009182526101fe6020908152604080842092845291905290206004015490565b600080516020615929833981519152611a29816134ba565b60008581526101fe602090815260408083208784529091529020548015801590611a5657506101f7548111155b611a725760405162461bcd60e51b815260040161032d90614f94565b60008681526101fe602090815260408083208884529091529020600e01546301000000900460ff16611ae65760405162461bcd60e51b815260206004820181905260248201527f5468697320746f6b656e2069736e2774207365742061732061697264726f7021604482015260640161032d565b60008681526101fe602090815260408083208884529091529020600e0154610100900460ff1615611b595760405162461bcd60e51b815260206004820152601760248201527f5468697320746f6b656e20697320736f6c64206f757421000000000000000000604482015260640161032d565b600081815261015f60209081526040808320548984526101fe835281842089855290925290912060090154849190611b92908790614f81565b811115611bb15760405162461bcd60e51b815260040161032d90614fdb565b611bcc828488604051806020016040528060008152506132b4565b604080516001600160a01b0384168152602081018590529081018790527fcd3be83a84e5346ed2a99b490b333b8683509b6a2c877a802aa253932aeee49f9060600160405180910390a150600082815261015f60209081526040808320548a84526101fe83528184208a8552909252808320600d01829055848352909120600901548110611c7f5760008881526101fe602090815260408083208a84529091529020600e01805461ff0019166101001790555b604080516001600160a01b03841681526020810185905290810189905260608101889052608081018790527ffa878df040a631c9e55625aa08e189634ce31b6e93293bee60a552236e915adc9060a00160405180910390a1611ce034610a98565b5050505050505050565b60608151835114611d4f5760405162461bcd60e51b815260206004820152602960248201527f455243313135353a206163636f756e747320616e6420696473206c656e677468604482015268040dad2e6dac2e8c6d60bb1b606482015260840161032d565b600083516001600160401b03811115611d6a57611d6a614659565b604051908082528060200260200182016040528015611d93578160200160208202803683370190505b50905060005b8451811015611e0b57611dde858281518110611db757611db7615439565b6020026020010151858381518110611dd157611dd1615439565b6020026020010151610ab3565b828281518110611df057611df0615439565b6020908102919091010152611e0481615102565b9050611d99565b509392505050565b611e1b614427565b600080516020615929833981519152611e33816134ba565b60008581526101fe602090815260408083208784529091529020548015801590611e6057506101f7548111155b611e7c5760405162461bcd60e51b815260040161032d90614f94565b60008681526101fe60209081526040808320888452825291829020600e8101805460ff191688151517905582516102408101845281548152600182015492810192909252600281015492820192909252600382015460608201526004820154608082015260058201546001600160a01b031660a082015260068201805491929160c084019190611f0b90615052565b80601f0160208091040260200160405190810160405280929190818152602001828054611f3790615052565b8015611f845780601f10611f5957610100808354040283529160200191611f84565b820191906000526020600020905b815481529060010190602001808311611f6757829003601f168201915b50505050508152602001600782018054611f9d90615052565b80601f0160208091040260200160405190810160405280929190818152602001828054611fc990615052565b80156120165780601f10611feb57610100808354040283529160200191612016565b820191906000526020600020905b815481529060010190602001808311611ff957829003601f168201915b5050505050815260200160088201805461202f90615052565b80601f016020809104026020016040519081016040528092919081815260200182805461205b90615052565b80156120a85780601f1061207d576101008083540402835291602001916120a8565b820191906000526020600020905b81548152906001019060200180831161208b57829003601f168201915b505050918352505060098201546020820152600a8201546040820152600b8201546060820152600c8201546080820152600d82015460a0820152600e9091015460ff808216151560c08401526101008083048216151560e085015262010000830482161515908401526301000000909104161515610120909101529695505050505050565b6001600160a01b0383163314806121495750612149833361096f565b6121655760405162461bcd60e51b815260040161032d906153d8565b61180e838383613734565b6121786133d9565b6119a360006138d4565b61218a614427565b6000805160206159298339815191526121a2816134ba565b60008a81526101fe602090815260408083208c845290915290205480158015906121cf57506101f7548111155b6121eb5760405162461bcd60e51b815260040161032d90614f94565b60008b81526101fe602090815260408083208d84529091529020600e8101805460ff19169055600b8101879055600c810186905560090188905561223789670de0b6b3a7640000614fc4565b60008c81526101fe602090815260408083208e8452909152902060048101919091556003810188905560080161226d8582615161565b506101fe602090815260008c815260408082208d835283528082205482527f5f4301e3e862ad13c0503d3de32ba4e2e40c90733d1da23c9df4d0addbcf6508909252206008016122bd8582615161565b5060008b81526101fe602090815260408083208d845290915290819020905133917f6c217b36c2f40142ea9af8351e43c00785db53488ea0b94f8b9eb6f12bc1990b9161230b91849161529d565b60405180910390a160008c81526101fe602090815260408083208e845282529182902082516102408101845281548152600182015492810192909252600281015492820192909252600382015460608201526004820154608082015260058201546001600160a01b031660a082015260068201805491929160c08401919061239290615052565b80601f01602080910402602001604051908101604052809291908181526020018280546123be90615052565b801561240b5780601f106123e05761010080835404028352916020019161240b565b820191906000526020600020905b8154815290600101906020018083116123ee57829003601f168201915b5050505050815260200160078201805461242490615052565b80601f016020809104026020016040519081016040528092919081815260200182805461245090615052565b801561249d5780601f106124725761010080835404028352916020019161249d565b820191906000526020600020905b81548152906001019060200180831161248057829003601f168201915b505050505081526020016008820180546124b690615052565b80601f01602080910402602001604051908101604052809291908181526020018280546124e290615052565b801561252f5780601f106125045761010080835404028352916020019161252f565b820191906000526020600020905b81548152906001019060200180831161251257829003601f168201915b505050918352505060098201546020820152600a8201546040820152600b8201546060820152600c8201546080820152600d82015460a0820152600e9091015460ff808216151560c08401526101008083048216151560e085015262010000830482161515908401526301000000909104161515610120909101529c9b505050505050505050505050565b600054610100900460ff16158080156125da5750600054600160ff909116105b806125f45750303b1580156125f4575060005460ff166001145b6126575760405162461bcd60e51b815260206004820152602e60248201527f496e697469616c697a61626c653a20636f6e747261637420697320616c72656160448201526d191e481a5b9a5d1a585b1a5e995960921b606482015260840161032d565b6000805460ff19166001179055801561267a576000805461ff0019166101001790555b612682613926565b61268a613956565b612692613956565b61269a613956565b6126a261397d565b6126ba604051806020016040528060008152506139a4565b6126c56000336139d4565b6126dd600080516020615929833981519152336139d4565b801561121e576000805461ff0019169055604051600181527f7f26b83ff96e1f2b6a682f133852f6798a09c465da95921460cefb38474024989060200160405180910390a150565b61272d6133d9565b6101f680546001600160a01b0319166001600160a01b0392909216919091179055565b6000918252610191602090815260408084206001600160a01b0393909316845291905290205460ff1690565b600080516020615929833981519152612794816134ba565b60008581526101fe6020908152604080832087845290915290205480158015906127c157506101f7548111155b611ae65760405162461bcd60e51b815260040161032d90614f94565b60008281526101fe60209081526040808320848452909152812054801580159061280a57506101f7548111155b6128265760405162461bcd60e51b815260040161032d90614f94565b600081815261015f60205260408120545b95945050505050565b60008281526101fe60209081526040808320848452909152902054606090801580159061287057506101f7548111155b61288c5760405162461bcd60e51b815260040161032d90614f94565b60008481526101fe6020908152604080832086845282529182902091516128b792600801910161508c565b60405160208183030381529060405291505092915050565b6118dd3383836139de565b6129056040518060800160405280600081526020016060815260200160608152602001600081525090565b60008051602061592983398151915261291d816134ba565b60006101f96000815461292f90615102565b918290555060008181526101fd602052604090208181559091506001016129568682615161565b5060008181526101fd602052604090206002016129738582615161565b5060008181526101fd60209081526040918290204260038201558251608081019093528054835260018101805491928401916129ae90615052565b80601f01602080910402602001604051908101604052809291908181526020018280546129da90615052565b8015612a275780601f106129fc57610100808354040283529160200191612a27565b820191906000526020600020905b815481529060010190602001808311612a0a57829003601f168201915b50505050508152602001600282018054612a4090615052565b80601f0160208091040260200160405190810160405280929190818152602001828054612a6c90615052565b8015612ab95780601f10612a8e57610100808354040283529160200191612ab9565b820191906000526020600020905b815481529060010190602001808311612a9c57829003601f168201915b505050505081526020016003820154815250509250505092915050565b6101fd6020526000908152604090208054600182018054919291612af990615052565b80601f0160208091040260200160405190810160405280929190818152602001828054612b2590615052565b8015612b725780601f10612b4757610100808354040283529160200191612b72565b820191906000526020600020905b815481529060010190602001808311612b5557829003601f168201915b505050505090806002018054612b8790615052565b80601f0160208091040260200160405190810160405280929190818152602001828054612bb390615052565b8015612c005780601f10612bd557610100808354040283529160200191612c00565b820191906000526020600020905b815481529060010190602001808311612be357829003601f168201915b5050505050908060030154905084565b600080516020615929833981519152612c28816134ba565b60008a81526101fe602090815260408083208c84529091529020548015801590612c5557506101f7548111155b612c715760405162461bcd60e51b815260040161032d90614f94565b60008b81526101fe602090815260408083208d84529091529020600801612c988882615161565b5060008b81526101fe602090815260408083208d845282528083208484527f5f4301e3e862ad13c0503d3de32ba4e2e40c90733d1da23c9df4d0addbcf6508909252909120600890810191612cee91018261544f565b5060008b81526101fe602090815260408083208d84529091529020600b8101879055600c01859055612d2889670de0b6b3a7640000614fc4565b60008c81526101fe602090815260408083208e8452909152908190206004810192909255600982018a9055600e8201805463ffff00001916620100008815150263ff0000001916176301000000871515021790555133917f6c217b36c2f40142ea9af8351e43c00785db53488ea0b94f8b9eb6f12bc1990b91612dac91849161529d565b60405180910390a1505050505050505050505050565b60008281526101916020526040902060010154612dde816134ba565b61180e8383613669565b612df0614427565b60008381526101fe6020908152604080832085845282529182902082516102408101845281548152600182015492810192909252600281015492820192909252600382015460608201526004820154608082015260058201546001600160a01b031660a082015260068201805491929160c084019190612e6f90615052565b80601f0160208091040260200160405190810160405280929190818152602001828054612e9b90615052565b8015612ee85780601f10612ebd57610100808354040283529160200191612ee8565b820191906000526020600020905b815481529060010190602001808311612ecb57829003601f168201915b50505050508152602001600782018054612f0190615052565b80601f0160208091040260200160405190810160405280929190818152602001828054612f2d90615052565b8015612f7a5780601f10612f4f57610100808354040283529160200191612f7a565b820191906000526020600020905b815481529060010190602001808311612f5d57829003601f168201915b50505050508152602001600882018054612f9390615052565b80601f0160208091040260200160405190810160405280929190818152602001828054612fbf90615052565b801561300c5780601f10612fe15761010080835404028352916020019161300c565b820191906000526020600020905b815481529060010190602001808311612fef57829003601f168201915b505050918352505060098201546020820152600a8201546040820152600b8201546060820152600c8201546080820152600d82015460a0820152600e9091015460ff808216151560c08401526101008083048216151560e085015262010000830482161515908401526301000000909104161515610120909101529392505050565b60008060006000805160206159298339815191526130ab816134ba565b60006101fb546101fa546130bf9190615426565b6101fa546101fb54909650945092505050909192565b6001600160a01b0385163314806130f157506130f1853361096f565b6131555760405162461bcd60e51b815260206004820152602f60248201527f455243313135353a2063616c6c6572206973206e6f7420746f6b656e206f776e60448201526e195c881b9bdc88185c1c1c9bdd9959608a1b606482015260840161032d565b6131628585858585613abe565b60006101f86000815461317490615102565b918290555060009081526101fc60205260409020805460016001600160a81b03199091166101006001600160a01b03998a16021781178255600382019490945592830180546001600160a01b0319169590961694909417909455600201555050565b6131de6133d9565b6001600160a01b0381166132435760405162461bcd60e51b815260206004820152602660248201527f4f776e61626c653a206e6577206f776e657220697320746865207a65726f206160448201526564647265737360d01b606482015260840161032d565b61121e816138d4565b6001600160a01b0383163314806132685750613268833361096f565b6132845760405162461bcd60e51b815260040161032d906153d8565b61180e838383613bfa565b60006001600160e01b03198216637965db0b60e01b1480610b435750610b4382613d16565b6001600160a01b0384166133145760405162461bcd60e51b815260206004820152602160248201527f455243313135353a206d696e7420746f20746865207a65726f206164647265736044820152607360f81b606482015260840161032d565b33600061332085613d66565b9050600061332d85613d66565b905061333e83600089858589613db1565b60008681526065602090815260408083206001600160a01b038b16845290915281208054879290613370908490614f81565b909155505060408051878152602081018790526001600160a01b03808a1692600092918716917fc3d58168c5ae7397731d063d5bbf3d657854427343f4c083240f7aacaa2d0f62910160405180910390a46133d083600089898989613dc7565b50505050505050565b60c9546001600160a01b031633146119a35760405162461bcd60e51b815260206004820181905260248201527f4f776e61626c653a2063616c6c6572206973206e6f7420746865206f776e6572604482015260640161032d565b61343d8282612750565b6118dd576000828152610191602090815260408083206001600160a01b03851684529091529020805460ff191660011790556134763390565b6001600160a01b0316816001600160a01b0316837f2f8788117e7eff1d82e926ec794901d17c78024a50270940304540a733656f0d60405160405180910390a45050565b61121e8133613f22565b81518351146134e55760405162461bcd60e51b815260040161032d90615521565b6001600160a01b03841661350b5760405162461bcd60e51b815260040161032d90615569565b3361351a818787878787613db1565b60005b845181101561360357600085828151811061353a5761353a615439565b60200260200101519050600085838151811061355857613558615439565b60209081029190910181015160008481526065835260408082206001600160a01b038e1683529093529190912054909150818110156135a95760405162461bcd60e51b815260040161032d906155ae565b60008381526065602090815260408083206001600160a01b038e8116855292528083208585039055908b168252812080548492906135e8908490614f81565b92505081905550505050806135fc90615102565b905061351d565b50846001600160a01b0316866001600160a01b0316826001600160a01b03167f4a39dc06d4c0dbc64b70af90fd698a233a518aa5d07e595d983b8c0526c8f7fb87876040516136539291906155f8565b60405180910390a4610fcf818787878787613f7b565b6136738282612750565b156118dd576000828152610191602090815260408083206001600160a01b0385168085529252808320805460ff1916905551339285917ff6391f5c32d9c69d2a47ea670b442974b53935d1edc7fd64eb21e047a839171b9190a45050565b60026101c354036137245760405162461bcd60e51b815260206004820152601f60248201527f5265656e7472616e637947756172643a207265656e7472616e742063616c6c00604482015260640161032d565b60026101c355565b60016101c355565b6001600160a01b03831661375a5760405162461bcd60e51b815260040161032d9061561d565b805182511461377b5760405162461bcd60e51b815260040161032d90615521565b600033905061379e81856000868660405180602001604052806000815250613db1565b60005b83518110156138665760008482815181106137be576137be615439565b6020026020010151905060008483815181106137dc576137dc615439565b60209081029190910181015160008481526065835260408082206001600160a01b038c16835290935291909120549091508181101561382d5760405162461bcd60e51b815260040161032d90615660565b60009283526065602090815260408085206001600160a01b038b168652909152909220910390558061385e81615102565b9150506137a1565b5060006001600160a01b0316846001600160a01b0316826001600160a01b03167f4a39dc06d4c0dbc64b70af90fd698a233a518aa5d07e595d983b8c0526c8f7fb86866040516138b79291906155f8565b60405180910390a460408051602081019091526000905250505050565b60c980546001600160a01b038381166001600160a01b0319831681179093556040519116919082907f8be0079c531659141344cd1fd0a4f28419497f9722a3daafe3b4186f6b6457e090600090a35050565b600054610100900460ff1661394d5760405162461bcd60e51b815260040161032d906156a4565b6119a3336138d4565b600054610100900460ff166119a35760405162461bcd60e51b815260040161032d906156a4565b600054610100900460ff1661372c5760405162461bcd60e51b815260040161032d906156a4565b600054610100900460ff166139cb5760405162461bcd60e51b815260040161032d906156a4565b61121e81614036565b6118dd8282613433565b816001600160a01b0316836001600160a01b031603613a515760405162461bcd60e51b815260206004820152602960248201527f455243313135353a2073657474696e6720617070726f76616c20737461747573604482015268103337b91039b2b63360b91b606482015260840161032d565b6001600160a01b03838116600081815260666020908152604080832094871680845294825291829020805460ff191686151590811790915591519182527f17307eab39ab6107e8899845ad3d59bd9653f200f220920489ca2b5937696c31910160405180910390a3505050565b6001600160a01b038416613ae45760405162461bcd60e51b815260040161032d90615569565b336000613af085613d66565b90506000613afd85613d66565b9050613b0d838989858589613db1565b60008681526065602090815260408083206001600160a01b038c16845290915290205485811015613b505760405162461bcd60e51b815260040161032d906155ae565b60008781526065602090815260408083206001600160a01b038d8116855292528083208985039055908a16825281208054889290613b8f908490614f81565b909155505060408051888152602081018890526001600160a01b03808b16928c821692918816917fc3d58168c5ae7397731d063d5bbf3d657854427343f4c083240f7aacaa2d0f62910160405180910390a4613bef848a8a8a8a8a613dc7565b505050505050505050565b6001600160a01b038316613c205760405162461bcd60e51b815260040161032d9061561d565b336000613c2c84613d66565b90506000613c3984613d66565b9050613c5983876000858560405180602001604052806000815250613db1565b60008581526065602090815260408083206001600160a01b038a16845290915290205484811015613c9c5760405162461bcd60e51b815260040161032d90615660565b60008681526065602090815260408083206001600160a01b038b81168086529184528285208a8703905582518b81529384018a90529092908816917fc3d58168c5ae7397731d063d5bbf3d657854427343f4c083240f7aacaa2d0f62910160405180910390a46040805160208101909152600090526133d0565b60006001600160e01b03198216636cdb3d1360e11b1480613d4757506001600160e01b031982166303a24d0760e21b145b80610b4357506301ffc9a760e01b6001600160e01b0319831614610b43565b60408051600180825281830190925260609160009190602080830190803683370190505090508281600081518110613da057613da0615439565b602090810291909101015292915050565b613db9614042565b610fcf868686868686614088565b6001600160a01b0384163b15610fcf5760405163f23a6e6160e01b81526001600160a01b0385169063f23a6e6190613e0b90899089908890889088906004016156ef565b6020604051808303816000875af1925050508015613e46575060408051601f3d908101601f19168201909252613e4391810190615734565b60015b613ef257613e52615751565b806308c379a003613e8b5750613e6661576d565b80613e715750613e8d565b8060405162461bcd60e51b815260040161032d91906145b8565b505b60405162461bcd60e51b815260206004820152603460248201527f455243313135353a207472616e7366657220746f206e6f6e2d455243313135356044820152732932b1b2b4bb32b91034b6b83632b6b2b73a32b960611b606482015260840161032d565b6001600160e01b0319811663f23a6e6160e01b146133d05760405162461bcd60e51b815260040161032d906157f6565b613f2c8282612750565b6118dd57613f3981614212565b613f44836020614224565b604051602001613f5592919061583e565b60408051601f198184030181529082905262461bcd60e51b825261032d916004016145b8565b6001600160a01b0384163b15610fcf5760405163bc197c8160e01b81526001600160a01b0385169063bc197c8190613fbf90899089908890889088906004016158b3565b6020604051808303816000875af1925050508015613ffa575060408051601f3d908101601f19168201909252613ff791810190615734565b60015b61400657613e52615751565b6001600160e01b0319811663bc197c8160e01b146133d05760405162461bcd60e51b815260040161032d906157f6565b60676118dd8282615161565b60fb5460ff16156119a35760405162461bcd60e51b815260206004820152601060248201526f14185d5cd8589b194e881c185d5cd95960821b604482015260640161032d565b6140968686868686866143bf565b6001600160a01b03851661411e5760005b835181101561411c578281815181106140c2576140c2615439565b602002602001015161015f60008684815181106140e1576140e1615439565b6020026020010151815260200190815260200160002060008282546141069190614f81565b90915550614115905081615102565b90506140a7565b505b6001600160a01b038416610fcf5760005b83518110156133d057600084828151811061414c5761414c615439565b60200260200101519050600084838151811061416a5761416a615439565b60200260200101519050600061015f6000848152602001908152602001600020549050818110156141ee5760405162461bcd60e51b815260206004820152602860248201527f455243313135353a206275726e20616d6f756e74206578636565647320746f74604482015267616c537570706c7960c01b606482015260840161032d565b600092835261015f60205260409092209103905561420b81615102565b905061412f565b6060610b436001600160a01b03831660145b60606000614233836002614fc4565b61423e906002614f81565b6001600160401b0381111561425557614255614659565b6040519080825280601f01601f19166020018201604052801561427f576020820181803683370190505b509050600360fc1b8160008151811061429a5761429a615439565b60200101906001600160f81b031916908160001a905350600f60fb1b816001815181106142c9576142c9615439565b60200101906001600160f81b031916908160001a90535060006142ed846002614fc4565b6142f8906001614f81565b90505b6001811115614370576f181899199a1a9b1b9c1cb0b131b232b360811b85600f166010811061432c5761432c615439565b1a60f81b82828151811061434257614342615439565b60200101906001600160f81b031916908160001a90535060049490941c9361436981615911565b90506142fb565b50831561185c5760405162461bcd60e51b815260206004820181905260248201527f537472696e67733a20686578206c656e67746820696e73756666696369656e74604482015260640161032d565b60fb5460ff1615610fcf5760405162461bcd60e51b815260206004820152602c60248201527f455243313135355061757361626c653a20746f6b656e207472616e736665722060448201526b1dda1a5b19481c185d5cd95960a21b606482015260840161032d565b604051806102400160405280600081526020016000815260200160008152602001600081526020016000815260200160006001600160a01b0316815260200160608152602001606081526020016060815260200160008152602001600081526020016000815260200160008152602001600081526020016000151581526020016000151581526020016000151581526020016000151581525090565b80356001600160a01b03811681146144da57600080fd5b919050565b600080604083850312156144f257600080fd5b6144fb836144c3565b946020939093013593505050565b6001600160e01b03198116811461121e57600080fd5b60006020828403121561453157600080fd5b813561185c81614509565b60008060006060848603121561455157600080fd5b505081359360208301359350604090920135919050565b60005b8381101561458357818101518382015260200161456b565b50506000910152565b600081518084526145a4816020860160208601614568565b601f01601f19169290920160200192915050565b60208152600061185c602083018461458c565b6000602082840312156145dd57600080fd5b5035919050565b6020815281516020820152600060208301516080604084015261460a60a084018261458c565b90506040840151601f19848303016060850152614627828261458c565b915050606084015160808401528091505092915050565b60006020828403121561465057600080fd5b61185c826144c3565b634e487b7160e01b600052604160045260246000fd5b601f8201601f191681016001600160401b038111828210171561469457614694614659565b6040525050565b600082601f8301126146ac57600080fd5b81356001600160401b038111156146c5576146c5614659565b6040516146dc601f8301601f19166020018261466f565b8181528460208386010111156146f157600080fd5b816020850160208301376000918101602001919091529392505050565b803580151581146144da57600080fd5b60008060008060008060c0878903121561473757600080fd5b86359550614747602088016144c3565b945060408701356001600160401b038082111561476357600080fd5b61476f8a838b0161469b565b9550606089013591508082111561478557600080fd5b5061479289828a0161469b565b9350506147a16080880161470e565b91506147af60a0880161470e565b90509295509295509295565b6020815281516020820152602082015160408201526040820151606082015260608201516080820152608082015160a0820152600060a083015161480a60c08401826001600160a01b03169052565b5060c08301516102408060e085015261482761026085018361458c565b915060e0850151601f19610100818786030181880152614847858461458c565b945080880151925050610120818786030181880152614866858461458c565b908801516101408881019190915288015161016080890191909152880151610180808901919091528801516101a0808901919091528801516101c08089019190915288015190945091506101e090506148c28187018315159052565b86015190506102006148d78682018315159052565b86015190506102206148ec8682018315159052565b90950151151593019290925250919050565b60006001600160401b0382111561491757614917614659565b5060051b60200190565b600082601f83011261493257600080fd5b8135602061493f826148fe565b60405161494c828261466f565b83815260059390931b850182019282810191508684111561496c57600080fd5b8286015b848110156149875780358352918301918301614970565b509695505050505050565b600080600080600060a086880312156149aa57600080fd5b6149b3866144c3565b94506149c1602087016144c3565b935060408601356001600160401b03808211156149dd57600080fd5b6149e989838a01614921565b945060608801359150808211156149ff57600080fd5b614a0b89838a01614921565b93506080880135915080821115614a2157600080fd5b50614a2e8882890161469b565b9150509295509295909350565b60008060408385031215614a4e57600080fd5b82359150614a5e602084016144c3565b90509250929050565b60008060408385031215614a7a57600080fd5b50508035926020909101359150565b60008060008060808587031215614a9f57600080fd5b843593506020850135925060408501359150614abd606086016144c3565b905092959194509250565b60008060408385031215614adb57600080fd5b82356001600160401b0380821115614af257600080fd5b818501915085601f830112614b0657600080fd5b81356020614b13826148fe565b604051614b20828261466f565b83815260059390931b8501820192828101915089841115614b4057600080fd5b948201945b83861015614b6557614b56866144c3565b82529482019490820190614b45565b96505086013592505080821115614b7b57600080fd5b50614b8885828601614921565b9150509250929050565b600081518084526020808501945080840160005b83811015614bc257815187529582019590820190600101614ba6565b509495945050505050565b60208152600061185c6020830184614b92565b600080600060608486031215614bf557600080fd5b8335925060208401359150614c0c6040850161470e565b90509250925092565b600080600060608486031215614c2a57600080fd5b614c33846144c3565b925060208401356001600160401b0380821115614c4f57600080fd5b614c5b87838801614921565b93506040860135915080821115614c7157600080fd5b50614c7e86828701614921565b9150509250925092565b600080600080600080600080610100898b031215614ca557600080fd5b883597506020890135965060408901359550606089013594506080890135935060a0890135925060c0890135915060e08901356001600160401b03811115614cec57600080fd5b614cf88b828c0161469b565b9150509295985092959890939650565b60008060408385031215614d1b57600080fd5b614d24836144c3565b9150614a5e6020840161470e565b60008060408385031215614d4557600080fd5b82356001600160401b0380821115614d5c57600080fd5b614d688683870161469b565b93506020850135915080821115614d7e57600080fd5b50614b888582860161469b565b848152608060208201526000614da4608083018661458c565b8281036040840152614db6818661458c565b91505082606083015295945050505050565b60008060008060008060008060006101208a8c031215614de757600080fd5b8935985060208a0135975060408a0135965060608a0135955060808a01356001600160401b03811115614e1957600080fd5b614e258c828d0161469b565b95505060a08a0135935060c08a01359250614e4260e08b0161470e565b9150614e516101008b0161470e565b90509295985092959850929598565b60008060408385031215614e7357600080fd5b614e7c836144c3565b9150614a5e602084016144c3565b600080600080600060a08688031215614ea257600080fd5b614eab866144c3565b9450614eb9602087016144c3565b9350604086013592506060860135915060808601356001600160401b03811115614ee257600080fd5b614a2e8882890161469b565b600080600060608486031215614f0357600080fd5b614f0c846144c3565b95602085013595506040909401359392505050565b60a0810160038710614f4357634e487b7160e01b600052602160045260246000fd5b9581526001600160a01b03948516602082015292909316604083015260608201526080015290565b634e487b7160e01b600052601160045260246000fd5b80820180821115610b4357610b43614f6b565b602080825260169082015275496e76616c696420746f6b656e2069642073656e742160501b604082015260600190565b8082028115828204841417610b4357610b43614f6b565b60208082526051908201527f5468652020746f74616c20737570706c7920796f75206172652077616e74696e60408201527f6720746f207075726368617365206e6565647320746f206265206c657373207460608201527068616e20746f74616c20737570706c792160781b608082015260a00190565b600181811c9082168061506657607f821691505b60208210810361508657634e487b7160e01b600052602260045260246000fd5b50919050565b600080835461509a81615052565b600182811680156150b257600181146150c7576150f6565b60ff19841687528215158302870194506150f6565b8760005260208060002060005b858110156150ed5781548a8201529084019082016150d4565b50505082870194505b50929695505050505050565b60006001820161511457615114614f6b565b5060010190565b601f82111561180e57600081815260208120601f850160051c810160208610156151425750805b601f850160051c820191505b81811015610fcf5782815560010161514e565b81516001600160401b0381111561517a5761517a614659565b61518e816151888454615052565b8461511b565b602080601f8311600181146151c357600084156151ab5750858301515b600019600386901b1c1916600185901b178555610fcf565b600085815260208120601f198616915b828110156151f2578886015182559484019460019091019084016151d3565b50858210156152105787850151600019600388901b60f8161c191681555b5050505050600190811b01905550565b6000815461522d81615052565b80855260206001838116801561524a576001811461526457615292565b60ff1985168884015283151560051b880183019550615292565b866000528260002060005b8581101561528a5781548a820186015290830190840161526f565b890184019650505b505050505092915050565b6001600160a01b0383811682526040602083018190528354908301526001830154606083015260028301546080830152600383015460a0830152600483015460c083015260058301541660e0820152610240610100820181905260009061530b610280840160068601615220565b603f1980858303016101208601526153268260078801615220565b91508085830301610140860152506153418160088701615220565b90506009850154610160850152600a850154610180850152600b8501546101a0850152600c8501546101c0850152600d8501546101e0850152600e850154615391610200860160ff831615159052565b6153a6610220860160ff8360081c1615159052565b6153b983860160ff8360101c1615159052565b6153ce610260860160ff8360181c1615159052565b5095945050505050565b6020808252602e908201527f455243313135353a2063616c6c6572206973206e6f7420746f6b656e206f776e60408201526d195c881bdc88185c1c1c9bdd995960921b606082015260800190565b81810381811115610b4357610b43614f6b565b634e487b7160e01b600052603260045260246000fd5b81810361545a575050565b6154648254615052565b6001600160401b0381111561547b5761547b614659565b615489816151888454615052565b6000601f8211600181146154bd57600083156154a55750848201545b600019600385901b1c1916600184901b1784556117e1565b600085815260209020601f19841690600086815260209020845b838110156154f757828601548255600195860195909101906020016154d7565b50858310156152105793015460001960f8600387901b161c19169092555050600190811b01905550565b60208082526028908201527f455243313135353a2069647320616e6420616d6f756e7473206c656e677468206040820152670dad2e6dac2e8c6d60c31b606082015260800190565b60208082526025908201527f455243313135353a207472616e7366657220746f20746865207a65726f206164604082015264647265737360d81b606082015260800190565b6020808252602a908201527f455243313135353a20696e73756666696369656e742062616c616e636520666f60408201526939103a3930b739b332b960b11b606082015260800190565b60408152600061560b6040830185614b92565b82810360208401526128378185614b92565b60208082526023908201527f455243313135353a206275726e2066726f6d20746865207a65726f206164647260408201526265737360e81b606082015260800190565b60208082526024908201527f455243313135353a206275726e20616d6f756e7420657863656564732062616c604082015263616e636560e01b606082015260800190565b6020808252602b908201527f496e697469616c697a61626c653a20636f6e7472616374206973206e6f74206960408201526a6e697469616c697a696e6760a81b606082015260800190565b6001600160a01b03868116825285166020820152604081018490526060810183905260a0608082018190526000906157299083018461458c565b979650505050505050565b60006020828403121561574657600080fd5b815161185c81614509565b600060033d111561576a5760046000803e5060005160e01c5b90565b600060443d101561577b5790565b6040516003193d81016004833e81513d6001600160401b0381602484011181841117156157aa57505050505090565b82850191508151818111156157c25750505050505090565b843d87010160208285010111156157dc5750505050505090565b6157eb6020828601018761466f565b509095945050505050565b60208082526028908201527f455243313135353a204552433131353552656365697665722072656a656374656040820152676420746f6b656e7360c01b606082015260800190565b7f416363657373436f6e74726f6c3a206163636f756e7420000000000000000000815260008351615876816017850160208801614568565b7001034b99036b4b9b9b4b733903937b6329607d1b60179184019182015283516158a7816028840160208801614568565b01602801949350505050565b6001600160a01b0386811682528516602082015260a0604082018190526000906158df90830186614b92565b82810360608401526158f18186614b92565b90508281036080840152615905818561458c565b98975050505050505050565b60008161592057615920614f6b565b50600019019056fea49807205ce4d355092ef5a8a18f56e8913cf4a201fbe287825b095693c21775a26469706673582212205614b2e0357df56b30fc84dcd9ae3f7ebc03b991958182dafb1592fc44c7302064736f6c63430008130033",
    "sourcePath": "d:/repos/lpad/repos/dapp/contracts/src/contracts/Nft.Market/LPadMarket.sol",
    "compiler": {
        "name": "solc",
        "version": "0.8.19+commit.7dd6d404"
    },
    "functionHashes": {
        "ADMIN_ROLE()": "75b238fc",
        "DEFAULT_ADMIN_ROLE()": "a217fddf",
        "addAddressAdmin(address)": "7c16ec80",
        "balanceOf(address,uint256)": "00fdd58e",
        "balanceOfBatch(address[],uint256[])": "4e1273f4",
        "burn(address,uint256,uint256)": "f5298aca",
        "burnBatch(address,uint256[],uint256[])": "6b20c454",
        "categoryId()": "b503a2b9",
        "categoryStructs(uint256)": "b7db408c",
        "changeWalletStore(address)": "8b08ac66",
        "createCategory(string,string)": "b224b4e9",
        "distributeFunds()": "3a6a4d2e",
        "exists(uint256)": "4f558e79",
        "getRoleAdmin(bytes32)": "248a9ca3",
        "getTokenId(uint256,uint256)": "3112de9a",
        "grantRole(bytes32,address)": "2f2ff15d",
        "hasRole(bytes32,address)": "91d14854",
        "initialize()": "8129fc1c",
        "isApprovedForAll(address,address)": "e985e9c5",
        "mint(uint256,uint256,uint256)": "02acc94b",
        "mintAirdrop(uint256,uint256,uint256,address)": "47be9185",
        "mintEmergencyAirdrop(uint256,uint256,uint256,address)": "947aef26",
        "name()": "06fdde03",
        "nftChangeDefaultSetting(uint256,uint256,uint256,uint256,string,uint256,uint256,bool,bool)": "c951f1d8",
        "nftCreateItem(uint256,address,string,string,bool,bool)": "1eb35b59",
        "nftGetPrice(uint256,uint256)": "43dcc862",
        "nftInitSale(uint256,uint256,uint256,uint256,uint256,uint256,uint256,string)": "7e628083",
        "nftItemsSold(uint256,uint256)": "9d481aa8",
        "nftPause(uint256,uint256,bool)": "524355e2",
        "owner()": "8da5cb5b",
        "paused()": "5c975abb",
        "removeAdmin(address)": "1785f53c",
        "renounceOwnership()": "715018a6",
        "renounceRole(bytes32,address)": "36568abe",
        "revokeRole(bytes32,address)": "d547741f",
        "safeBatchTransferFrom(address,address,uint256[],uint256[],bytes)": "2eb2c2d6",
        "safeTransferFrom(address,address,uint256,uint256,bytes)": "f242432a",
        "setApprovalForAll(address,bool)": "a22cb465",
        "showCategoryCount(uint256)": "16544859",
        "showItemInCategory(uint256,uint256)": "e836ef15",
        "showWalletStoreAddress()": "1d6d13f8",
        "soldGetReport()": "e9d7b14f",
        "supportsInterface(bytes4)": "01ffc9a7",
        "symbol()": "95d89b41",
        "tokenId()": "17d70f7c",
        "totalStructs(uint256)": "16d0a825",
        "totalSupply(uint256)": "bd85b039",
        "transferOwnership(address)": "f2fde38b",
        "txAuditCnt()": "2a8448c8",
        "txAuditDetails(uint256)": "fcd3336e",
        "uri(uint256)": "0e89341c",
        "uriCatIdTokId(uint256,uint256)": "9d55e461"
    },
    "gasEstimates": {
        "creation": {
            "codeDepositCost": "4582000",
            "executionCost": "29584",
            "totalCost": "4611584"
        },
        "external": {
            "ADMIN_ROLE()": "infinite",
            "DEFAULT_ADMIN_ROLE()": "295",
            "addAddressAdmin(address)": "31228",
            "balanceOf(address,uint256)": "2726",
            "balanceOfBatch(address[],uint256[])": "infinite",
            "burn(address,uint256,uint256)": "infinite",
            "burnBatch(address,uint256[],uint256[])": "infinite",
            "categoryId()": "2351",
            "categoryStructs(uint256)": "infinite",
            "changeWalletStore(address)": "26869",
            "createCategory(string,string)": "infinite",
            "distributeFunds()": "infinite",
            "exists(uint256)": "2562",
            "getRoleAdmin(bytes32)": "2545",
            "getTokenId(uint256,uint256)": "4866",
            "grantRole(bytes32,address)": "infinite",
            "hasRole(bytes32,address)": "2733",
            "initialize()": "infinite",
            "isApprovedForAll(address,address)": "infinite",
            "mint(uint256,uint256,uint256)": "infinite",
            "mintAirdrop(uint256,uint256,uint256,address)": "infinite",
            "mintEmergencyAirdrop(uint256,uint256,uint256,address)": "infinite",
            "name()": "infinite",
            "nftChangeDefaultSetting(uint256,uint256,uint256,uint256,string,uint256,uint256,bool,bool)": "infinite",
            "nftCreateItem(uint256,address,string,string,bool,bool)": "infinite",
            "nftGetPrice(uint256,uint256)": "7098",
            "nftInitSale(uint256,uint256,uint256,uint256,uint256,uint256,uint256,string)": "infinite",
            "nftItemsSold(uint256,uint256)": "6941",
            "nftPause(uint256,uint256,bool)": "infinite",
            "owner()": "2487",
            "paused()": "2393",
            "removeAdmin(address)": "31251",
            "renounceOwnership()": "infinite",
            "renounceRole(bytes32,address)": "29113",
            "revokeRole(bytes32,address)": "infinite",
            "safeBatchTransferFrom(address,address,uint256[],uint256[],bytes)": "infinite",
            "safeTransferFrom(address,address,uint256,uint256,bytes)": "infinite",
            "setApprovalForAll(address,bool)": "infinite",
            "showCategoryCount(uint256)": "infinite",
            "showItemInCategory(uint256,uint256)": "infinite",
            "showWalletStoreAddress()": "2388",
            "soldGetReport()": "infinite",
            "supportsInterface(bytes4)": "infinite",
            "symbol()": "infinite",
            "tokenId()": "2397",
            "totalStructs(uint256)": "2496",
            "totalSupply(uint256)": "2538",
            "transferOwnership(address)": "28424",
            "txAuditCnt()": "2418",
            "txAuditDetails(uint256)": "9120",
            "uri(uint256)": "infinite",
            "uriCatIdTokId(uint256,uint256)": "infinite"
        },
        "internal": {
            "_beforeTokenTransfer(address,address,address,uint256[] memory,uint256[] memory,bytes memory)": "infinite",
            "distribute(uint256)": "24311"
        }
    }
}