{
    "contractName": "LPadNFT",
    "abi": [
        {
            "inputs": [
                {
                    "internalType": "address",
                    "name": "_marketplaceAddress",
                    "type": "address"
                }
            ],
            "stateMutability": "nonpayable",
            "type": "constructor"
        },
        {
            "anonymous": false,
            "inputs": [
                {
                    "indexed": true,
                    "internalType": "address",
                    "name": "owner",
                    "type": "address"
                },
                {
                    "indexed": true,
                    "internalType": "address",
                    "name": "approved",
                    "type": "address"
                },
                {
                    "indexed": true,
                    "internalType": "uint256",
                    "name": "tokenId",
                    "type": "uint256"
                }
            ],
            "name": "Approval",
            "type": "event"
        },
        {
            "anonymous": false,
            "inputs": [
                {
                    "indexed": true,
                    "internalType": "address",
                    "name": "owner",
                    "type": "address"
                },
                {
                    "indexed": true,
                    "internalType": "address",
                    "name": "operator",
                    "type": "address"
                },
                {
                    "indexed": false,
                    "internalType": "bool",
                    "name": "approved",
                    "type": "bool"
                }
            ],
            "name": "ApprovalForAll",
            "type": "event"
        },
        {
            "anonymous": false,
            "inputs": [
                {
                    "indexed": true,
                    "internalType": "uint256",
                    "name": "tokenId",
                    "type": "uint256"
                },
                {
                    "indexed": false,
                    "internalType": "string",
                    "name": "tokenURI",
                    "type": "string"
                },
                {
                    "indexed": false,
                    "internalType": "address",
                    "name": "marketplaceAddress",
                    "type": "address"
                }
            ],
            "name": "TokenMinted",
            "type": "event"
        },
        {
            "anonymous": false,
            "inputs": [
                {
                    "indexed": true,
                    "internalType": "address",
                    "name": "from",
                    "type": "address"
                },
                {
                    "indexed": true,
                    "internalType": "address",
                    "name": "to",
                    "type": "address"
                },
                {
                    "indexed": true,
                    "internalType": "uint256",
                    "name": "tokenId",
                    "type": "uint256"
                }
            ],
            "name": "Transfer",
            "type": "event"
        },
        {
            "inputs": [
                {
                    "internalType": "address",
                    "name": "to",
                    "type": "address"
                },
                {
                    "internalType": "uint256",
                    "name": "tokenId",
                    "type": "uint256"
                }
            ],
            "name": "approve",
            "outputs": [],
            "stateMutability": "nonpayable",
            "type": "function"
        },
        {
            "inputs": [
                {
                    "internalType": "address",
                    "name": "owner",
                    "type": "address"
                }
            ],
            "name": "balanceOf",
            "outputs": [
                {
                    "internalType": "uint256",
                    "name": "",
                    "type": "uint256"
                }
            ],
            "stateMutability": "view",
            "type": "function"
        },
        {
            "inputs": [
                {
                    "internalType": "uint256",
                    "name": "tokenId",
                    "type": "uint256"
                }
            ],
            "name": "getApproved",
            "outputs": [
                {
                    "internalType": "address",
                    "name": "",
                    "type": "address"
                }
            ],
            "stateMutability": "view",
            "type": "function"
        },
        {
            "inputs": [
                {
                    "internalType": "uint256",
                    "name": "tokenId",
                    "type": "uint256"
                }
            ],
            "name": "getTokenCreatorById",
            "outputs": [
                {
                    "internalType": "address",
                    "name": "",
                    "type": "address"
                }
            ],
            "stateMutability": "view",
            "type": "function"
        },
        {
            "inputs": [],
            "name": "getTokensCreatedByMe",
            "outputs": [
                {
                    "internalType": "uint256[]",
                    "name": "",
                    "type": "uint256[]"
                }
            ],
            "stateMutability": "view",
            "type": "function"
        },
        {
            "inputs": [],
            "name": "getTokensOwnedByMe",
            "outputs": [
                {
                    "internalType": "uint256[]",
                    "name": "",
                    "type": "uint256[]"
                }
            ],
            "stateMutability": "view",
            "type": "function"
        },
        {
            "inputs": [
                {
                    "internalType": "address",
                    "name": "owner",
                    "type": "address"
                },
                {
                    "internalType": "address",
                    "name": "operator",
                    "type": "address"
                }
            ],
            "name": "isApprovedForAll",
            "outputs": [
                {
                    "internalType": "bool",
                    "name": "",
                    "type": "bool"
                }
            ],
            "stateMutability": "view",
            "type": "function"
        },
        {
            "inputs": [
                {
                    "internalType": "string",
                    "name": "tokenURI",
                    "type": "string"
                }
            ],
            "name": "mintToken",
            "outputs": [
                {
                    "internalType": "uint256",
                    "name": "",
                    "type": "uint256"
                }
            ],
            "stateMutability": "nonpayable",
            "type": "function"
        },
        {
            "inputs": [],
            "name": "name",
            "outputs": [
                {
                    "internalType": "string",
                    "name": "",
                    "type": "string"
                }
            ],
            "stateMutability": "view",
            "type": "function"
        },
        {
            "inputs": [
                {
                    "internalType": "uint256",
                    "name": "tokenId",
                    "type": "uint256"
                }
            ],
            "name": "ownerOf",
            "outputs": [
                {
                    "internalType": "address",
                    "name": "",
                    "type": "address"
                }
            ],
            "stateMutability": "view",
            "type": "function"
        },
        {
            "inputs": [
                {
                    "internalType": "address",
                    "name": "from",
                    "type": "address"
                },
                {
                    "internalType": "address",
                    "name": "to",
                    "type": "address"
                },
                {
                    "internalType": "uint256",
                    "name": "tokenId",
                    "type": "uint256"
                }
            ],
            "name": "safeTransferFrom",
            "outputs": [],
            "stateMutability": "nonpayable",
            "type": "function"
        },
        {
            "inputs": [
                {
                    "internalType": "address",
                    "name": "from",
                    "type": "address"
                },
                {
                    "internalType": "address",
                    "name": "to",
                    "type": "address"
                },
                {
                    "internalType": "uint256",
                    "name": "tokenId",
                    "type": "uint256"
                },
                {
                    "internalType": "bytes",
                    "name": "data",
                    "type": "bytes"
                }
            ],
            "name": "safeTransferFrom",
            "outputs": [],
            "stateMutability": "nonpayable",
            "type": "function"
        },
        {
            "inputs": [
                {
                    "internalType": "address",
                    "name": "operator",
                    "type": "address"
                },
                {
                    "internalType": "bool",
                    "name": "approved",
                    "type": "bool"
                }
            ],
            "name": "setApprovalForAll",
            "outputs": [],
            "stateMutability": "nonpayable",
            "type": "function"
        },
        {
            "inputs": [
                {
                    "internalType": "bytes4",
                    "name": "interfaceId",
                    "type": "bytes4"
                }
            ],
            "name": "supportsInterface",
            "outputs": [
                {
                    "internalType": "bool",
                    "name": "",
                    "type": "bool"
                }
            ],
            "stateMutability": "view",
            "type": "function"
        },
        {
            "inputs": [],
            "name": "symbol",
            "outputs": [
                {
                    "internalType": "string",
                    "name": "",
                    "type": "string"
                }
            ],
            "stateMutability": "view",
            "type": "function"
        },
        {
            "inputs": [
                {
                    "internalType": "uint256",
                    "name": "tokenId",
                    "type": "uint256"
                }
            ],
            "name": "tokenURI",
            "outputs": [
                {
                    "internalType": "string",
                    "name": "",
                    "type": "string"
                }
            ],
            "stateMutability": "view",
            "type": "function"
        },
        {
            "inputs": [
                {
                    "internalType": "address",
                    "name": "from",
                    "type": "address"
                },
                {
                    "internalType": "address",
                    "name": "to",
                    "type": "address"
                },
                {
                    "internalType": "uint256",
                    "name": "tokenId",
                    "type": "uint256"
                }
            ],
            "name": "transferFrom",
            "outputs": [],
            "stateMutability": "nonpayable",
            "type": "function"
        }
    ],
    "bytecode": "60806040523480156200001157600080fd5b5060405162001b9e38038062001b9e8339810160408190526200003491620000bb565b6040518060400160405280600781526020016604d61726b4b6f760cc1b815250604051806040016040528060048152602001634d41524b60e01b815250816000908162000082919062000192565b50600162000091828262000192565b5050600880546001600160a01b0319166001600160a01b039390931692909217909155506200025e565b600060208284031215620000ce57600080fd5b81516001600160a01b0381168114620000e657600080fd5b9392505050565b634e487b7160e01b600052604160045260246000fd5b600181811c908216806200011857607f821691505b6020821081036200013957634e487b7160e01b600052602260045260246000fd5b50919050565b601f8211156200018d57600081815260208120601f850160051c81016020861015620001685750805b601f850160051c820191505b81811015620001895782815560010162000174565b5050505b505050565b81516001600160401b03811115620001ae57620001ae620000ed565b620001c681620001bf845462000103565b846200013f565b602080601f831160018114620001fe5760008415620001e55750858301515b600019600386901b1c1916600185901b17855562000189565b600085815260208120601f198616915b828110156200022f578886015182559484019460019091019084016200020e565b50858210156200024e5787850151600019600388901b60f8161c191681555b5050505050600190811b01905550565b611930806200026e6000396000f3fe608060405234801561001057600080fd5b506004361061010b5760003560e01c80635ba37742116100a257806395d89b411161007157806395d89b4114610240578063a22cb46514610248578063b88d4fde1461025b578063c87b56dd1461026e578063e985e9c51461028157600080fd5b80635ba37742146101e95780636352211e146101f157806370a0823114610204578063867d33971461021757600080fd5b80630a989d9c116100de5780630a989d9c1461018d57806323b872dd146101a257806333eba49a146101b557806342842e0e146101d657600080fd5b806301ffc9a71461011057806306fdde0314610138578063081812fc1461014d578063095ea7b314610178575b600080fd5b61012361011e36600461127c565b610294565b60405190151581526020015b60405180910390f35b6101406102e6565b60405161012f91906112e9565b61016061015b3660046112fc565b610378565b6040516001600160a01b03909116815260200161012f565b61018b610186366004611331565b61039f565b005b6101956104b9565b60405161012f919061135b565b61018b6101b036600461139f565b61059e565b6101c86101c3366004611467565b6105cf565b60405190815260200161012f565b61018b6101e436600461139f565b610684565b61019561069f565b6101606101ff3660046112fc565b6107d6565b6101c86102123660046114b0565b610836565b6101606102253660046112fc565b6000908152600960205260409020546001600160a01b031690565b6101406108bc565b61018b6102563660046114cb565b6108cb565b61018b610269366004611507565b6108da565b61014061027c3660046112fc565b610912565b61012361028f366004611583565b610a22565b60006001600160e01b031982166380ac58cd60e01b14806102c557506001600160e01b03198216635b5e139f60e01b145b806102e057506301ffc9a760e01b6001600160e01b03198316145b92915050565b6060600080546102f5906115b6565b80601f0160208091040260200160405190810160405280929190818152602001828054610321906115b6565b801561036e5780601f106103435761010080835404028352916020019161036e565b820191906000526020600020905b81548152906001019060200180831161035157829003601f168201915b5050505050905090565b600061038382610a50565b506000908152600460205260409020546001600160a01b031690565b60006103aa826107d6565b9050806001600160a01b0316836001600160a01b03160361041c5760405162461bcd60e51b815260206004820152602160248201527f4552433732313a20617070726f76616c20746f2063757272656e74206f776e656044820152603960f91b60648201526084015b60405180910390fd5b336001600160a01b038216148061043857506104388133610a22565b6104aa5760405162461bcd60e51b815260206004820152603e60248201527f4552433732313a20617070726f76652063616c6c6572206973206e6f7420746f60448201527f6b656e206f776e6572206e6f7220617070726f76656420666f7220616c6c00006064820152608401610413565b6104b48383610ab2565b505050565b606060006104c660075490565b905060006104d333610836565b905060008167ffffffffffffffff8111156104f0576104f06113db565b604051908082528060200260200182016040528015610519578160200160208202803683370190505b5090506000805b84811015610594576000610535826001611606565b905033610541826107d6565b6001600160a01b0316146105555750610582565b8084848151811061056857610568611619565b602090810291909101015261057e600184611606565b9250505b8061058c8161162f565b915050610520565b5090949350505050565b6105a83382610b20565b6105c45760405162461bcd60e51b815260040161041390611648565b6104b4838383610b7e565b60006105df600780546001019055565b60006105ea60075490565b90506105f63382610d1a565b600081815260096020526040902080546001600160a01b0319163317905561061e8184610e5c565b600854610635906001600160a01b031660016108cb565b60085460405182917f9ef9d09a98563c827f651a028105395cc17f94ef23eb26b70d241439386a62f4916106769187916001600160a01b0390911690611696565b60405180910390a292915050565b6104b4838383604051806020016040528060008152506108da565b606060006106ac60075490565b90506000805b8281101561070f5760006106c7826001611606565b6000818152600960205260409020549091506001600160a01b031633146106ee57506106fd565b6106f9600184611606565b9250505b806107078161162f565b9150506106b2565b5060008167ffffffffffffffff81111561072b5761072b6113db565b604051908082528060200260200182016040528015610754578160200160208202803683370190505b5090506000805b84811015610594576000610770826001611606565b6000818152600960205260409020549091506001600160a01b0316331461079757506107c4565b808484815181106107aa576107aa611619565b60209081029190910101526107c0600184611606565b9250505b806107ce8161162f565b91505061075b565b6000818152600260205260408120546001600160a01b0316806102e05760405162461bcd60e51b8152602060048201526018602482015277115490cdcc8c4e881a5b9d985b1a59081d1bdad95b88125160421b6044820152606401610413565b60006001600160a01b0382166108a05760405162461bcd60e51b815260206004820152602960248201527f4552433732313a2061646472657373207a65726f206973206e6f7420612076616044820152683634b21037bbb732b960b91b6064820152608401610413565b506001600160a01b031660009081526003602052604090205490565b6060600180546102f5906115b6565b6108d6338383610eef565b5050565b6108e43383610b20565b6109005760405162461bcd60e51b815260040161041390611648565b61090c84848484610fbd565b50505050565b606061091d82610a50565b60008281526006602052604081208054610936906115b6565b80601f0160208091040260200160405190810160405280929190818152602001828054610962906115b6565b80156109af5780601f10610984576101008083540402835291602001916109af565b820191906000526020600020905b81548152906001019060200180831161099257829003601f168201915b5050505050905060006109cd60408051602081019091526000815290565b905080516000036109df575092915050565b815115610a115780826040516020016109f99291906116c0565b60405160208183030381529060405292505050919050565b610a1a84610ff0565b949350505050565b6001600160a01b03918216600090815260056020908152604080832093909416825291909152205460ff1690565b6000818152600260205260409020546001600160a01b0316610aaf5760405162461bcd60e51b8152602060048201526018602482015277115490cdcc8c4e881a5b9d985b1a59081d1bdad95b88125160421b6044820152606401610413565b50565b600081815260046020526040902080546001600160a01b0319166001600160a01b0384169081179091558190610ae7826107d6565b6001600160a01b03167f8c5be1e5ebec7d5bd14f71427d1e84f3dd0314c0f7b2291e5b200ac8c7c3b92560405160405180910390a45050565b600080610b2c836107d6565b9050806001600160a01b0316846001600160a01b03161480610b535750610b538185610a22565b80610a1a5750836001600160a01b0316610b6c84610378565b6001600160a01b031614949350505050565b826001600160a01b0316610b91826107d6565b6001600160a01b031614610bf55760405162461bcd60e51b815260206004820152602560248201527f4552433732313a207472616e736665722066726f6d20696e636f72726563742060448201526437bbb732b960d91b6064820152608401610413565b6001600160a01b038216610c575760405162461bcd60e51b8152602060048201526024808201527f4552433732313a207472616e7366657220746f20746865207a65726f206164646044820152637265737360e01b6064820152608401610413565b610c62600082610ab2565b6001600160a01b0383166000908152600360205260408120805460019290610c8b9084906116ef565b90915550506001600160a01b0382166000908152600360205260408120805460019290610cb9908490611606565b909155505060008181526002602052604080822080546001600160a01b0319166001600160a01b0386811691821790925591518493918716917fddf252ad1be2c89b69c2b068fc378daa952ba7f163c4a11628f55a4df523b3ef91a4505050565b6001600160a01b038216610d705760405162461bcd60e51b815260206004820181905260248201527f4552433732313a206d696e7420746f20746865207a65726f20616464726573736044820152606401610413565b6000818152600260205260409020546001600160a01b031615610dd55760405162461bcd60e51b815260206004820152601c60248201527f4552433732313a20746f6b656e20616c7265616479206d696e746564000000006044820152606401610413565b6001600160a01b0382166000908152600360205260408120805460019290610dfe908490611606565b909155505060008181526002602052604080822080546001600160a01b0319166001600160a01b03861690811790915590518392907fddf252ad1be2c89b69c2b068fc378daa952ba7f163c4a11628f55a4df523b3ef908290a45050565b6000828152600260205260409020546001600160a01b0316610ed75760405162461bcd60e51b815260206004820152602e60248201527f45524337323155524953746f726167653a2055524920736574206f66206e6f6e60448201526d32bc34b9ba32b73a103a37b5b2b760911b6064820152608401610413565b60008281526006602052604090206104b48282611750565b816001600160a01b0316836001600160a01b031603610f505760405162461bcd60e51b815260206004820152601960248201527f4552433732313a20617070726f766520746f2063616c6c6572000000000000006044820152606401610413565b6001600160a01b03838116600081815260056020908152604080832094871680845294825291829020805460ff191686151590811790915591519182527f17307eab39ab6107e8899845ad3d59bd9653f200f220920489ca2b5937696c31910160405180910390a3505050565b610fc8848484610b7e565b610fd484848484611064565b61090c5760405162461bcd60e51b815260040161041390611810565b6060610ffb82610a50565b600061101260408051602081019091526000815290565b90506000815111611032576040518060200160405280600081525061105d565b8061103c84611165565b60405160200161104d9291906116c0565b6040516020818303038152906040525b9392505050565b60006001600160a01b0384163b1561115a57604051630a85bd0160e11b81526001600160a01b0385169063150b7a02906110a8903390899088908890600401611862565b6020604051808303816000875af19250505080156110e3575060408051601f3d908101601f191682019092526110e09181019061189f565b60015b611140573d808015611111576040519150601f19603f3d011682016040523d82523d6000602084013e611116565b606091505b5080516000036111385760405162461bcd60e51b815260040161041390611810565b805181602001fd5b6001600160e01b031916630a85bd0160e11b149050610a1a565b506001949350505050565b60608160000361118c5750506040805180820190915260018152600360fc1b602082015290565b8160005b81156111b657806111a08161162f565b91506111af9050600a836118d2565b9150611190565b60008167ffffffffffffffff8111156111d1576111d16113db565b6040519080825280601f01601f1916602001820160405280156111fb576020820181803683370190505b5090505b8415610a1a576112106001836116ef565b915061121d600a866118e6565b611228906030611606565b60f81b81838151811061123d5761123d611619565b60200101906001600160f81b031916908160001a90535061125f600a866118d2565b94506111ff565b6001600160e01b031981168114610aaf57600080fd5b60006020828403121561128e57600080fd5b813561105d81611266565b60005b838110156112b457818101518382015260200161129c565b50506000910152565b600081518084526112d5816020860160208601611299565b601f01601f19169290920160200192915050565b60208152600061105d60208301846112bd565b60006020828403121561130e57600080fd5b5035919050565b80356001600160a01b038116811461132c57600080fd5b919050565b6000806040838503121561134457600080fd5b61134d83611315565b946020939093013593505050565b6020808252825182820181905260009190848201906040850190845b8181101561139357835183529284019291840191600101611377565b50909695505050505050565b6000806000606084860312156113b457600080fd5b6113bd84611315565b92506113cb60208501611315565b9150604084013590509250925092565b634e487b7160e01b600052604160045260246000fd5b600067ffffffffffffffff8084111561140c5761140c6113db565b604051601f8501601f19908116603f01168101908282118183101715611434576114346113db565b8160405280935085815286868601111561144d57600080fd5b858560208301376000602087830101525050509392505050565b60006020828403121561147957600080fd5b813567ffffffffffffffff81111561149057600080fd5b8201601f810184136114a157600080fd5b610a1a848235602084016113f1565b6000602082840312156114c257600080fd5b61105d82611315565b600080604083850312156114de57600080fd5b6114e783611315565b9150602083013580151581146114fc57600080fd5b809150509250929050565b6000806000806080858703121561151d57600080fd5b61152685611315565b935061153460208601611315565b925060408501359150606085013567ffffffffffffffff81111561155757600080fd5b8501601f8101871361156857600080fd5b611577878235602084016113f1565b91505092959194509250565b6000806040838503121561159657600080fd5b61159f83611315565b91506115ad60208401611315565b90509250929050565b600181811c908216806115ca57607f821691505b6020821081036115ea57634e487b7160e01b600052602260045260246000fd5b50919050565b634e487b7160e01b600052601160045260246000fd5b808201808211156102e0576102e06115f0565b634e487b7160e01b600052603260045260246000fd5b600060018201611641576116416115f0565b5060010190565b6020808252602e908201527f4552433732313a2063616c6c6572206973206e6f7420746f6b656e206f776e6560408201526d1c881b9bdc88185c1c1c9bdd995960921b606082015260800190565b6040815260006116a960408301856112bd565b905060018060a01b03831660208301529392505050565b600083516116d2818460208801611299565b8351908301906116e6818360208801611299565b01949350505050565b818103818111156102e0576102e06115f0565b601f8211156104b457600081815260208120601f850160051c810160208610156117295750805b601f850160051c820191505b8181101561174857828155600101611735565b505050505050565b815167ffffffffffffffff81111561176a5761176a6113db565b61177e8161177884546115b6565b84611702565b602080601f8311600181146117b3576000841561179b5750858301515b600019600386901b1c1916600185901b178555611748565b600085815260208120601f198616915b828110156117e2578886015182559484019460019091019084016117c3565b50858210156118005787850151600019600388901b60f8161c191681555b5050505050600190811b01905550565b60208082526032908201527f4552433732313a207472616e7366657220746f206e6f6e20455243373231526560408201527131b2b4bb32b91034b6b83632b6b2b73a32b960711b606082015260800190565b6001600160a01b0385811682528416602082015260408101839052608060608201819052600090611895908301846112bd565b9695505050505050565b6000602082840312156118b157600080fd5b815161105d81611266565b634e487b7160e01b600052601260045260246000fd5b6000826118e1576118e16118bc565b500490565b6000826118f5576118f56118bc565b50069056fea2646970667358221220642ece7f383f78aeab5ea4f98ff9ea50e74be933066fd01abce6f4115f6146e864736f6c63430008110033",
    "sourcePath": "d:/repos/lpad/repos/dapp/contracts/src/contracts/Nft.Market/LpadNFT.sol",
    "compiler": {
        "name": "solc",
        "version": "0.8.19+commit.8df45f5f"
    },
    "functionHashes": {
        "approve(address,uint256)": "095ea7b3",
        "balanceOf(address)": "70a08231",
        "getApproved(uint256)": "081812fc",
        "getTokenCreatorById(uint256)": "867d3397",
        "getTokensCreatedByMe()": "5ba37742",
        "getTokensOwnedByMe()": "0a989d9c",
        "isApprovedForAll(address,address)": "e985e9c5",
        "mintToken(string)": "33eba49a",
        "name()": "06fdde03",
        "ownerOf(uint256)": "6352211e",
        "safeTransferFrom(address,address,uint256)": "42842e0e",
        "safeTransferFrom(address,address,uint256,bytes)": "b88d4fde",
        "setApprovalForAll(address,bool)": "a22cb465",
        "supportsInterface(bytes4)": "01ffc9a7",
        "symbol()": "95d89b41",
        "tokenURI(uint256)": "c87b56dd",
        "transferFrom(address,address,uint256)": "23b872dd"
    },
    "gasEstimates": {
        "creation": {
            "codeDepositCost": "1289600",
            "executionCost": "infinite",
            "totalCost": "infinite"
        },
        "external": {
            "approve(address,uint256)": "infinite",
            "balanceOf(address)": "2656",
            "getApproved(uint256)": "4792",
            "getTokenCreatorById(uint256)": "2566",
            "getTokensCreatedByMe()": "infinite",
            "getTokensOwnedByMe()": "infinite",
            "isApprovedForAll(address,address)": "infinite",
            "mintToken(string)": "infinite",
            "name()": "infinite",
            "ownerOf(uint256)": "2583",
            "safeTransferFrom(address,address,uint256)": "infinite",
            "safeTransferFrom(address,address,uint256,bytes)": "infinite",
            "setApprovalForAll(address,bool)": "26727",
            "supportsInterface(bytes4)": "534",
            "symbol()": "infinite",
            "tokenURI(uint256)": "infinite",
            "transferFrom(address,address,uint256)": "infinite"
        }
    }
}