{
    "contractName": "LPadMarket",
    "abi": [
        {
            "anonymous": false,
            "inputs": [
                {
                    "indexed": true,
                    "internalType": "address",
                    "name": "account",
                    "type": "address"
                },
                {
                    "indexed": true,
                    "internalType": "address",
                    "name": "operator",
                    "type": "address"
                },
                {
                    "indexed": false,
                    "internalType": "bool",
                    "name": "approved",
                    "type": "bool"
                }
            ],
            "name": "ApprovalForAll",
            "type": "event"
        },
        {
            "anonymous": false,
            "inputs": [
                {
                    "indexed": false,
                    "internalType": "address",
                    "name": "sender",
                    "type": "address"
                },
                {
                    "indexed": false,
                    "internalType": "uint256",
                    "name": "categoryId",
                    "type": "uint256"
                },
                {
                    "indexed": false,
                    "internalType": "string",
                    "name": "name",
                    "type": "string"
                }
            ],
            "name": "CreateCategory",
            "type": "event"
        },
        {
            "anonymous": false,
            "inputs": [
                {
                    "indexed": false,
                    "internalType": "address",
                    "name": "sender",
                    "type": "address"
                },
                {
                    "components": [
                        {
                            "internalType": "uint256",
                            "name": "tokenId",
                            "type": "uint256"
                        },
                        {
                            "internalType": "uint256",
                            "name": "catIdTokId",
                            "type": "uint256"
                        },
                        {
                            "internalType": "uint256",
                            "name": "catId",
                            "type": "uint256"
                        },
                        {
                            "internalType": "uint256",
                            "name": "decimals",
                            "type": "uint256"
                        },
                        {
                            "internalType": "uint256",
                            "name": "cost",
                            "type": "uint256"
                        },
                        {
                            "internalType": "address",
                            "name": "author",
                            "type": "address"
                        },
                        {
                            "internalType": "string",
                            "name": "name",
                            "type": "string"
                        },
                        {
                            "internalType": "string",
                            "name": "desc",
                            "type": "string"
                        },
                        {
                            "internalType": "string",
                            "name": "ipfs",
                            "type": "string"
                        },
                        {
                            "internalType": "uint256",
                            "name": "supply",
                            "type": "uint256"
                        },
                        {
                            "internalType": "uint256",
                            "name": "createdAt",
                            "type": "uint256"
                        },
                        {
                            "internalType": "uint256",
                            "name": "startsAt",
                            "type": "uint256"
                        },
                        {
                            "internalType": "uint256",
                            "name": "endsAt",
                            "type": "uint256"
                        },
                        {
                            "internalType": "uint256",
                            "name": "itemsSold",
                            "type": "uint256"
                        },
                        {
                            "internalType": "bool",
                            "name": "paused",
                            "type": "bool"
                        },
                        {
                            "internalType": "bool",
                            "name": "sold",
                            "type": "bool"
                        },
                        {
                            "internalType": "bool",
                            "name": "purchasable",
                            "type": "bool"
                        },
                        {
                            "internalType": "bool",
                            "name": "airdrop",
                            "type": "bool"
                        }
                    ],
                    "indexed": false,
                    "internalType": "struct LPadMarket.Struct",
                    "name": "str",
                    "type": "tuple"
                }
            ],
            "name": "CreateNftItem",
            "type": "event"
        },
        {
            "anonymous": false,
            "inputs": [
                {
                    "indexed": false,
                    "internalType": "address",
                    "name": "purchaser",
                    "type": "address"
                },
                {
                    "indexed": false,
                    "internalType": "uint256",
                    "name": "tokenId",
                    "type": "uint256"
                },
                {
                    "indexed": false,
                    "internalType": "uint256",
                    "name": "catId",
                    "type": "uint256"
                },
                {
                    "indexed": false,
                    "internalType": "uint256",
                    "name": "catTokenid",
                    "type": "uint256"
                },
                {
                    "indexed": false,
                    "internalType": "uint256",
                    "name": "amount",
                    "type": "uint256"
                }
            ],
            "name": "EventPurchasedToken",
            "type": "event"
        },
        {
            "anonymous": false,
            "inputs": [
                {
                    "indexed": false,
                    "internalType": "uint8",
                    "name": "version",
                    "type": "uint8"
                }
            ],
            "name": "Initialized",
            "type": "event"
        },
        {
            "anonymous": false,
            "inputs": [
                {
                    "indexed": false,
                    "internalType": "address",
                    "name": "to",
                    "type": "address"
                },
                {
                    "indexed": false,
                    "internalType": "uint256",
                    "name": "id",
                    "type": "uint256"
                },
                {
                    "indexed": false,
                    "internalType": "uint256",
                    "name": "amount",
                    "type": "uint256"
                }
            ],
            "name": "MintBurnEmit",
            "type": "event"
        },
        {
            "anonymous": false,
            "inputs": [
                {
                    "indexed": false,
                    "internalType": "address",
                    "name": "to",
                    "type": "address"
                },
                {
                    "indexed": false,
                    "internalType": "uint256",
                    "name": "id",
                    "type": "uint256"
                },
                {
                    "indexed": false,
                    "internalType": "uint256",
                    "name": "amount",
                    "type": "uint256"
                }
            ],
            "name": "MintEmit",
            "type": "event"
        },
        {
            "anonymous": false,
            "inputs": [
                {
                    "indexed": true,
                    "internalType": "address",
                    "name": "previousOwner",
                    "type": "address"
                },
                {
                    "indexed": true,
                    "internalType": "address",
                    "name": "newOwner",
                    "type": "address"
                }
            ],
            "name": "OwnershipTransferred",
            "type": "event"
        },
        {
            "anonymous": false,
            "inputs": [
                {
                    "indexed": false,
                    "internalType": "address",
                    "name": "account",
                    "type": "address"
                }
            ],
            "name": "Paused",
            "type": "event"
        },
        {
            "anonymous": false,
            "inputs": [
                {
                    "indexed": true,
                    "internalType": "bytes32",
                    "name": "role",
                    "type": "bytes32"
                },
                {
                    "indexed": true,
                    "internalType": "bytes32",
                    "name": "previousAdminRole",
                    "type": "bytes32"
                },
                {
                    "indexed": true,
                    "internalType": "bytes32",
                    "name": "newAdminRole",
                    "type": "bytes32"
                }
            ],
            "name": "RoleAdminChanged",
            "type": "event"
        },
        {
            "anonymous": false,
            "inputs": [
                {
                    "indexed": true,
                    "internalType": "bytes32",
                    "name": "role",
                    "type": "bytes32"
                },
                {
                    "indexed": true,
                    "internalType": "address",
                    "name": "account",
                    "type": "address"
                },
                {
                    "indexed": true,
                    "internalType": "address",
                    "name": "sender",
                    "type": "address"
                }
            ],
            "name": "RoleGranted",
            "type": "event"
        },
        {
            "anonymous": false,
            "inputs": [
                {
                    "indexed": true,
                    "internalType": "bytes32",
                    "name": "role",
                    "type": "bytes32"
                },
                {
                    "indexed": true,
                    "internalType": "address",
                    "name": "account",
                    "type": "address"
                },
                {
                    "indexed": true,
                    "internalType": "address",
                    "name": "sender",
                    "type": "address"
                }
            ],
            "name": "RoleRevoked",
            "type": "event"
        },
        {
            "anonymous": false,
            "inputs": [
                {
                    "indexed": true,
                    "internalType": "address",
                    "name": "operator",
                    "type": "address"
                },
                {
                    "indexed": true,
                    "internalType": "address",
                    "name": "from",
                    "type": "address"
                },
                {
                    "indexed": true,
                    "internalType": "address",
                    "name": "to",
                    "type": "address"
                },
                {
                    "indexed": false,
                    "internalType": "uint256[]",
                    "name": "ids",
                    "type": "uint256[]"
                },
                {
                    "indexed": false,
                    "internalType": "uint256[]",
                    "name": "values",
                    "type": "uint256[]"
                }
            ],
            "name": "TransferBatch",
            "type": "event"
        },
        {
            "anonymous": false,
            "inputs": [
                {
                    "indexed": true,
                    "internalType": "address",
                    "name": "operator",
                    "type": "address"
                },
                {
                    "indexed": true,
                    "internalType": "address",
                    "name": "from",
                    "type": "address"
                },
                {
                    "indexed": true,
                    "internalType": "address",
                    "name": "to",
                    "type": "address"
                },
                {
                    "indexed": false,
                    "internalType": "uint256",
                    "name": "id",
                    "type": "uint256"
                },
                {
                    "indexed": false,
                    "internalType": "uint256",
                    "name": "value",
                    "type": "uint256"
                }
            ],
            "name": "TransferSingle",
            "type": "event"
        },
        {
            "anonymous": false,
            "inputs": [
                {
                    "indexed": false,
                    "internalType": "string",
                    "name": "value",
                    "type": "string"
                },
                {
                    "indexed": true,
                    "internalType": "uint256",
                    "name": "id",
                    "type": "uint256"
                }
            ],
            "name": "URI",
            "type": "event"
        },
        {
            "anonymous": false,
            "inputs": [
                {
                    "indexed": false,
                    "internalType": "address",
                    "name": "account",
                    "type": "address"
                }
            ],
            "name": "Unpaused",
            "type": "event"
        },
        {
            "inputs": [],
            "name": "ADMIN_ROLE",
            "outputs": [
                {
                    "internalType": "bytes32",
                    "name": "",
                    "type": "bytes32"
                }
            ],
            "stateMutability": "view",
            "type": "function"
        },
        {
            "inputs": [],
            "name": "DEFAULT_ADMIN_ROLE",
            "outputs": [
                {
                    "internalType": "bytes32",
                    "name": "",
                    "type": "bytes32"
                }
            ],
            "stateMutability": "view",
            "type": "function"
        },
        {
            "inputs": [
                {
                    "internalType": "address",
                    "name": "newAddress",
                    "type": "address"
                }
            ],
            "name": "addAddressAdmin",
            "outputs": [],
            "stateMutability": "nonpayable",
            "type": "function"
        },
        {
            "inputs": [
                {
                    "internalType": "address",
                    "name": "account",
                    "type": "address"
                },
                {
                    "internalType": "uint256",
                    "name": "id",
                    "type": "uint256"
                }
            ],
            "name": "balanceOf",
            "outputs": [
                {
                    "internalType": "uint256",
                    "name": "",
                    "type": "uint256"
                }
            ],
            "stateMutability": "view",
            "type": "function"
        },
        {
            "inputs": [
                {
                    "internalType": "address[]",
                    "name": "accounts",
                    "type": "address[]"
                },
                {
                    "internalType": "uint256[]",
                    "name": "ids",
                    "type": "uint256[]"
                }
            ],
            "name": "balanceOfBatch",
            "outputs": [
                {
                    "internalType": "uint256[]",
                    "name": "",
                    "type": "uint256[]"
                }
            ],
            "stateMutability": "view",
            "type": "function"
        },
        {
            "inputs": [
                {
                    "internalType": "address",
                    "name": "account",
                    "type": "address"
                },
                {
                    "internalType": "uint256",
                    "name": "id",
                    "type": "uint256"
                },
                {
                    "internalType": "uint256",
                    "name": "value",
                    "type": "uint256"
                }
            ],
            "name": "burn",
            "outputs": [],
            "stateMutability": "nonpayable",
            "type": "function"
        },
        {
            "inputs": [
                {
                    "internalType": "address",
                    "name": "account",
                    "type": "address"
                },
                {
                    "internalType": "uint256[]",
                    "name": "ids",
                    "type": "uint256[]"
                },
                {
                    "internalType": "uint256[]",
                    "name": "values",
                    "type": "uint256[]"
                }
            ],
            "name": "burnBatch",
            "outputs": [],
            "stateMutability": "nonpayable",
            "type": "function"
        },
        {
            "inputs": [],
            "name": "categoryId",
            "outputs": [
                {
                    "internalType": "uint256",
                    "name": "",
                    "type": "uint256"
                }
            ],
            "stateMutability": "view",
            "type": "function"
        },
        {
            "inputs": [
                {
                    "internalType": "uint256",
                    "name": "",
                    "type": "uint256"
                }
            ],
            "name": "categoryStructs",
            "outputs": [
                {
                    "internalType": "uint256",
                    "name": "categoryId",
                    "type": "uint256"
                },
                {
                    "internalType": "string",
                    "name": "name",
                    "type": "string"
                },
                {
                    "internalType": "bool",
                    "name": "visible",
                    "type": "bool"
                },
                {
                    "internalType": "string",
                    "name": "desc",
                    "type": "string"
                },
                {
                    "internalType": "uint256",
                    "name": "createdAt",
                    "type": "uint256"
                }
            ],
            "stateMutability": "view",
            "type": "function"
        },
        {
            "inputs": [
                {
                    "internalType": "address",
                    "name": "newAddress",
                    "type": "address"
                }
            ],
            "name": "changeWalletStore",
            "outputs": [],
            "stateMutability": "nonpayable",
            "type": "function"
        },
        {
            "inputs": [
                {
                    "internalType": "string",
                    "name": "_name",
                    "type": "string"
                },
                {
                    "internalType": "string",
                    "name": "_desc",
                    "type": "string"
                }
            ],
            "name": "createCategory",
            "outputs": [
                {
                    "components": [
                        {
                            "internalType": "uint256",
                            "name": "categoryId",
                            "type": "uint256"
                        },
                        {
                            "internalType": "string",
                            "name": "name",
                            "type": "string"
                        },
                        {
                            "internalType": "bool",
                            "name": "visible",
                            "type": "bool"
                        },
                        {
                            "internalType": "string",
                            "name": "desc",
                            "type": "string"
                        },
                        {
                            "internalType": "uint256",
                            "name": "createdAt",
                            "type": "uint256"
                        }
                    ],
                    "internalType": "struct LPadMarket.CategoryStruct",
                    "name": "",
                    "type": "tuple"
                }
            ],
            "stateMutability": "nonpayable",
            "type": "function"
        },
        {
            "inputs": [],
            "name": "distributeFunds",
            "outputs": [],
            "stateMutability": "nonpayable",
            "type": "function"
        },
        {
            "inputs": [
                {
                    "internalType": "uint256",
                    "name": "id",
                    "type": "uint256"
                }
            ],
            "name": "exists",
            "outputs": [
                {
                    "internalType": "bool",
                    "name": "",
                    "type": "bool"
                }
            ],
            "stateMutability": "view",
            "type": "function"
        },
        {
            "inputs": [
                {
                    "internalType": "bytes32",
                    "name": "role",
                    "type": "bytes32"
                }
            ],
            "name": "getRoleAdmin",
            "outputs": [
                {
                    "internalType": "bytes32",
                    "name": "",
                    "type": "bytes32"
                }
            ],
            "stateMutability": "view",
            "type": "function"
        },
        {
            "inputs": [
                {
                    "internalType": "uint256",
                    "name": "_category",
                    "type": "uint256"
                },
                {
                    "internalType": "uint256",
                    "name": "catIdTokId",
                    "type": "uint256"
                }
            ],
            "name": "getTokenId",
            "outputs": [
                {
                    "internalType": "uint256",
                    "name": "",
                    "type": "uint256"
                }
            ],
            "stateMutability": "view",
            "type": "function"
        },
        {
            "inputs": [
                {
                    "internalType": "bytes32",
                    "name": "role",
                    "type": "bytes32"
                },
                {
                    "internalType": "address",
                    "name": "account",
                    "type": "address"
                }
            ],
            "name": "grantRole",
            "outputs": [],
            "stateMutability": "nonpayable",
            "type": "function"
        },
        {
            "inputs": [
                {
                    "internalType": "bytes32",
                    "name": "role",
                    "type": "bytes32"
                },
                {
                    "internalType": "address",
                    "name": "account",
                    "type": "address"
                }
            ],
            "name": "hasRole",
            "outputs": [
                {
                    "internalType": "bool",
                    "name": "",
                    "type": "bool"
                }
            ],
            "stateMutability": "view",
            "type": "function"
        },
        {
            "inputs": [],
            "name": "initialize",
            "outputs": [],
            "stateMutability": "nonpayable",
            "type": "function"
        },
        {
            "inputs": [
                {
                    "internalType": "address",
                    "name": "account",
                    "type": "address"
                },
                {
                    "internalType": "address",
                    "name": "operator",
                    "type": "address"
                }
            ],
            "name": "isApprovedForAll",
            "outputs": [
                {
                    "internalType": "bool",
                    "name": "",
                    "type": "bool"
                }
            ],
            "stateMutability": "view",
            "type": "function"
        },
        {
            "inputs": [
                {
                    "internalType": "uint256",
                    "name": "catId",
                    "type": "uint256"
                },
                {
                    "internalType": "uint256",
                    "name": "catIdTokId",
                    "type": "uint256"
                },
                {
                    "internalType": "uint256",
                    "name": "amount",
                    "type": "uint256"
                }
            ],
            "name": "mint",
            "outputs": [],
            "stateMutability": "payable",
            "type": "function"
        },
        {
            "inputs": [
                {
                    "internalType": "uint256",
                    "name": "catId",
                    "type": "uint256"
                },
                {
                    "internalType": "uint256",
                    "name": "catIdTokId",
                    "type": "uint256"
                },
                {
                    "internalType": "uint256",
                    "name": "amount",
                    "type": "uint256"
                },
                {
                    "internalType": "address",
                    "name": "airdropAddress",
                    "type": "address"
                }
            ],
            "name": "mintAirdrop",
            "outputs": [],
            "stateMutability": "payable",
            "type": "function"
        },
        {
            "inputs": [
                {
                    "internalType": "uint256",
                    "name": "catId",
                    "type": "uint256"
                },
                {
                    "internalType": "uint256",
                    "name": "catIdTokId",
                    "type": "uint256"
                },
                {
                    "internalType": "uint256",
                    "name": "amount",
                    "type": "uint256"
                },
                {
                    "internalType": "address",
                    "name": "airdropAddress",
                    "type": "address"
                }
            ],
            "name": "mintBurnTokens",
            "outputs": [],
            "stateMutability": "payable",
            "type": "function"
        },
        {
            "inputs": [
                {
                    "internalType": "uint256",
                    "name": "catId",
                    "type": "uint256"
                },
                {
                    "internalType": "uint256",
                    "name": "catIdTokId",
                    "type": "uint256"
                },
                {
                    "internalType": "uint256",
                    "name": "amount",
                    "type": "uint256"
                },
                {
                    "internalType": "address",
                    "name": "airdropAddress",
                    "type": "address"
                }
            ],
            "name": "mintEmergencyAirdrop",
            "outputs": [],
            "stateMutability": "payable",
            "type": "function"
        },
        {
            "inputs": [],
            "name": "name",
            "outputs": [
                {
                    "internalType": "string",
                    "name": "",
                    "type": "string"
                }
            ],
            "stateMutability": "view",
            "type": "function"
        },
        {
            "inputs": [
                {
                    "internalType": "uint256",
                    "name": "_category",
                    "type": "uint256"
                },
                {
                    "internalType": "uint256",
                    "name": "catIdTokId",
                    "type": "uint256"
                },
                {
                    "internalType": "uint256",
                    "name": "cost",
                    "type": "uint256"
                }
            ],
            "name": "nftChangePrice",
            "outputs": [],
            "stateMutability": "nonpayable",
            "type": "function"
        },
        {
            "inputs": [
                {
                    "internalType": "uint256",
                    "name": "_category",
                    "type": "uint256"
                },
                {
                    "internalType": "uint256",
                    "name": "catIdTokId",
                    "type": "uint256"
                },
                {
                    "internalType": "uint256",
                    "name": "supply",
                    "type": "uint256"
                }
            ],
            "name": "nftChangeSupply",
            "outputs": [],
            "stateMutability": "nonpayable",
            "type": "function"
        },
        {
            "inputs": [
                {
                    "internalType": "uint256",
                    "name": "_category",
                    "type": "uint256"
                },
                {
                    "internalType": "address",
                    "name": "_author",
                    "type": "address"
                },
                {
                    "internalType": "string",
                    "name": "_name",
                    "type": "string"
                },
                {
                    "internalType": "string",
                    "name": "_desc",
                    "type": "string"
                },
                {
                    "internalType": "bool",
                    "name": "isPurchasable",
                    "type": "bool"
                },
                {
                    "internalType": "bool",
                    "name": "isAirdrop",
                    "type": "bool"
                }
            ],
            "name": "nftCreateItem",
            "outputs": [
                {
                    "components": [
                        {
                            "internalType": "uint256",
                            "name": "tokenId",
                            "type": "uint256"
                        },
                        {
                            "internalType": "uint256",
                            "name": "catIdTokId",
                            "type": "uint256"
                        },
                        {
                            "internalType": "uint256",
                            "name": "catId",
                            "type": "uint256"
                        },
                        {
                            "internalType": "uint256",
                            "name": "decimals",
                            "type": "uint256"
                        },
                        {
                            "internalType": "uint256",
                            "name": "cost",
                            "type": "uint256"
                        },
                        {
                            "internalType": "address",
                            "name": "author",
                            "type": "address"
                        },
                        {
                            "internalType": "string",
                            "name": "name",
                            "type": "string"
                        },
                        {
                            "internalType": "string",
                            "name": "desc",
                            "type": "string"
                        },
                        {
                            "internalType": "string",
                            "name": "ipfs",
                            "type": "string"
                        },
                        {
                            "internalType": "uint256",
                            "name": "supply",
                            "type": "uint256"
                        },
                        {
                            "internalType": "uint256",
                            "name": "createdAt",
                            "type": "uint256"
                        },
                        {
                            "internalType": "uint256",
                            "name": "startsAt",
                            "type": "uint256"
                        },
                        {
                            "internalType": "uint256",
                            "name": "endsAt",
                            "type": "uint256"
                        },
                        {
                            "internalType": "uint256",
                            "name": "itemsSold",
                            "type": "uint256"
                        },
                        {
                            "internalType": "bool",
                            "name": "paused",
                            "type": "bool"
                        },
                        {
                            "internalType": "bool",
                            "name": "sold",
                            "type": "bool"
                        },
                        {
                            "internalType": "bool",
                            "name": "purchasable",
                            "type": "bool"
                        },
                        {
                            "internalType": "bool",
                            "name": "airdrop",
                            "type": "bool"
                        }
                    ],
                    "internalType": "struct LPadMarket.Struct",
                    "name": "",
                    "type": "tuple"
                }
            ],
            "stateMutability": "nonpayable",
            "type": "function"
        },
        {
            "inputs": [
                {
                    "internalType": "uint256",
                    "name": "_category",
                    "type": "uint256"
                },
                {
                    "internalType": "uint256",
                    "name": "catIdTokId",
                    "type": "uint256"
                }
            ],
            "name": "nftGetPrice",
            "outputs": [
                {
                    "internalType": "uint256",
                    "name": "",
                    "type": "uint256"
                }
            ],
            "stateMutability": "view",
            "type": "function"
        },
        {
            "inputs": [
                {
                    "internalType": "uint256",
                    "name": "_category",
                    "type": "uint256"
                },
                {
                    "internalType": "uint256",
                    "name": "catIdTokId",
                    "type": "uint256"
                },
                {
                    "internalType": "uint256",
                    "name": "_cost",
                    "type": "uint256"
                },
                {
                    "internalType": "uint256",
                    "name": "_supply",
                    "type": "uint256"
                },
                {
                    "internalType": "uint256",
                    "name": "_decimal",
                    "type": "uint256"
                },
                {
                    "internalType": "uint256",
                    "name": "startAt",
                    "type": "uint256"
                },
                {
                    "internalType": "uint256",
                    "name": "endAt",
                    "type": "uint256"
                },
                {
                    "internalType": "string",
                    "name": "ipfsUri",
                    "type": "string"
                }
            ],
            "name": "nftInitSale",
            "outputs": [
                {
                    "components": [
                        {
                            "internalType": "uint256",
                            "name": "tokenId",
                            "type": "uint256"
                        },
                        {
                            "internalType": "uint256",
                            "name": "catIdTokId",
                            "type": "uint256"
                        },
                        {
                            "internalType": "uint256",
                            "name": "catId",
                            "type": "uint256"
                        },
                        {
                            "internalType": "uint256",
                            "name": "decimals",
                            "type": "uint256"
                        },
                        {
                            "internalType": "uint256",
                            "name": "cost",
                            "type": "uint256"
                        },
                        {
                            "internalType": "address",
                            "name": "author",
                            "type": "address"
                        },
                        {
                            "internalType": "string",
                            "name": "name",
                            "type": "string"
                        },
                        {
                            "internalType": "string",
                            "name": "desc",
                            "type": "string"
                        },
                        {
                            "internalType": "string",
                            "name": "ipfs",
                            "type": "string"
                        },
                        {
                            "internalType": "uint256",
                            "name": "supply",
                            "type": "uint256"
                        },
                        {
                            "internalType": "uint256",
                            "name": "createdAt",
                            "type": "uint256"
                        },
                        {
                            "internalType": "uint256",
                            "name": "startsAt",
                            "type": "uint256"
                        },
                        {
                            "internalType": "uint256",
                            "name": "endsAt",
                            "type": "uint256"
                        },
                        {
                            "internalType": "uint256",
                            "name": "itemsSold",
                            "type": "uint256"
                        },
                        {
                            "internalType": "bool",
                            "name": "paused",
                            "type": "bool"
                        },
                        {
                            "internalType": "bool",
                            "name": "sold",
                            "type": "bool"
                        },
                        {
                            "internalType": "bool",
                            "name": "purchasable",
                            "type": "bool"
                        },
                        {
                            "internalType": "bool",
                            "name": "airdrop",
                            "type": "bool"
                        }
                    ],
                    "internalType": "struct LPadMarket.Struct",
                    "name": "",
                    "type": "tuple"
                }
            ],
            "stateMutability": "nonpayable",
            "type": "function"
        },
        {
            "inputs": [
                {
                    "internalType": "uint256",
                    "name": "_category",
                    "type": "uint256"
                },
                {
                    "internalType": "uint256",
                    "name": "catIdTokId",
                    "type": "uint256"
                },
                {
                    "internalType": "string",
                    "name": "_ipfs",
                    "type": "string"
                }
            ],
            "name": "nftIpfsUriUpdate",
            "outputs": [
                {
                    "components": [
                        {
                            "internalType": "uint256",
                            "name": "tokenId",
                            "type": "uint256"
                        },
                        {
                            "internalType": "uint256",
                            "name": "catIdTokId",
                            "type": "uint256"
                        },
                        {
                            "internalType": "uint256",
                            "name": "catId",
                            "type": "uint256"
                        },
                        {
                            "internalType": "uint256",
                            "name": "decimals",
                            "type": "uint256"
                        },
                        {
                            "internalType": "uint256",
                            "name": "cost",
                            "type": "uint256"
                        },
                        {
                            "internalType": "address",
                            "name": "author",
                            "type": "address"
                        },
                        {
                            "internalType": "string",
                            "name": "name",
                            "type": "string"
                        },
                        {
                            "internalType": "string",
                            "name": "desc",
                            "type": "string"
                        },
                        {
                            "internalType": "string",
                            "name": "ipfs",
                            "type": "string"
                        },
                        {
                            "internalType": "uint256",
                            "name": "supply",
                            "type": "uint256"
                        },
                        {
                            "internalType": "uint256",
                            "name": "createdAt",
                            "type": "uint256"
                        },
                        {
                            "internalType": "uint256",
                            "name": "startsAt",
                            "type": "uint256"
                        },
                        {
                            "internalType": "uint256",
                            "name": "endsAt",
                            "type": "uint256"
                        },
                        {
                            "internalType": "uint256",
                            "name": "itemsSold",
                            "type": "uint256"
                        },
                        {
                            "internalType": "bool",
                            "name": "paused",
                            "type": "bool"
                        },
                        {
                            "internalType": "bool",
                            "name": "sold",
                            "type": "bool"
                        },
                        {
                            "internalType": "bool",
                            "name": "purchasable",
                            "type": "bool"
                        },
                        {
                            "internalType": "bool",
                            "name": "airdrop",
                            "type": "bool"
                        }
                    ],
                    "internalType": "struct LPadMarket.Struct",
                    "name": "",
                    "type": "tuple"
                }
            ],
            "stateMutability": "nonpayable",
            "type": "function"
        },
        {
            "inputs": [
                {
                    "internalType": "uint256",
                    "name": "_category",
                    "type": "uint256"
                },
                {
                    "internalType": "uint256",
                    "name": "catIdTokId",
                    "type": "uint256"
                }
            ],
            "name": "nftItemsSold",
            "outputs": [
                {
                    "internalType": "uint256",
                    "name": "",
                    "type": "uint256"
                }
            ],
            "stateMutability": "view",
            "type": "function"
        },
        {
            "inputs": [
                {
                    "internalType": "uint256",
                    "name": "_category",
                    "type": "uint256"
                },
                {
                    "internalType": "uint256",
                    "name": "catIdTokId",
                    "type": "uint256"
                },
                {
                    "internalType": "bool",
                    "name": "setPaused",
                    "type": "bool"
                }
            ],
            "name": "nftPause",
            "outputs": [
                {
                    "components": [
                        {
                            "internalType": "uint256",
                            "name": "tokenId",
                            "type": "uint256"
                        },
                        {
                            "internalType": "uint256",
                            "name": "catIdTokId",
                            "type": "uint256"
                        },
                        {
                            "internalType": "uint256",
                            "name": "catId",
                            "type": "uint256"
                        },
                        {
                            "internalType": "uint256",
                            "name": "decimals",
                            "type": "uint256"
                        },
                        {
                            "internalType": "uint256",
                            "name": "cost",
                            "type": "uint256"
                        },
                        {
                            "internalType": "address",
                            "name": "author",
                            "type": "address"
                        },
                        {
                            "internalType": "string",
                            "name": "name",
                            "type": "string"
                        },
                        {
                            "internalType": "string",
                            "name": "desc",
                            "type": "string"
                        },
                        {
                            "internalType": "string",
                            "name": "ipfs",
                            "type": "string"
                        },
                        {
                            "internalType": "uint256",
                            "name": "supply",
                            "type": "uint256"
                        },
                        {
                            "internalType": "uint256",
                            "name": "createdAt",
                            "type": "uint256"
                        },
                        {
                            "internalType": "uint256",
                            "name": "startsAt",
                            "type": "uint256"
                        },
                        {
                            "internalType": "uint256",
                            "name": "endsAt",
                            "type": "uint256"
                        },
                        {
                            "internalType": "uint256",
                            "name": "itemsSold",
                            "type": "uint256"
                        },
                        {
                            "internalType": "bool",
                            "name": "paused",
                            "type": "bool"
                        },
                        {
                            "internalType": "bool",
                            "name": "sold",
                            "type": "bool"
                        },
                        {
                            "internalType": "bool",
                            "name": "purchasable",
                            "type": "bool"
                        },
                        {
                            "internalType": "bool",
                            "name": "airdrop",
                            "type": "bool"
                        }
                    ],
                    "internalType": "struct LPadMarket.Struct",
                    "name": "",
                    "type": "tuple"
                }
            ],
            "stateMutability": "nonpayable",
            "type": "function"
        },
        {
            "inputs": [
                {
                    "internalType": "uint256",
                    "name": "_category",
                    "type": "uint256"
                },
                {
                    "internalType": "uint256",
                    "name": "catIdTokId",
                    "type": "uint256"
                },
                {
                    "internalType": "bool",
                    "name": "isPurchasbale",
                    "type": "bool"
                },
                {
                    "internalType": "bool",
                    "name": "isAirdrop",
                    "type": "bool"
                }
            ],
            "name": "nftPurchasableAirdrop",
            "outputs": [],
            "stateMutability": "nonpayable",
            "type": "function"
        },
        {
            "inputs": [],
            "name": "owner",
            "outputs": [
                {
                    "internalType": "address",
                    "name": "",
                    "type": "address"
                }
            ],
            "stateMutability": "view",
            "type": "function"
        },
        {
            "inputs": [],
            "name": "pause",
            "outputs": [],
            "stateMutability": "nonpayable",
            "type": "function"
        },
        {
            "inputs": [],
            "name": "paused",
            "outputs": [
                {
                    "internalType": "bool",
                    "name": "",
                    "type": "bool"
                }
            ],
            "stateMutability": "view",
            "type": "function"
        },
        {
            "inputs": [
                {
                    "internalType": "address",
                    "name": "removeAddress",
                    "type": "address"
                }
            ],
            "name": "removeAdmin",
            "outputs": [],
            "stateMutability": "nonpayable",
            "type": "function"
        },
        {
            "inputs": [],
            "name": "renounceOwnership",
            "outputs": [],
            "stateMutability": "nonpayable",
            "type": "function"
        },
        {
            "inputs": [
                {
                    "internalType": "bytes32",
                    "name": "role",
                    "type": "bytes32"
                },
                {
                    "internalType": "address",
                    "name": "account",
                    "type": "address"
                }
            ],
            "name": "renounceRole",
            "outputs": [],
            "stateMutability": "nonpayable",
            "type": "function"
        },
        {
            "inputs": [
                {
                    "internalType": "bytes32",
                    "name": "role",
                    "type": "bytes32"
                },
                {
                    "internalType": "address",
                    "name": "account",
                    "type": "address"
                }
            ],
            "name": "revokeRole",
            "outputs": [],
            "stateMutability": "nonpayable",
            "type": "function"
        },
        {
            "inputs": [
                {
                    "internalType": "address",
                    "name": "from",
                    "type": "address"
                },
                {
                    "internalType": "address",
                    "name": "to",
                    "type": "address"
                },
                {
                    "internalType": "uint256[]",
                    "name": "ids",
                    "type": "uint256[]"
                },
                {
                    "internalType": "uint256[]",
                    "name": "amounts",
                    "type": "uint256[]"
                },
                {
                    "internalType": "bytes",
                    "name": "data",
                    "type": "bytes"
                }
            ],
            "name": "safeBatchTransferFrom",
            "outputs": [],
            "stateMutability": "nonpayable",
            "type": "function"
        },
        {
            "inputs": [
                {
                    "internalType": "address",
                    "name": "from",
                    "type": "address"
                },
                {
                    "internalType": "address",
                    "name": "to",
                    "type": "address"
                },
                {
                    "internalType": "uint256",
                    "name": "id",
                    "type": "uint256"
                },
                {
                    "internalType": "uint256",
                    "name": "amount",
                    "type": "uint256"
                },
                {
                    "internalType": "bytes",
                    "name": "data",
                    "type": "bytes"
                }
            ],
            "name": "safeTransferFrom",
            "outputs": [],
            "stateMutability": "nonpayable",
            "type": "function"
        },
        {
            "inputs": [
                {
                    "internalType": "address",
                    "name": "operator",
                    "type": "address"
                },
                {
                    "internalType": "bool",
                    "name": "approved",
                    "type": "bool"
                }
            ],
            "name": "setApprovalForAll",
            "outputs": [],
            "stateMutability": "nonpayable",
            "type": "function"
        },
        {
            "inputs": [
                {
                    "internalType": "uint256",
                    "name": "_catId",
                    "type": "uint256"
                }
            ],
            "name": "showCategoryCount",
            "outputs": [
                {
                    "components": [
                        {
                            "internalType": "uint256",
                            "name": "categoryId",
                            "type": "uint256"
                        },
                        {
                            "internalType": "string",
                            "name": "name",
                            "type": "string"
                        },
                        {
                            "internalType": "bool",
                            "name": "visible",
                            "type": "bool"
                        },
                        {
                            "internalType": "string",
                            "name": "desc",
                            "type": "string"
                        },
                        {
                            "internalType": "uint256",
                            "name": "createdAt",
                            "type": "uint256"
                        }
                    ],
                    "internalType": "struct LPadMarket.CategoryStruct",
                    "name": "",
                    "type": "tuple"
                }
            ],
            "stateMutability": "view",
            "type": "function"
        },
        {
            "inputs": [
                {
                    "internalType": "uint256",
                    "name": "category",
                    "type": "uint256"
                },
                {
                    "internalType": "uint256",
                    "name": "id",
                    "type": "uint256"
                }
            ],
            "name": "showItemInCategory",
            "outputs": [
                {
                    "components": [
                        {
                            "internalType": "uint256",
                            "name": "tokenId",
                            "type": "uint256"
                        },
                        {
                            "internalType": "uint256",
                            "name": "catIdTokId",
                            "type": "uint256"
                        },
                        {
                            "internalType": "uint256",
                            "name": "catId",
                            "type": "uint256"
                        },
                        {
                            "internalType": "uint256",
                            "name": "decimals",
                            "type": "uint256"
                        },
                        {
                            "internalType": "uint256",
                            "name": "cost",
                            "type": "uint256"
                        },
                        {
                            "internalType": "address",
                            "name": "author",
                            "type": "address"
                        },
                        {
                            "internalType": "string",
                            "name": "name",
                            "type": "string"
                        },
                        {
                            "internalType": "string",
                            "name": "desc",
                            "type": "string"
                        },
                        {
                            "internalType": "string",
                            "name": "ipfs",
                            "type": "string"
                        },
                        {
                            "internalType": "uint256",
                            "name": "supply",
                            "type": "uint256"
                        },
                        {
                            "internalType": "uint256",
                            "name": "createdAt",
                            "type": "uint256"
                        },
                        {
                            "internalType": "uint256",
                            "name": "startsAt",
                            "type": "uint256"
                        },
                        {
                            "internalType": "uint256",
                            "name": "endsAt",
                            "type": "uint256"
                        },
                        {
                            "internalType": "uint256",
                            "name": "itemsSold",
                            "type": "uint256"
                        },
                        {
                            "internalType": "bool",
                            "name": "paused",
                            "type": "bool"
                        },
                        {
                            "internalType": "bool",
                            "name": "sold",
                            "type": "bool"
                        },
                        {
                            "internalType": "bool",
                            "name": "purchasable",
                            "type": "bool"
                        },
                        {
                            "internalType": "bool",
                            "name": "airdrop",
                            "type": "bool"
                        }
                    ],
                    "internalType": "struct LPadMarket.Struct",
                    "name": "",
                    "type": "tuple"
                }
            ],
            "stateMutability": "view",
            "type": "function"
        },
        {
            "inputs": [],
            "name": "showWalletStoreAddress",
            "outputs": [
                {
                    "internalType": "address",
                    "name": "",
                    "type": "address"
                }
            ],
            "stateMutability": "view",
            "type": "function"
        },
        {
            "inputs": [
                {
                    "internalType": "uint256",
                    "name": "id",
                    "type": "uint256"
                }
            ],
            "name": "simpleLoopFor",
            "outputs": [
                {
                    "internalType": "uint256",
                    "name": "",
                    "type": "uint256"
                }
            ],
            "stateMutability": "view",
            "type": "function"
        },
        {
            "inputs": [],
            "name": "soldGetReport",
            "outputs": [
                {
                    "internalType": "uint256",
                    "name": "totalSold",
                    "type": "uint256"
                },
                {
                    "internalType": "uint256",
                    "name": "totalDispersed",
                    "type": "uint256"
                },
                {
                    "internalType": "uint256",
                    "name": "totalWaitingToDisperse",
                    "type": "uint256"
                }
            ],
            "stateMutability": "view",
            "type": "function"
        },
        {
            "inputs": [
                {
                    "internalType": "bytes4",
                    "name": "interfaceId",
                    "type": "bytes4"
                }
            ],
            "name": "supportsInterface",
            "outputs": [
                {
                    "internalType": "bool",
                    "name": "",
                    "type": "bool"
                }
            ],
            "stateMutability": "view",
            "type": "function"
        },
        {
            "inputs": [],
            "name": "symbol",
            "outputs": [
                {
                    "internalType": "string",
                    "name": "",
                    "type": "string"
                }
            ],
            "stateMutability": "view",
            "type": "function"
        },
        {
            "inputs": [],
            "name": "tokenId",
            "outputs": [
                {
                    "internalType": "uint256",
                    "name": "",
                    "type": "uint256"
                }
            ],
            "stateMutability": "view",
            "type": "function"
        },
        {
            "inputs": [
                {
                    "internalType": "uint256",
                    "name": "",
                    "type": "uint256"
                }
            ],
            "name": "totalStructs",
            "outputs": [
                {
                    "internalType": "uint256",
                    "name": "",
                    "type": "uint256"
                }
            ],
            "stateMutability": "view",
            "type": "function"
        },
        {
            "inputs": [
                {
                    "internalType": "uint256",
                    "name": "id",
                    "type": "uint256"
                }
            ],
            "name": "totalSupply",
            "outputs": [
                {
                    "internalType": "uint256",
                    "name": "",
                    "type": "uint256"
                }
            ],
            "stateMutability": "view",
            "type": "function"
        },
        {
            "inputs": [
                {
                    "internalType": "address",
                    "name": "newOwner",
                    "type": "address"
                }
            ],
            "name": "transferOwnership",
            "outputs": [],
            "stateMutability": "nonpayable",
            "type": "function"
        },
        {
            "inputs": [],
            "name": "txAuditCnt",
            "outputs": [
                {
                    "internalType": "uint256",
                    "name": "",
                    "type": "uint256"
                }
            ],
            "stateMutability": "view",
            "type": "function"
        },
        {
            "inputs": [
                {
                    "internalType": "uint256",
                    "name": "",
                    "type": "uint256"
                }
            ],
            "name": "txAuditDetails",
            "outputs": [
                {
                    "internalType": "enum LPadMarket.TxType",
                    "name": "txType",
                    "type": "uint8"
                },
                {
                    "internalType": "address",
                    "name": "from",
                    "type": "address"
                },
                {
                    "internalType": "address",
                    "name": "to",
                    "type": "address"
                },
                {
                    "internalType": "uint256",
                    "name": "tokenId",
                    "type": "uint256"
                },
                {
                    "internalType": "uint256",
                    "name": "amount",
                    "type": "uint256"
                }
            ],
            "stateMutability": "view",
            "type": "function"
        },
        {
            "inputs": [],
            "name": "unpause",
            "outputs": [],
            "stateMutability": "nonpayable",
            "type": "function"
        },
        {
            "inputs": [
                {
                    "internalType": "uint256",
                    "name": "_tokenId",
                    "type": "uint256"
                }
            ],
            "name": "uri",
            "outputs": [
                {
                    "internalType": "string",
                    "name": "",
                    "type": "string"
                }
            ],
            "stateMutability": "view",
            "type": "function"
        },
        {
            "inputs": [
                {
                    "internalType": "uint256",
                    "name": "catId",
                    "type": "uint256"
                },
                {
                    "internalType": "uint256",
                    "name": "catIdTokId",
                    "type": "uint256"
                }
            ],
            "name": "uriCatIdTokId",
            "outputs": [
                {
                    "internalType": "string",
                    "name": "",
                    "type": "string"
                }
            ],
            "stateMutability": "view",
            "type": "function"
        },
        {
            "stateMutability": "payable",
            "type": "receive"
        }
    ],
    "bytecode": "60806040526101f680546001600160a01b03191673bdf7604279a31e4779bd0b895a2304ad0ef3215717905534801561003757600080fd5b50615f7480620000486000396000f3fe60806040526004361061038f5760003560e01c8063715018a6116101dc578063b224b4e911610102578063e985e9c5116100a0578063f2fde38b1161006f578063f2fde38b14610b25578063f5298aca14610b45578063f89263da14610b65578063fcd3336e14610b7857600080fd5b8063e985e9c514610a6c578063e9d7b14f14610ab5578063f242432a14610ae5578063f2afb7e114610b0557600080fd5b8063bd85b039116100dc578063bd85b039146109de578063d0e3ad7314610a0c578063d547741f14610a2c578063e836ef1514610a4c57600080fd5b8063b224b4e914610976578063b503a2b914610996578063b7db408c146109ad57600080fd5b80638da5cb5b1161017a5780639d481aa8116101495780639d481aa8146109015780639d55e46114610921578063a217fddf14610941578063a22cb4651461095657600080fd5b80638da5cb5b1461087e57806391d148541461089c578063947aef26146108bc57806395d89b41146108cf57600080fd5b80637e628083116101b65780637e628083146108145780638129fc1c146108345780638456cb59146108495780638b08ac661461085e57600080fd5b8063715018a6146107dd57806375b238fc146107f25780637c16ec801461052c57600080fd5b80632eb2c2d6116102c15780633f4ba83a1161025f5780634f558e791161022e5780634f558e7914610755578063524355e2146107855780635c975abb146107a55780636b20c454146107bd57600080fd5b80633f4ba83a146106e057806343dcc862146106f557806347be9185146107155780634e1273f41461072857600080fd5b806330edc09d1161029b57806330edc09d1461066b5780633112de9a1461068b57806336568abe146106ab5780633a6a4d2e146106cb57600080fd5b80632eb2c2d61461060b5780632f17f2e81461062b5780632f2ff15d1461064b57600080fd5b806316d0a8251161032e5780631d6d13f8116103085780631d6d13f8146105635780631eb35b5914610596578063248a9ca3146105c35780632a8448c8146105f457600080fd5b806316d0a825146104fe5780631785f53c1461052c57806317d70f7c1461054c57600080fd5b806306fdde031161036a57806306fdde03146104495780630b72910c146104915780630e89341c146104b157806316544859146104d157600080fd5b8062fdd58e146103d357806301ffc9a71461040657806302acc94b1461043657600080fd5b366103ce57600034116103c35760405162461bcd60e51b815260206004820152600060248201526044015b60405180910390fd5b6103cc34610be3565b005b600080fd5b3480156103df57600080fd5b506103f36103ee366004614ae9565b610bfe565b6040519081526020015b60405180910390f35b34801561041257600080fd5b50610426610421366004614b29565b610c94565b60405190151581526020016103fd565b6103cc610444366004614b46565b610c9f565b34801561045557600080fd5b506104846040518060400160405280600f81526020016e131418590813999d0813585c9ad95d608a1b81525081565b6040516103fd9190614bc2565b34801561049d57600080fd5b506103cc6104ac366004614b46565b611009565b3480156104bd57600080fd5b506104846104cc366004614bd5565b6110eb565b3480156104dd57600080fd5b506104f16104ec366004614bd5565b611196565b6040516103fd9190614bee565b34801561050a57600080fd5b506103f3610519366004614bd5565b6101ff6020526000908152604090205481565b34801561053857600080fd5b506103cc610547366004614c54565b61133b565b34801561055857600080fd5b506103f36101f75481565b34801561056f57600080fd5b506101f6546001600160a01b03165b6040516001600160a01b0390911681526020016103fd565b3480156105a257600080fd5b506105b66105b1366004614d34565b611351565b6040516103fd9190614dd1565b3480156105cf57600080fd5b506103f36105de366004614bd5565b6000908152610191602052604090206001015490565b34801561060057600080fd5b506103f36101f85481565b34801561061757600080fd5b506103cc610626366004614fa8565b6118ba565b34801561063757600080fd5b506105b6610646366004615051565b611906565b34801561065757600080fd5b506103cc6106663660046150a0565b611c8f565b34801561067757600080fd5b506103cc610686366004614b46565b611cba565b34801561069757600080fd5b506103f36106a63660046150cc565b611d41565b3480156106b757600080fd5b506103cc6106c63660046150a0565b611d91565b3480156106d757600080fd5b506103cc611e0f565b3480156106ec57600080fd5b506103cc611ed3565b34801561070157600080fd5b506103f36107103660046150cc565b611ef3565b6103cc6107233660046150ee565b611f5f565b34801561073457600080fd5b5061074861074336600461512d565b6122b1565b6040516103fd9190615232565b34801561076157600080fd5b50610426610770366004614bd5565b600090815261015f6020526040902054151590565b34801561079157600080fd5b506105b66107a0366004615245565b6123da565b3480156107b157600080fd5b5060fb5460ff16610426565b3480156107c957600080fd5b506103cc6107d836600461527a565b6124d2565b3480156107e957600080fd5b506103cc612515565b3480156107fe57600080fd5b506103f3600080516020615f1f83398151915281565b34801561082057600080fd5b506105b661082f3660046152e3565b612527565b34801561084057600080fd5b506103cc612954565b34801561085557600080fd5b506103cc612abf565b34801561086a57600080fd5b506103cc610879366004614c54565b612adf565b34801561088a57600080fd5b5060c9546001600160a01b031661057e565b3480156108a857600080fd5b506104266108b73660046150a0565b612b0a565b6103cc6108ca3660046150ee565b612b36565b3480156108db57600080fd5b50610484604051806040016040528060068152602001654c504e46544d60d01b81525081565b34801561090d57600080fd5b506103f361091c3660046150cc565b612b97565b34801561092d57600080fd5b5061048461093c3660046150cc565b612bfa565b34801561094d57600080fd5b506103f3600081565b34801561096257600080fd5b506103cc610971366004615363565b612c89565b34801561098257600080fd5b506104f161099136600461538d565b612c94565b3480156109a257600080fd5b506103f36101f95481565b3480156109b957600080fd5b506109cd6109c8366004614bd5565b612f36565b6040516103fd9594939291906153e6565b3480156109ea57600080fd5b506103f36109f9366004614bd5565b600090815261015f602052604090205490565b348015610a1857600080fd5b506103cc610a2736600461542c565b61307f565b348015610a3857600080fd5b506103cc610a473660046150a0565b613155565b348015610a5857600080fd5b506105b6610a673660046150cc565b61317b565b348015610a7857600080fd5b50610426610a87366004615467565b6001600160a01b03918216600090815260666020908152604080832093909416825291909152205460ff1690565b348015610ac157600080fd5b50610aca613421565b604080519384526020840192909252908201526060016103fd565b348015610af157600080fd5b506103cc610b00366004615491565b613468565b348015610b1157600080fd5b506103f3610b20366004614bd5565b613569565b348015610b3157600080fd5b506103cc610b40366004614c54565b6135e7565b348015610b5157600080fd5b506103cc610b603660046154f5565b61365d565b6103cc610b733660046150ee565b6136a0565b348015610b8457600080fd5b50610bd2610b93366004614bd5565b6101fc60205260009081526040902080546001820154600283015460039093015460ff8316936101009093046001600160a01b03908116939216919085565b6040516103fd959493929190615528565b806101fa6000828254610bf69190615588565b909155505050565b60006001600160a01b038316610c695760405162461bcd60e51b815260206004820152602a60248201527f455243313135353a2061646472657373207a65726f206973206e6f742061207660448201526930b634b21037bbb732b960b11b60648201526084016103ba565b5060008181526065602090815260408083206001600160a01b03861684529091529020545b92915050565b6000610c8e826137b9565b60008381526101fe602090815260408083208584529091529020548015801590610ccc57506101f7548111155b610ce85760405162461bcd60e51b81526004016103ba9061559b565b60008481526101fe602090815260408083208684529091529020600e015460ff1615610d565760405162461bcd60e51b815260206004820152601f60248201527f5468697320746f6b656e2069732063757272656e746c7920706175736564210060448201526064016103ba565b60008481526101fe602090815260408083208684529091529020600e015462010000900460ff16610dc95760405162461bcd60e51b815260206004820152601d60248201527f5468697320746f6b656e2069736e2774207075726368617361626c652100000060448201526064016103ba565b600081815261015f60205260408120543391610de58583615588565b60008881526101fe602090815260408083208a84529091529020600901549091508111801590610e3d575060008781526101fe60209081526040808320898452909152902060040154610e399086906155cb565b3410155b610e635760405162461bcd60e51b815260206004820152600060248201526044016103ba565b610e7e838587604051806020016040528060008152506137de565b604080516001600160a01b0385168152602081018690529081018690527fcd3be83a84e5346ed2a99b490b333b8683509b6a2c877a802aa253932aeee49f9060600160405180910390a160008781526101fe602090815260408083208984529091529020600d0154610ef1908690615588565b60008881526101fe602090815260408083208a8452909152808220600d019290925585815220600901548211610f4c5760008781526101fe602090815260408083208984529091529020600e01805461ff0019166101001790555b60006101f860008154610f5e906155e2565b918290555060008181526101fc602090815260409182902080546001600160a81b0319166101006001600160a01b038a16908102919091178255600382018b9055600290910189905582519081529081018890529081018a905260608101899052608081018890529091507ffa878df040a631c9e55625aa08e189634ce31b6e93293bee60a552236e915adc9060a00160405180910390a1610fff34610be3565b5050505050505050565b600080516020615f1f83398151915261102181613903565b60008481526101fe60209081526040808320868452909152902054801580159061104e57506101f7548111155b61106a5760405162461bcd60e51b81526004016103ba9061559b565b61107c83670de0b6b3a76400006155cb565b60008681526101fe60209081526040808320888452909152812060040191909155335b60008781526101fe60209081526040808320898452909152908190209051919250600080516020615eff833981519152916110db9184916156b2565b60405180910390a1505050505050565b606060008211801561110057506101f7548211155b61113f5760405162461bcd60e51b815260206004820152601060248201526f53656e6420612076616c69642069642160801b60448201526064016103ba565b60008281527f5f4301e3e862ad13c0503d3de32ba4e2e40c90733d1da23c9df4d0addbcf6508602090815260409182902091516111809260080191016157ed565b6040516020818303038152906040529050919050565b6111ca6040518060a00160405280600081526020016060815260200160001515815260200160608152602001600081525090565b6101fd60008381526020019081526020016000206040518060a001604052908160008201548152602001600182018054611203906155fb565b80601f016020809104026020016040519081016040528092919081815260200182805461122f906155fb565b801561127c5780601f106112515761010080835404028352916020019161127c565b820191906000526020600020905b81548152906001019060200180831161125f57829003601f168201915b5050509183525050600282015460ff16151560208201526003820180546040909201916112a8906155fb565b80601f01602080910402602001604051908101604052809291908181526020018280546112d4906155fb565b80156113215780601f106112f657610100808354040283529160200191611321565b820191906000526020600020905b81548152906001019060200180831161130457829003601f168201915b505050505081526020016004820154815250509050919050565b61134361390d565b61134e600082613967565b50565b611359614a31565b600080516020615f1f83398151915261137181613903565b60006101f760008154611383906155e2565b918290555060008a81526101ff602052604081208054929350909182906113a9906155e2565b9190508190559050846101fe60008c81526020019081526020016000206000838152602001908152602001600020600e0160036101000a81548160ff021916908315150217905550856101fe60008c81526020019081526020016000206000838152602001908152602001600020600e0160026101000a81548160ff021916908315150217905550896101fe60008c815260200190815260200160002060008381526020019081526020016000206002018190555060016101fe60008c81526020019081526020016000206000838152602001908152602001600020600e0160006101000a81548160ff021916908315150217905550426101fe60008c81526020019081526020016000206000838152602001908152602001600020600a0181905550806101fe60008c8152602001908152602001600020600083815260200190815260200160002060010181905550816101fe60008c8152602001908152602001600020600083815260200190815260200160002060000181905550886101fe60008c8152602001908152602001600020600083815260200190815260200160002060050160006101000a8154816001600160a01b0302191690836001600160a01b03160217905550876101fe60008c8152602001908152602001600020600083815260200190815260200160002060060190816115a891906158a9565b5060008a81526101fe6020908152604080832084845290915290206007016115d088826158a9565b5060008a81526101fe602090815260408083208484529091529081902090513391600080516020615eff8339815191529161160c9184916156b2565b60405180910390a160008b81526101fe6020908152604080832086845282529182902082516102408101845281548152600182015492810192909252600281015492820192909252600382015460608201526004820154608082015260058201546001600160a01b031660a082015260068201805491929160c084019190611693906155fb565b80601f01602080910402602001604051908101604052809291908181526020018280546116bf906155fb565b801561170c5780601f106116e15761010080835404028352916020019161170c565b820191906000526020600020905b8154815290600101906020018083116116ef57829003601f168201915b50505050508152602001600782018054611725906155fb565b80601f0160208091040260200160405190810160405280929190818152602001828054611751906155fb565b801561179e5780601f106117735761010080835404028352916020019161179e565b820191906000526020600020905b81548152906001019060200180831161178157829003601f168201915b505050505081526020016008820180546117b7906155fb565b80601f01602080910402602001604051908101604052809291908181526020018280546117e3906155fb565b80156118305780601f1061180557610100808354040283529160200191611830565b820191906000526020600020905b81548152906001019060200180831161181357829003601f168201915b505050918352505060098201546020820152600a8201546040820152600b8201546060820152600c8201546080820152600d82015460a0820152600e9091015460ff808216151560c08401526101008083048216151560e085015262010000830482161515908401526301000000909104161515610120909101529b9a5050505050505050505050565b6001600160a01b0385163314806118d657506118d68533610a87565b6118f25760405162461bcd60e51b81526004016103ba90615968565b6118ff85858585856139ee565b5050505050565b61190e614a31565b600080516020615f1f83398151915261192681613903565b60008581526101fe60209081526040808320878452909152902054801580159061195357506101f7548111155b61196f5760405162461bcd60e51b81526004016103ba9061559b565b60008681526101fe60209081526040808320888452909152902060080161199685826158a9565b5060008681526101fe602090815260408083208884528252808320805484527f5f4301e3e862ad13c0503d3de32ba4e2e40c90733d1da23c9df4d0addbcf65089092529091206008908101916119ed9101826159b6565b5060008681526101fe6020908152604080832088845282529182902082516102408101845281548152600182015492810192909252600281015492820192909252600382015460608201526004820154608082015260058201546001600160a01b031660a082015260068201805491929160c084019190611a6d906155fb565b80601f0160208091040260200160405190810160405280929190818152602001828054611a99906155fb565b8015611ae65780601f10611abb57610100808354040283529160200191611ae6565b820191906000526020600020905b815481529060010190602001808311611ac957829003601f168201915b50505050508152602001600782018054611aff906155fb565b80601f0160208091040260200160405190810160405280929190818152602001828054611b2b906155fb565b8015611b785780601f10611b4d57610100808354040283529160200191611b78565b820191906000526020600020905b815481529060010190602001808311611b5b57829003601f168201915b50505050508152602001600882018054611b91906155fb565b80601f0160208091040260200160405190810160405280929190818152602001828054611bbd906155fb565b8015611c0a5780601f10611bdf57610100808354040283529160200191611c0a565b820191906000526020600020905b815481529060010190602001808311611bed57829003601f168201915b505050918352505060098201546020820152600a8201546040820152600b8201546060820152600c8201546080820152600d82015460a0820152600e9091015460ff808216151560c08401526101008083048216151560e085015262010000830482161515908401526301000000909104161515610120909101529695505050505050565b60008281526101916020526040902060010154611cab81613903565b611cb58383613967565b505050565b600080516020615f1f833981519152611cd281613903565b60008481526101fe602090815260408083208684529091529020548015801590611cff57506101f7548111155b611d1b5760405162461bcd60e51b81526004016103ba9061559b565b60008581526101fe6020908152604080832087845290915281206009018490553361109f565b60008281526101fe602090815260408083208484529091528120548015801590611d6e57506101f7548111155b611d8a5760405162461bcd60e51b81526004016103ba9061559b565b9392505050565b6001600160a01b0381163314611e015760405162461bcd60e51b815260206004820152602f60248201527f416363657373436f6e74726f6c3a2063616e206f6e6c792072656e6f756e636560448201526e103937b632b9903337b91039b2b63360891b60648201526084016103ba565b611e0b8282613b9b565b5050565b611e17613c03565b600080516020615f1f833981519152611e2f81613903565b60006101fb546101fa54611e439190615a88565b905080600003611e6f5760405162461bcd60e51b815260206004820152600060248201526044016103ba565b6101f6546040516001600160a01b039091169082156108fc029083906000818181858888f19350505050158015611eaa573d6000803e3d6000fd5b50806101fb6000828254611ebe9190615588565b909155505060016101c35550611ed19050565b565b600080516020615f1f833981519152611eeb81613903565b61134e613c66565b60008281526101fe602090815260408083208484529091528120548015801590611f2057506101f7548111155b611f3c5760405162461bcd60e51b81526004016103ba9061559b565b505060009182526101fe6020908152604080842092845291905290206004015490565b600080516020615f1f833981519152611f7781613903565b60008581526101fe602090815260408083208784529091529020548015801590611fa457506101f7548111155b611fc05760405162461bcd60e51b81526004016103ba9061559b565b60008681526101fe602090815260408083208884529091529020600e015460ff161561202e5760405162461bcd60e51b815260206004820152601f60248201527f5468697320746f6b656e2069732063757272656e746c7920706175736564210060448201526064016103ba565b60008681526101fe602090815260408083208884529091529020600e01546301000000900460ff166120a25760405162461bcd60e51b815260206004820181905260248201527f5468697320746f6b656e2069736e2774207365742061732061697264726f702160448201526064016103ba565b600081815261015f602052604081205484916120be8783615588565b60008a81526101fe602090815260408083208c84529091529020600901549091508111156121085760405162461bcd60e51b815260206004820152600060248201526044016103ba565b612123838589604051806020016040528060008152506137de565b604080516001600160a01b0385168152602081018690529081018890527fcd3be83a84e5346ed2a99b490b333b8683509b6a2c877a802aa253932aeee49f906060015b60405180910390a160008981526101fe602090815260408083208b84529091529020600d0154612197908890615588565b60008a81526101fe602090815260408083208c8452909152808220600d0192909255858152206009015482116121f25760008981526101fe602090815260408083208b84529091529020600e01805461ff0019166101001790555b60006101f860008154612204906155e2565b918290555060008181526101fc602090815260409182902080546001600160a81b0319166101006001600160a01b038a16908102919091178255600382018d9055600290910189905582519081529081018890529081018c9052606081018b9052608081018a90529091507ffa878df040a631c9e55625aa08e189634ce31b6e93293bee60a552236e915adc9060a00160405180910390a16122a534610be3565b50505050505050505050565b606081518351146123165760405162461bcd60e51b815260206004820152602960248201527f455243313135353a206163636f756e747320616e6420696473206c656e677468604482015268040dad2e6dac2e8c6d60bb1b60648201526084016103ba565b600083516001600160401b0381111561233157612331614c6f565b60405190808252806020026020018201604052801561235a578160200160208202803683370190505b50905060005b84518110156123d2576123a585828151811061237e5761237e615a9b565b602002602001015185838151811061239857612398615a9b565b6020026020010151610bfe565b8282815181106123b7576123b7615a9b565b60209081029190910101526123cb816155e2565b9050612360565b509392505050565b6123e2614a31565b600080516020615f1f8339815191526123fa81613903565b60008581526101fe60209081526040808320878452909152902054801580159061242757506101f7548111155b6124435760405162461bcd60e51b81526004016103ba9061559b565b60008681526101fe60209081526040808320888452825291829020600e8101805460ff191688151517905582516102408101845281548152600182015492810192909252600281015492820192909252600382015460608201526004820154608082015260058201546001600160a01b031660a082015260068201805491929160c084019190611a6d906155fb565b6001600160a01b0383163314806124ee57506124ee8333610a87565b61250a5760405162461bcd60e51b81526004016103ba90615968565b611cb5838383613cb8565b61251d61390d565b611ed16000613e58565b61252f614a31565b600080516020615f1f83398151915261254781613903565b60008a81526101fe602090815260408083208c8452909152902054801580159061257457506101f7548111155b6125905760405162461bcd60e51b81526004016103ba9061559b565b60008b81526101fe602090815260408083208d84529091529020600e8101805460ff19169055600b8101879055600c81018690556009018890556125dc89670de0b6b3a76400006155cb565b60008c81526101fe602090815260408083208e8452909152902060048101919091556003810188905560080161261285826158a9565b5060008b81526101fe602090815260408083208d84528252808320805484527f5f4301e3e862ad13c0503d3de32ba4e2e40c90733d1da23c9df4d0addbcf65089092529091206008908101916126699101826159b6565b5060008b81526101fe602090815260408083208d84529091529081902090513391600080516020615eff833981519152916126a59184916156b2565b60405180910390a160008c81526101fe602090815260408083208e845282529182902082516102408101845281548152600182015492810192909252600281015492820192909252600382015460608201526004820154608082015260058201546001600160a01b031660a082015260068201805491929160c08401919061272c906155fb565b80601f0160208091040260200160405190810160405280929190818152602001828054612758906155fb565b80156127a55780601f1061277a576101008083540402835291602001916127a5565b820191906000526020600020905b81548152906001019060200180831161278857829003601f168201915b505050505081526020016007820180546127be906155fb565b80601f01602080910402602001604051908101604052809291908181526020018280546127ea906155fb565b80156128375780601f1061280c57610100808354040283529160200191612837565b820191906000526020600020905b81548152906001019060200180831161281a57829003601f168201915b50505050508152602001600882018054612850906155fb565b80601f016020809104026020016040519081016040528092919081815260200182805461287c906155fb565b80156128c95780601f1061289e576101008083540402835291602001916128c9565b820191906000526020600020905b8154815290600101906020018083116128ac57829003601f168201915b505050918352505060098201546020820152600a8201546040820152600b8201546060820152600c8201546080820152600d82015460a0820152600e9091015460ff808216151560c08401526101008083048216151560e085015262010000830482161515908401526301000000909104161515610120909101529c9b505050505050505050505050565b600054610100900460ff16158080156129745750600054600160ff909116105b8061298e5750303b15801561298e575060005460ff166001145b6129f15760405162461bcd60e51b815260206004820152602e60248201527f496e697469616c697a61626c653a20636f6e747261637420697320616c72656160448201526d191e481a5b9a5d1a585b1a5e995960921b60648201526084016103ba565b6000805460ff191660011790558015612a14576000805461ff0019166101001790555b612a1c613eaa565b612a24613eda565b612a2c613eda565b612a34613eda565b612a3c613f01565b612a5460405180602001604052806000815250613f28565b612a5f600033613f58565b612a77600080516020615f1f83398151915233613f58565b801561134e576000805461ff0019169055604051600181527f7f26b83ff96e1f2b6a682f133852f6798a09c465da95921460cefb38474024989060200160405180910390a150565b600080516020615f1f833981519152612ad781613903565b61134e613f62565b612ae761390d565b6101f680546001600160a01b0319166001600160a01b0392909216919091179055565b6000918252610191602090815260408084206001600160a01b0393909316845291905290205460ff1690565b600080516020615f1f833981519152612b4e81613903565b60008581526101fe602090815260408083208784529091529020548015801590612b7b57506101f7548111155b6120a25760405162461bcd60e51b81526004016103ba9061559b565b60008281526101fe602090815260408083208484529091528120548015801590612bc457506101f7548111155b612be05760405162461bcd60e51b81526004016103ba9061559b565b600081815261015f60205260408120545b95945050505050565b60008281526101fe602090815260408083208484529091529020546060908015801590612c2a57506101f7548111155b612c465760405162461bcd60e51b81526004016103ba9061559b565b60008481526101fe602090815260408083208684528252918290209151612c719260080191016157ed565b60405160208183030381529060405291505092915050565b611e0b338383613f9f565b612cc86040518060a00160405280600081526020016060815260200160001515815260200160608152602001600081525090565b600080516020615f1f833981519152612ce081613903565b60006101f960008154612cf2906155e2565b918290555060008181526101fd60205260409020818155909150600101612d1986826158a9565b5060008181526101fd6020526040902060028101805460ff19166001179055600301612d4585826158a9565b5060008181526101fd60205260408120426004909101553390507f37b998acea733bbd37783524f4eca82c27b8cfd19b9bcfccd5e0174f4b19983681836040518060400160405280600f81526020016e131418590813999d0813585c9ad95d608a1b815250604051612db993929190615ab1565b60405180910390a16101fd60008381526020019081526020016000206040518060a001604052908160008201548152602001600182018054612dfa906155fb565b80601f0160208091040260200160405190810160405280929190818152602001828054612e26906155fb565b8015612e735780601f10612e4857610100808354040283529160200191612e73565b820191906000526020600020905b815481529060010190602001808311612e5657829003601f168201915b5050509183525050600282015460ff1615156020820152600382018054604090920191612e9f906155fb565b80601f0160208091040260200160405190810160405280929190818152602001828054612ecb906155fb565b8015612f185780601f10612eed57610100808354040283529160200191612f18565b820191906000526020600020905b815481529060010190602001808311612efb57829003601f168201915b50505050508152602001600482015481525050935050505092915050565b6101fd6020526000908152604090208054600182018054919291612f59906155fb565b80601f0160208091040260200160405190810160405280929190818152602001828054612f85906155fb565b8015612fd25780601f10612fa757610100808354040283529160200191612fd2565b820191906000526020600020905b815481529060010190602001808311612fb557829003601f168201915b5050506002840154600385018054949560ff909216949193509150612ff6906155fb565b80601f0160208091040260200160405190810160405280929190818152602001828054613022906155fb565b801561306f5780601f106130445761010080835404028352916020019161306f565b820191906000526020600020905b81548152906001019060200180831161305257829003601f168201915b5050505050908060040154905085565b600080516020615f1f83398151915261309781613903565b60008581526101fe6020908152604080832087845290915290205480158015906130c457506101f7548111155b6130e05760405162461bcd60e51b81526004016103ba9061559b565b60008681526101fe6020908152604080832088845290915290819020600e8101805463ffff00001916620100008815150263ff00000019161763010000008715150217905590513391600080516020615eff833981519152916131449184916156b2565b60405180910390a150505050505050565b6000828152610191602052604090206001015461317181613903565b611cb58383613b9b565b613183614a31565b60008381526101fe6020908152604080832085845282529182902082516102408101845281548152600182015492810192909252600281015492820192909252600382015460608201526004820154608082015260058201546001600160a01b031660a082015260068201805491929160c084019190613202906155fb565b80601f016020809104026020016040519081016040528092919081815260200182805461322e906155fb565b801561327b5780601f106132505761010080835404028352916020019161327b565b820191906000526020600020905b81548152906001019060200180831161325e57829003601f168201915b50505050508152602001600782018054613294906155fb565b80601f01602080910402602001604051908101604052809291908181526020018280546132c0906155fb565b801561330d5780601f106132e25761010080835404028352916020019161330d565b820191906000526020600020905b8154815290600101906020018083116132f057829003601f168201915b50505050508152602001600882018054613326906155fb565b80601f0160208091040260200160405190810160405280929190818152602001828054613352906155fb565b801561339f5780601f106133745761010080835404028352916020019161339f565b820191906000526020600020905b81548152906001019060200180831161338257829003601f168201915b505050918352505060098201546020820152600a8201546040820152600b8201546060820152600c8201546080820152600d82015460a0820152600e9091015460ff808216151560c08401526101008083048216151560e085015262010000830482161515908401526301000000909104161515610120909101529392505050565b6000806000600080516020615f1f83398151915261343e81613903565b60006101fb546101fa546134529190615a88565b6101fa546101fb54909650945092505050909192565b6001600160a01b03851633148061348457506134848533610a87565b6134e85760405162461bcd60e51b815260206004820152602f60248201527f455243313135353a2063616c6c6572206973206e6f7420746f6b656e206f776e60448201526e195c881b9bdc88185c1c1c9bdd9959608a1b60648201526084016103ba565b6134f5858585858561407f565b60006101f860008154613507906155e2565b918290555060009081526101fc60205260409020805460016001600160a81b03199091166101006001600160a01b03998a16021781178255600382019490945592830180546001600160a01b0319169590961694909417909455600201555050565b60008181526101ff602052604081205461358257600080fd5b6000805b60008481526101ff602052604090205460ff8216116135e05760008481526101fe6020908152604080832060ff851684529091529020600401546135ca8184615588565b92505080806135d890615ad8565b915050613586565b5092915050565b6135ef61390d565b6001600160a01b0381166136545760405162461bcd60e51b815260206004820152602660248201527f4f776e61626c653a206e6577206f776e657220697320746865207a65726f206160448201526564647265737360d01b60648201526084016103ba565b61134e81613e58565b6001600160a01b03831633148061367957506136798333610a87565b6136955760405162461bcd60e51b81526004016103ba90615968565b611cb58383836141bb565b600080516020615f1f8339815191526136b881613903565b60008581526101fe6020908152604080832087845290915290205480158015906136e557506101f7548111155b6137015760405162461bcd60e51b81526004016103ba9061559b565b600081815261015f6020526040812054849161371d8783615588565b60008a81526101fe602090815260408083208c84529091529020600901549091508111156137675760405162461bcd60e51b815260206004820152600060248201526044016103ba565b6137728385896141bb565b604080516001600160a01b0385168152602081018690529081018890527f603e4ebe64be8a2a65d77ed2b2f2ffd8cc6e0f6af572f52391a62d4cdfcb857590606001612166565b60006001600160e01b03198216637965db0b60e01b1480610c8e5750610c8e826142d7565b6001600160a01b03841661383e5760405162461bcd60e51b815260206004820152602160248201527f455243313135353a206d696e7420746f20746865207a65726f206164647265736044820152607360f81b60648201526084016103ba565b33600061384a85614327565b9050600061385785614327565b905061386883600089858589614372565b60008681526065602090815260408083206001600160a01b038b1684529091528120805487929061389a908490615588565b909155505060408051878152602081018790526001600160a01b03808a1692600092918716917fc3d58168c5ae7397731d063d5bbf3d657854427343f4c083240f7aacaa2d0f62910160405180910390a46138fa83600089898989614388565b50505050505050565b61134e81336144e3565b60c9546001600160a01b03163314611ed15760405162461bcd60e51b815260206004820181905260248201527f4f776e61626c653a2063616c6c6572206973206e6f7420746865206f776e657260448201526064016103ba565b6139718282612b0a565b611e0b576000828152610191602090815260408083206001600160a01b03851684529091529020805460ff191660011790556139aa3390565b6001600160a01b0316816001600160a01b0316837f2f8788117e7eff1d82e926ec794901d17c78024a50270940304540a733656f0d60405160405180910390a45050565b8151835114613a0f5760405162461bcd60e51b81526004016103ba90615af7565b6001600160a01b038416613a355760405162461bcd60e51b81526004016103ba90615b3f565b33613a44818787878787614372565b60005b8451811015613b2d576000858281518110613a6457613a64615a9b565b602002602001015190506000858381518110613a8257613a82615a9b565b60209081029190910181015160008481526065835260408082206001600160a01b038e168352909352919091205490915081811015613ad35760405162461bcd60e51b81526004016103ba90615b84565b60008381526065602090815260408083206001600160a01b038e8116855292528083208585039055908b16825281208054849290613b12908490615588565b9250508190555050505080613b26906155e2565b9050613a47565b50846001600160a01b0316866001600160a01b0316826001600160a01b03167f4a39dc06d4c0dbc64b70af90fd698a233a518aa5d07e595d983b8c0526c8f7fb8787604051613b7d929190615bce565b60405180910390a4613b9381878787878761453c565b505050505050565b613ba58282612b0a565b15611e0b576000828152610191602090815260408083206001600160a01b0385168085529252808320805460ff1916905551339285917ff6391f5c32d9c69d2a47ea670b442974b53935d1edc7fd64eb21e047a839171b9190a45050565b60026101c35403613c565760405162461bcd60e51b815260206004820152601f60248201527f5265656e7472616e637947756172643a207265656e7472616e742063616c6c0060448201526064016103ba565b60026101c355565b60016101c355565b613c6e6145f7565b60fb805460ff191690557f5db9ee0a495bf2e6ff9c91a7834c1ba4fdd244a5e8aa4e537bd38aeae4b073aa335b6040516001600160a01b03909116815260200160405180910390a1565b6001600160a01b038316613cde5760405162461bcd60e51b81526004016103ba90615bf3565b8051825114613cff5760405162461bcd60e51b81526004016103ba90615af7565b6000339050613d2281856000868660405180602001604052806000815250614372565b60005b8351811015613dea576000848281518110613d4257613d42615a9b565b602002602001015190506000848381518110613d6057613d60615a9b565b60209081029190910181015160008481526065835260408082206001600160a01b038c168352909352919091205490915081811015613db15760405162461bcd60e51b81526004016103ba90615c36565b60009283526065602090815260408085206001600160a01b038b1686529091529092209103905580613de2816155e2565b915050613d25565b5060006001600160a01b0316846001600160a01b0316826001600160a01b03167f4a39dc06d4c0dbc64b70af90fd698a233a518aa5d07e595d983b8c0526c8f7fb8686604051613e3b929190615bce565b60405180910390a460408051602081019091526000905250505050565b60c980546001600160a01b038381166001600160a01b0319831681179093556040519116919082907f8be0079c531659141344cd1fd0a4f28419497f9722a3daafe3b4186f6b6457e090600090a35050565b600054610100900460ff16613ed15760405162461bcd60e51b81526004016103ba90615c7a565b611ed133613e58565b600054610100900460ff16611ed15760405162461bcd60e51b81526004016103ba90615c7a565b600054610100900460ff16613c5e5760405162461bcd60e51b81526004016103ba90615c7a565b600054610100900460ff16613f4f5760405162461bcd60e51b81526004016103ba90615c7a565b61134e81614640565b611e0b8282613967565b613f6a61464c565b60fb805460ff191660011790557f62e78cea01bee320cd4e420270b5ea74000d11b0c9f74754ebdbfc544b05a258613c9b3390565b816001600160a01b0316836001600160a01b0316036140125760405162461bcd60e51b815260206004820152602960248201527f455243313135353a2073657474696e6720617070726f76616c20737461747573604482015268103337b91039b2b63360b91b60648201526084016103ba565b6001600160a01b03838116600081815260666020908152604080832094871680845294825291829020805460ff191686151590811790915591519182527f17307eab39ab6107e8899845ad3d59bd9653f200f220920489ca2b5937696c31910160405180910390a3505050565b6001600160a01b0384166140a55760405162461bcd60e51b81526004016103ba90615b3f565b3360006140b185614327565b905060006140be85614327565b90506140ce838989858589614372565b60008681526065602090815260408083206001600160a01b038c168452909152902054858110156141115760405162461bcd60e51b81526004016103ba90615b84565b60008781526065602090815260408083206001600160a01b038d8116855292528083208985039055908a16825281208054889290614150908490615588565b909155505060408051888152602081018890526001600160a01b03808b16928c821692918816917fc3d58168c5ae7397731d063d5bbf3d657854427343f4c083240f7aacaa2d0f62910160405180910390a46141b0848a8a8a8a8a614388565b505050505050505050565b6001600160a01b0383166141e15760405162461bcd60e51b81526004016103ba90615bf3565b3360006141ed84614327565b905060006141fa84614327565b905061421a83876000858560405180602001604052806000815250614372565b60008581526065602090815260408083206001600160a01b038a1684529091529020548481101561425d5760405162461bcd60e51b81526004016103ba90615c36565b60008681526065602090815260408083206001600160a01b038b81168086529184528285208a8703905582518b81529384018a90529092908816917fc3d58168c5ae7397731d063d5bbf3d657854427343f4c083240f7aacaa2d0f62910160405180910390a46040805160208101909152600090526138fa565b60006001600160e01b03198216636cdb3d1360e11b148061430857506001600160e01b031982166303a24d0760e21b145b80610c8e57506301ffc9a760e01b6001600160e01b0319831614610c8e565b6040805160018082528183019092526060916000919060208083019080368337019050509050828160008151811061436157614361615a9b565b602090810291909101015292915050565b61437a61464c565b613b93868686868686614692565b6001600160a01b0384163b15613b935760405163f23a6e6160e01b81526001600160a01b0385169063f23a6e61906143cc9089908990889088908890600401615cc5565b6020604051808303816000875af1925050508015614407575060408051601f3d908101601f1916820190925261440491810190615d0a565b60015b6144b357614413615d27565b806308c379a00361444c5750614427615d43565b80614432575061444e565b8060405162461bcd60e51b81526004016103ba9190614bc2565b505b60405162461bcd60e51b815260206004820152603460248201527f455243313135353a207472616e7366657220746f206e6f6e2d455243313135356044820152732932b1b2b4bb32b91034b6b83632b6b2b73a32b960611b60648201526084016103ba565b6001600160e01b0319811663f23a6e6160e01b146138fa5760405162461bcd60e51b81526004016103ba90615dcc565b6144ed8282612b0a565b611e0b576144fa8161481c565b61450583602061482e565b604051602001614516929190615e14565b60408051601f198184030181529082905262461bcd60e51b82526103ba91600401614bc2565b6001600160a01b0384163b15613b935760405163bc197c8160e01b81526001600160a01b0385169063bc197c81906145809089908990889088908890600401615e89565b6020604051808303816000875af19250505080156145bb575060408051601f3d908101601f191682019092526145b891810190615d0a565b60015b6145c757614413615d27565b6001600160e01b0319811663bc197c8160e01b146138fa5760405162461bcd60e51b81526004016103ba90615dcc565b60fb5460ff16611ed15760405162461bcd60e51b815260206004820152601460248201527314185d5cd8589b194e881b9bdd081c185d5cd95960621b60448201526064016103ba565b6067611e0b82826158a9565b60fb5460ff1615611ed15760405162461bcd60e51b815260206004820152601060248201526f14185d5cd8589b194e881c185d5cd95960821b60448201526064016103ba565b6146a08686868686866149c9565b6001600160a01b0385166147285760005b8351811015614726578281815181106146cc576146cc615a9b565b602002602001015161015f60008684815181106146eb576146eb615a9b565b6020026020010151815260200190815260200160002060008282546147109190615588565b9091555061471f9050816155e2565b90506146b1565b505b6001600160a01b038416613b935760005b83518110156138fa57600084828151811061475657614756615a9b565b60200260200101519050600084838151811061477457614774615a9b565b60200260200101519050600061015f6000848152602001908152602001600020549050818110156147f85760405162461bcd60e51b815260206004820152602860248201527f455243313135353a206275726e20616d6f756e74206578636565647320746f74604482015267616c537570706c7960c01b60648201526084016103ba565b600092835261015f602052604090922091039055614815816155e2565b9050614739565b6060610c8e6001600160a01b03831660145b6060600061483d8360026155cb565b614848906002615588565b6001600160401b0381111561485f5761485f614c6f565b6040519080825280601f01601f191660200182016040528015614889576020820181803683370190505b509050600360fc1b816000815181106148a4576148a4615a9b565b60200101906001600160f81b031916908160001a905350600f60fb1b816001815181106148d3576148d3615a9b565b60200101906001600160f81b031916908160001a90535060006148f78460026155cb565b614902906001615588565b90505b600181111561497a576f181899199a1a9b1b9c1cb0b131b232b360811b85600f166010811061493657614936615a9b565b1a60f81b82828151811061494c5761494c615a9b565b60200101906001600160f81b031916908160001a90535060049490941c9361497381615ee7565b9050614905565b508315611d8a5760405162461bcd60e51b815260206004820181905260248201527f537472696e67733a20686578206c656e67746820696e73756666696369656e7460448201526064016103ba565b60fb5460ff1615613b935760405162461bcd60e51b815260206004820152602c60248201527f455243313135355061757361626c653a20746f6b656e207472616e736665722060448201526b1dda1a5b19481c185d5cd95960a21b60648201526084016103ba565b604051806102400160405280600081526020016000815260200160008152602001600081526020016000815260200160006001600160a01b0316815260200160608152602001606081526020016060815260200160008152602001600081526020016000815260200160008152602001600081526020016000151581526020016000151581526020016000151581526020016000151581525090565b80356001600160a01b0381168114614ae457600080fd5b919050565b60008060408385031215614afc57600080fd5b614b0583614acd565b946020939093013593505050565b6001600160e01b03198116811461134e57600080fd5b600060208284031215614b3b57600080fd5b8135611d8a81614b13565b600080600060608486031215614b5b57600080fd5b505081359360208301359350604090920135919050565b60005b83811015614b8d578181015183820152602001614b75565b50506000910152565b60008151808452614bae816020860160208601614b72565b601f01601f19169290920160200192915050565b602081526000611d8a6020830184614b96565b600060208284031215614be757600080fd5b5035919050565b60208152815160208201526000602083015160a06040840152614c1460c0840182614b96565b90506040840151151560608401526060840151601f19848303016080850152614c3d8282614b96565b915050608084015160a08401528091505092915050565b600060208284031215614c6657600080fd5b611d8a82614acd565b634e487b7160e01b600052604160045260246000fd5b601f8201601f191681016001600160401b0381118282101715614caa57614caa614c6f565b6040525050565b600082601f830112614cc257600080fd5b81356001600160401b03811115614cdb57614cdb614c6f565b604051614cf2601f8301601f191660200182614c85565b818152846020838601011115614d0757600080fd5b816020850160208301376000918101602001919091529392505050565b80358015158114614ae457600080fd5b60008060008060008060c08789031215614d4d57600080fd5b86359550614d5d60208801614acd565b945060408701356001600160401b0380821115614d7957600080fd5b614d858a838b01614cb1565b95506060890135915080821115614d9b57600080fd5b50614da889828a01614cb1565b935050614db760808801614d24565b9150614dc560a08801614d24565b90509295509295509295565b6020815281516020820152602082015160408201526040820151606082015260608201516080820152608082015160a0820152600060a0830151614e2060c08401826001600160a01b03169052565b5060c08301516102408060e0850152614e3d610260850183614b96565b915060e0850151601f19610100818786030181880152614e5d8584614b96565b945080880151925050610120818786030181880152614e7c8584614b96565b908801516101408881019190915288015161016080890191909152880151610180808901919091528801516101a0808901919091528801516101c08089019190915288015190945091506101e09050614ed88187018315159052565b8601519050610200614eed8682018315159052565b8601519050610220614f028682018315159052565b90950151151593019290925250919050565b60006001600160401b03821115614f2d57614f2d614c6f565b5060051b60200190565b600082601f830112614f4857600080fd5b81356020614f5582614f14565b604051614f628282614c85565b83815260059390931b8501820192828101915086841115614f8257600080fd5b8286015b84811015614f9d5780358352918301918301614f86565b509695505050505050565b600080600080600060a08688031215614fc057600080fd5b614fc986614acd565b9450614fd760208701614acd565b935060408601356001600160401b0380821115614ff357600080fd5b614fff89838a01614f37565b9450606088013591508082111561501557600080fd5b61502189838a01614f37565b9350608088013591508082111561503757600080fd5b5061504488828901614cb1565b9150509295509295909350565b60008060006060848603121561506657600080fd5b833592506020840135915060408401356001600160401b0381111561508a57600080fd5b61509686828701614cb1565b9150509250925092565b600080604083850312156150b357600080fd5b823591506150c360208401614acd565b90509250929050565b600080604083850312156150df57600080fd5b50508035926020909101359150565b6000806000806080858703121561510457600080fd5b84359350602085013592506040850135915061512260608601614acd565b905092959194509250565b6000806040838503121561514057600080fd5b82356001600160401b038082111561515757600080fd5b818501915085601f83011261516b57600080fd5b8135602061517882614f14565b6040516151858282614c85565b83815260059390931b85018201928281019150898411156151a557600080fd5b948201945b838610156151ca576151bb86614acd565b825294820194908201906151aa565b965050860135925050808211156151e057600080fd5b506151ed85828601614f37565b9150509250929050565b600081518084526020808501945080840160005b838110156152275781518752958201959082019060010161520b565b509495945050505050565b602081526000611d8a60208301846151f7565b60008060006060848603121561525a57600080fd5b833592506020840135915061527160408501614d24565b90509250925092565b60008060006060848603121561528f57600080fd5b61529884614acd565b925060208401356001600160401b03808211156152b457600080fd5b6152c087838801614f37565b935060408601359150808211156152d657600080fd5b5061509686828701614f37565b600080600080600080600080610100898b03121561530057600080fd5b883597506020890135965060408901359550606089013594506080890135935060a0890135925060c0890135915060e08901356001600160401b0381111561534757600080fd5b6153538b828c01614cb1565b9150509295985092959890939650565b6000806040838503121561537657600080fd5b61537f83614acd565b91506150c360208401614d24565b600080604083850312156153a057600080fd5b82356001600160401b03808211156153b757600080fd5b6153c386838701614cb1565b935060208501359150808211156153d957600080fd5b506151ed85828601614cb1565b85815260a0602082015260006153ff60a0830187614b96565b851515604084015282810360608401526154198186614b96565b9150508260808301529695505050505050565b6000806000806080858703121561544257600080fd5b843593506020850135925061545960408601614d24565b915061512260608601614d24565b6000806040838503121561547a57600080fd5b61548383614acd565b91506150c360208401614acd565b600080600080600060a086880312156154a957600080fd5b6154b286614acd565b94506154c060208701614acd565b9350604086013592506060860135915060808601356001600160401b038111156154e957600080fd5b61504488828901614cb1565b60008060006060848603121561550a57600080fd5b61551384614acd565b95602085013595506040909401359392505050565b60a081016003871061554a57634e487b7160e01b600052602160045260246000fd5b9581526001600160a01b03948516602082015292909316604083015260608201526080015290565b634e487b7160e01b600052601160045260246000fd5b80820180821115610c8e57610c8e615572565b602080825260169082015275496e76616c696420746f6b656e2069642073656e742160501b604082015260600190565b8082028115828204841417610c8e57610c8e615572565b6000600182016155f4576155f4615572565b5060010190565b600181811c9082168061560f57607f821691505b60208210810361562f57634e487b7160e01b600052602260045260246000fd5b50919050565b60008154615642816155fb565b80855260206001838116801561565f5760018114615679576156a7565b60ff1985168884015283151560051b8801830195506156a7565b866000528260002060005b8581101561569f5781548a8201860152908301908401615684565b890184019650505b505050505092915050565b6001600160a01b0383811682526040602083018190528354908301526001830154606083015260028301546080830152600383015460a0830152600483015460c083015260058301541660e08201526102406101008201819052600090615720610280840160068601615635565b603f19808583030161012086015261573b8260078801615635565b91508085830301610140860152506157568160088701615635565b90506009850154610160850152600a850154610180850152600b8501546101a0850152600c8501546101c0850152600d8501546101e0850152600e8501546157a6610200860160ff831615159052565b6157bb610220860160ff8360081c1615159052565b6157ce83860160ff8360101c1615159052565b6157e3610260860160ff8360181c1615159052565b5095945050505050565b60008083546157fb816155fb565b60018281168015615813576001811461582857615857565b60ff1984168752821515830287019450615857565b8760005260208060002060005b8581101561584e5781548a820152908401908201615835565b50505082870194505b50929695505050505050565b601f821115611cb557600081815260208120601f850160051c8101602086101561588a5750805b601f850160051c820191505b81811015613b9357828155600101615896565b81516001600160401b038111156158c2576158c2614c6f565b6158d6816158d084546155fb565b84615863565b602080601f83116001811461590b57600084156158f35750858301515b600019600386901b1c1916600185901b178555613b93565b600085815260208120601f198616915b8281101561593a5788860151825594840194600190910190840161591b565b50858210156159585787850151600019600388901b60f8161c191681555b5050505050600190811b01905550565b6020808252602e908201527f455243313135353a2063616c6c6572206973206e6f7420746f6b656e206f776e60408201526d195c881bdc88185c1c1c9bdd995960921b606082015260800190565b8181036159c1575050565b6159cb82546155fb565b6001600160401b038111156159e2576159e2614c6f565b6159f0816158d084546155fb565b6000601f821160018114615a245760008315615a0c5750848201545b600019600385901b1c1916600184901b1784556118ff565b600085815260209020601f19841690600086815260209020845b83811015615a5e5782860154825560019586019590910190602001615a3e565b50858310156159585793015460001960f8600387901b161c19169092555050600190811b01905550565b81810381811115610c8e57610c8e615572565b634e487b7160e01b600052603260045260246000fd5b60018060a01b0384168152826020820152606060408201526000612bf16060830184614b96565b600060ff821660ff8103615aee57615aee615572565b60010192915050565b60208082526028908201527f455243313135353a2069647320616e6420616d6f756e7473206c656e677468206040820152670dad2e6dac2e8c6d60c31b606082015260800190565b60208082526025908201527f455243313135353a207472616e7366657220746f20746865207a65726f206164604082015264647265737360d81b606082015260800190565b6020808252602a908201527f455243313135353a20696e73756666696369656e742062616c616e636520666f60408201526939103a3930b739b332b960b11b606082015260800190565b604081526000615be160408301856151f7565b8281036020840152612bf181856151f7565b60208082526023908201527f455243313135353a206275726e2066726f6d20746865207a65726f206164647260408201526265737360e81b606082015260800190565b60208082526024908201527f455243313135353a206275726e20616d6f756e7420657863656564732062616c604082015263616e636560e01b606082015260800190565b6020808252602b908201527f496e697469616c697a61626c653a20636f6e7472616374206973206e6f74206960408201526a6e697469616c697a696e6760a81b606082015260800190565b6001600160a01b03868116825285166020820152604081018490526060810183905260a060808201819052600090615cff90830184614b96565b979650505050505050565b600060208284031215615d1c57600080fd5b8151611d8a81614b13565b600060033d1115615d405760046000803e5060005160e01c5b90565b600060443d1015615d515790565b6040516003193d81016004833e81513d6001600160401b038160248401118184111715615d8057505050505090565b8285019150815181811115615d985750505050505090565b843d8701016020828501011115615db25750505050505090565b615dc160208286010187614c85565b509095945050505050565b60208082526028908201527f455243313135353a204552433131353552656365697665722072656a656374656040820152676420746f6b656e7360c01b606082015260800190565b7f416363657373436f6e74726f6c3a206163636f756e7420000000000000000000815260008351615e4c816017850160208801614b72565b7001034b99036b4b9b9b4b733903937b6329607d1b6017918401918201528351615e7d816028840160208801614b72565b01602801949350505050565b6001600160a01b0386811682528516602082015260a060408201819052600090615eb5908301866151f7565b8281036060840152615ec781866151f7565b90508281036080840152615edb8185614b96565b98975050505050505050565b600081615ef657615ef6615572565b50600019019056fe6c217b36c2f40142ea9af8351e43c00785db53488ea0b94f8b9eb6f12bc1990ba49807205ce4d355092ef5a8a18f56e8913cf4a201fbe287825b095693c21775a26469706673582212208e6ed7e5b71fcd22c2cd25f4c344ac49dba81d407d20b0684b5fb623dfd5b10764736f6c63430008130033",
    "sourcePath": "d:/repos/lpad/repos/dapp/contracts/src/contracts/Nft.Market/LPadMarket.sol",
    "compiler": {
        "name": "solc",
        "version": "0.8.19+commit.7dd6d404"
    },
    "functionHashes": {
        "ADMIN_ROLE()": "75b238fc",
        "DEFAULT_ADMIN_ROLE()": "a217fddf",
        "addAddressAdmin(address)": "7c16ec80",
        "balanceOf(address,uint256)": "00fdd58e",
        "balanceOfBatch(address[],uint256[])": "4e1273f4",
        "burn(address,uint256,uint256)": "f5298aca",
        "burnBatch(address,uint256[],uint256[])": "6b20c454",
        "categoryId()": "b503a2b9",
        "categoryStructs(uint256)": "b7db408c",
        "changeWalletStore(address)": "8b08ac66",
        "createCategory(string,string)": "b224b4e9",
        "distributeFunds()": "3a6a4d2e",
        "exists(uint256)": "4f558e79",
        "getRoleAdmin(bytes32)": "248a9ca3",
        "getTokenId(uint256,uint256)": "3112de9a",
        "grantRole(bytes32,address)": "2f2ff15d",
        "hasRole(bytes32,address)": "91d14854",
        "initialize()": "8129fc1c",
        "isApprovedForAll(address,address)": "e985e9c5",
        "mint(uint256,uint256,uint256)": "02acc94b",
        "mintAirdrop(uint256,uint256,uint256,address)": "47be9185",
        "mintBurnTokens(uint256,uint256,uint256,address)": "f89263da",
        "mintEmergencyAirdrop(uint256,uint256,uint256,address)": "947aef26",
        "name()": "06fdde03",
        "nftChangePrice(uint256,uint256,uint256)": "0b72910c",
        "nftChangeSupply(uint256,uint256,uint256)": "30edc09d",
        "nftCreateItem(uint256,address,string,string,bool,bool)": "1eb35b59",
        "nftGetPrice(uint256,uint256)": "43dcc862",
        "nftInitSale(uint256,uint256,uint256,uint256,uint256,uint256,uint256,string)": "7e628083",
        "nftIpfsUriUpdate(uint256,uint256,string)": "2f17f2e8",
        "nftItemsSold(uint256,uint256)": "9d481aa8",
        "nftPause(uint256,uint256,bool)": "524355e2",
        "nftPurchasableAirdrop(uint256,uint256,bool,bool)": "d0e3ad73",
        "owner()": "8da5cb5b",
        "pause()": "8456cb59",
        "paused()": "5c975abb",
        "removeAdmin(address)": "1785f53c",
        "renounceOwnership()": "715018a6",
        "renounceRole(bytes32,address)": "36568abe",
        "revokeRole(bytes32,address)": "d547741f",
        "safeBatchTransferFrom(address,address,uint256[],uint256[],bytes)": "2eb2c2d6",
        "safeTransferFrom(address,address,uint256,uint256,bytes)": "f242432a",
        "setApprovalForAll(address,bool)": "a22cb465",
        "showCategoryCount(uint256)": "16544859",
        "showItemInCategory(uint256,uint256)": "e836ef15",
        "showWalletStoreAddress()": "1d6d13f8",
        "simpleLoopFor(uint256)": "f2afb7e1",
        "soldGetReport()": "e9d7b14f",
        "supportsInterface(bytes4)": "01ffc9a7",
        "symbol()": "95d89b41",
        "tokenId()": "17d70f7c",
        "totalStructs(uint256)": "16d0a825",
        "totalSupply(uint256)": "bd85b039",
        "transferOwnership(address)": "f2fde38b",
        "txAuditCnt()": "2a8448c8",
        "txAuditDetails(uint256)": "fcd3336e",
        "unpause()": "3f4ba83a",
        "uri(uint256)": "0e89341c",
        "uriCatIdTokId(uint256,uint256)": "9d55e461"
    },
    "gasEstimates": {
        "creation": {
            "codeDepositCost": "4887200",
            "executionCost": "30011",
            "totalCost": "4917211"
        },
        "external": {
            "ADMIN_ROLE()": "infinite",
            "DEFAULT_ADMIN_ROLE()": "295",
            "addAddressAdmin(address)": "31273",
            "balanceOf(address,uint256)": "2749",
            "balanceOfBatch(address[],uint256[])": "infinite",
            "burn(address,uint256,uint256)": "infinite",
            "burnBatch(address,uint256[],uint256[])": "infinite",
            "categoryId()": "2374",
            "categoryStructs(uint256)": "infinite",
            "changeWalletStore(address)": "26869",
            "createCategory(string,string)": "infinite",
            "distributeFunds()": "infinite",
            "exists(uint256)": "2517",
            "getRoleAdmin(bytes32)": "2545",
            "getTokenId(uint256,uint256)": "4866",
            "grantRole(bytes32,address)": "infinite",
            "hasRole(bytes32,address)": "2755",
            "initialize()": "infinite",
            "isApprovedForAll(address,address)": "infinite",
            "mint(uint256,uint256,uint256)": "infinite",
            "mintAirdrop(uint256,uint256,uint256,address)": "infinite",
            "mintBurnTokens(uint256,uint256,uint256,address)": "infinite",
            "mintEmergencyAirdrop(uint256,uint256,uint256,address)": "infinite",
            "name()": "infinite",
            "nftChangePrice(uint256,uint256,uint256)": "infinite",
            "nftChangeSupply(uint256,uint256,uint256)": "infinite",
            "nftCreateItem(uint256,address,string,string,bool,bool)": "infinite",
            "nftGetPrice(uint256,uint256)": "7032",
            "nftInitSale(uint256,uint256,uint256,uint256,uint256,uint256,uint256,string)": "infinite",
            "nftIpfsUriUpdate(uint256,uint256,string)": "infinite",
            "nftItemsSold(uint256,uint256)": "6941",
            "nftPause(uint256,uint256,bool)": "infinite",
            "nftPurchasableAirdrop(uint256,uint256,bool,bool)": "infinite",
            "owner()": "2399",
            "pause()": "infinite",
            "paused()": "2415",
            "removeAdmin(address)": "31251",
            "renounceOwnership()": "infinite",
            "renounceRole(bytes32,address)": "29113",
            "revokeRole(bytes32,address)": "infinite",
            "safeBatchTransferFrom(address,address,uint256[],uint256[],bytes)": "infinite",
            "safeTransferFrom(address,address,uint256,uint256,bytes)": "infinite",
            "setApprovalForAll(address,bool)": "infinite",
            "showCategoryCount(uint256)": "infinite",
            "showItemInCategory(uint256,uint256)": "infinite",
            "showWalletStoreAddress()": "2388",
            "simpleLoopFor(uint256)": "infinite",
            "soldGetReport()": "infinite",
            "supportsInterface(bytes4)": "infinite",
            "symbol()": "infinite",
            "tokenId()": "2397",
            "totalStructs(uint256)": "2496",
            "totalSupply(uint256)": "2494",
            "transferOwnership(address)": "28402",
            "txAuditCnt()": "2418",
            "txAuditDetails(uint256)": "9120",
            "unpause()": "infinite",
            "uri(uint256)": "infinite",
            "uriCatIdTokId(uint256,uint256)": "infinite"
        },
        "internal": {
            "_beforeTokenTransfer(address,address,address,uint256[] memory,uint256[] memory,bytes memory)": "infinite",
            "distribute(uint256)": "24311"
        }
    }
}