{
    "contractName": "LPadMarketplace",
    "abi": [
        {
            "inputs": [],
            "stateMutability": "nonpayable",
            "type": "constructor"
        },
        {
            "anonymous": false,
            "inputs": [
                {
                    "indexed": true,
                    "internalType": "uint256",
                    "name": "marketItemId",
                    "type": "uint256"
                },
                {
                    "indexed": true,
                    "internalType": "address",
                    "name": "nftContract",
                    "type": "address"
                },
                {
                    "indexed": true,
                    "internalType": "uint256",
                    "name": "tokenId",
                    "type": "uint256"
                },
                {
                    "indexed": false,
                    "internalType": "address",
                    "name": "creator",
                    "type": "address"
                },
                {
                    "indexed": false,
                    "internalType": "address",
                    "name": "seller",
                    "type": "address"
                },
                {
                    "indexed": false,
                    "internalType": "address",
                    "name": "owner",
                    "type": "address"
                },
                {
                    "indexed": false,
                    "internalType": "uint256",
                    "name": "price",
                    "type": "uint256"
                },
                {
                    "indexed": false,
                    "internalType": "bool",
                    "name": "sold",
                    "type": "bool"
                },
                {
                    "indexed": false,
                    "internalType": "bool",
                    "name": "canceled",
                    "type": "bool"
                }
            ],
            "name": "MarketItemCreated",
            "type": "event"
        },
        {
            "inputs": [
                {
                    "internalType": "address",
                    "name": "nftContractAddress",
                    "type": "address"
                },
                {
                    "internalType": "uint256",
                    "name": "marketItemId",
                    "type": "uint256"
                }
            ],
            "name": "cancelMarketItem",
            "outputs": [],
            "stateMutability": "payable",
            "type": "function"
        },
        {
            "inputs": [
                {
                    "internalType": "address",
                    "name": "nftContractAddress",
                    "type": "address"
                },
                {
                    "internalType": "uint256",
                    "name": "tokenId",
                    "type": "uint256"
                },
                {
                    "internalType": "uint256",
                    "name": "price",
                    "type": "uint256"
                }
            ],
            "name": "createMarketItem",
            "outputs": [
                {
                    "internalType": "uint256",
                    "name": "",
                    "type": "uint256"
                }
            ],
            "stateMutability": "payable",
            "type": "function"
        },
        {
            "inputs": [
                {
                    "internalType": "address",
                    "name": "nftContractAddress",
                    "type": "address"
                },
                {
                    "internalType": "uint256",
                    "name": "marketItemId",
                    "type": "uint256"
                }
            ],
            "name": "createMarketSale",
            "outputs": [],
            "stateMutability": "payable",
            "type": "function"
        },
        {
            "inputs": [],
            "name": "fetchAvailableMarketItems",
            "outputs": [
                {
                    "components": [
                        {
                            "internalType": "uint256",
                            "name": "marketItemId",
                            "type": "uint256"
                        },
                        {
                            "internalType": "address",
                            "name": "nftContractAddress",
                            "type": "address"
                        },
                        {
                            "internalType": "uint256",
                            "name": "tokenId",
                            "type": "uint256"
                        },
                        {
                            "internalType": "address payable",
                            "name": "creator",
                            "type": "address"
                        },
                        {
                            "internalType": "address payable",
                            "name": "seller",
                            "type": "address"
                        },
                        {
                            "internalType": "address payable",
                            "name": "owner",
                            "type": "address"
                        },
                        {
                            "internalType": "uint256",
                            "name": "price",
                            "type": "uint256"
                        },
                        {
                            "internalType": "bool",
                            "name": "sold",
                            "type": "bool"
                        },
                        {
                            "internalType": "bool",
                            "name": "canceled",
                            "type": "bool"
                        }
                    ],
                    "internalType": "struct LPadMarketplace.MarketItem[]",
                    "name": "",
                    "type": "tuple[]"
                }
            ],
            "stateMutability": "view",
            "type": "function"
        },
        {
            "inputs": [
                {
                    "internalType": "string",
                    "name": "_addressProperty",
                    "type": "string"
                }
            ],
            "name": "fetchMarketItemsByAddressProperty",
            "outputs": [
                {
                    "components": [
                        {
                            "internalType": "uint256",
                            "name": "marketItemId",
                            "type": "uint256"
                        },
                        {
                            "internalType": "address",
                            "name": "nftContractAddress",
                            "type": "address"
                        },
                        {
                            "internalType": "uint256",
                            "name": "tokenId",
                            "type": "uint256"
                        },
                        {
                            "internalType": "address payable",
                            "name": "creator",
                            "type": "address"
                        },
                        {
                            "internalType": "address payable",
                            "name": "seller",
                            "type": "address"
                        },
                        {
                            "internalType": "address payable",
                            "name": "owner",
                            "type": "address"
                        },
                        {
                            "internalType": "uint256",
                            "name": "price",
                            "type": "uint256"
                        },
                        {
                            "internalType": "bool",
                            "name": "sold",
                            "type": "bool"
                        },
                        {
                            "internalType": "bool",
                            "name": "canceled",
                            "type": "bool"
                        }
                    ],
                    "internalType": "struct LPadMarketplace.MarketItem[]",
                    "name": "",
                    "type": "tuple[]"
                }
            ],
            "stateMutability": "view",
            "type": "function"
        },
        {
            "inputs": [],
            "name": "fetchOwnedMarketItems",
            "outputs": [
                {
                    "components": [
                        {
                            "internalType": "uint256",
                            "name": "marketItemId",
                            "type": "uint256"
                        },
                        {
                            "internalType": "address",
                            "name": "nftContractAddress",
                            "type": "address"
                        },
                        {
                            "internalType": "uint256",
                            "name": "tokenId",
                            "type": "uint256"
                        },
                        {
                            "internalType": "address payable",
                            "name": "creator",
                            "type": "address"
                        },
                        {
                            "internalType": "address payable",
                            "name": "seller",
                            "type": "address"
                        },
                        {
                            "internalType": "address payable",
                            "name": "owner",
                            "type": "address"
                        },
                        {
                            "internalType": "uint256",
                            "name": "price",
                            "type": "uint256"
                        },
                        {
                            "internalType": "bool",
                            "name": "sold",
                            "type": "bool"
                        },
                        {
                            "internalType": "bool",
                            "name": "canceled",
                            "type": "bool"
                        }
                    ],
                    "internalType": "struct LPadMarketplace.MarketItem[]",
                    "name": "",
                    "type": "tuple[]"
                }
            ],
            "stateMutability": "view",
            "type": "function"
        },
        {
            "inputs": [],
            "name": "fetchSellingMarketItems",
            "outputs": [
                {
                    "components": [
                        {
                            "internalType": "uint256",
                            "name": "marketItemId",
                            "type": "uint256"
                        },
                        {
                            "internalType": "address",
                            "name": "nftContractAddress",
                            "type": "address"
                        },
                        {
                            "internalType": "uint256",
                            "name": "tokenId",
                            "type": "uint256"
                        },
                        {
                            "internalType": "address payable",
                            "name": "creator",
                            "type": "address"
                        },
                        {
                            "internalType": "address payable",
                            "name": "seller",
                            "type": "address"
                        },
                        {
                            "internalType": "address payable",
                            "name": "owner",
                            "type": "address"
                        },
                        {
                            "internalType": "uint256",
                            "name": "price",
                            "type": "uint256"
                        },
                        {
                            "internalType": "bool",
                            "name": "sold",
                            "type": "bool"
                        },
                        {
                            "internalType": "bool",
                            "name": "canceled",
                            "type": "bool"
                        }
                    ],
                    "internalType": "struct LPadMarketplace.MarketItem[]",
                    "name": "",
                    "type": "tuple[]"
                }
            ],
            "stateMutability": "view",
            "type": "function"
        },
        {
            "inputs": [
                {
                    "internalType": "uint256",
                    "name": "tokenId",
                    "type": "uint256"
                }
            ],
            "name": "getLatestMarketItemByTokenId",
            "outputs": [
                {
                    "components": [
                        {
                            "internalType": "uint256",
                            "name": "marketItemId",
                            "type": "uint256"
                        },
                        {
                            "internalType": "address",
                            "name": "nftContractAddress",
                            "type": "address"
                        },
                        {
                            "internalType": "uint256",
                            "name": "tokenId",
                            "type": "uint256"
                        },
                        {
                            "internalType": "address payable",
                            "name": "creator",
                            "type": "address"
                        },
                        {
                            "internalType": "address payable",
                            "name": "seller",
                            "type": "address"
                        },
                        {
                            "internalType": "address payable",
                            "name": "owner",
                            "type": "address"
                        },
                        {
                            "internalType": "uint256",
                            "name": "price",
                            "type": "uint256"
                        },
                        {
                            "internalType": "bool",
                            "name": "sold",
                            "type": "bool"
                        },
                        {
                            "internalType": "bool",
                            "name": "canceled",
                            "type": "bool"
                        }
                    ],
                    "internalType": "struct LPadMarketplace.MarketItem",
                    "name": "",
                    "type": "tuple"
                },
                {
                    "internalType": "bool",
                    "name": "",
                    "type": "bool"
                }
            ],
            "stateMutability": "view",
            "type": "function"
        },
        {
            "inputs": [],
            "name": "getListingFee",
            "outputs": [
                {
                    "internalType": "uint256",
                    "name": "",
                    "type": "uint256"
                }
            ],
            "stateMutability": "view",
            "type": "function"
        }
    ],
    "bytecode": "6080604052669fdf42f6e4800060055534801561001b57600080fd5b506001600055600480546001600160a01b0319163317905561144f806100426000396000f3fe6080604052600436106100865760003560e01c80636f9b4920116100595780636f9b492014610101578063b3e3c42f1461012f578063b8fe6abe14610144578063c23b139e14610159578063cd90fdf41461016c57600080fd5b80630203c8231461008b5780630e01c969146100b65780634cf2a069146100cb57806358eb2df5146100e0575b600080fd5b34801561009757600080fd5b506100a061018c565b6040516100ad9190611114565b60405180910390f35b3480156100c257600080fd5b506100a06101b9565b3480156100d757600080fd5b506100a061035a565b6100f36100ee36600461116f565b610383565b6040519081526020016100ad565b34801561010d57600080fd5b5061012161011c3660046111a4565b610772565b6040516100ad9291906111bd565b61014261013d3660046111dc565b61085e565b005b34801561015057600080fd5b506005546100f3565b6101426101673660046111dc565b6109f4565b34801561017857600080fd5b506100a061018736600461121e565b610bc7565b60606101b46040518060400160405280600581526020016437bbb732b960d91b815250610bc7565b905090565b606060006101c660015490565b905060006101d360025490565b905060006101e060035490565b90506000816101ef84866112e5565b6101f991906112e5565b905060008167ffffffffffffffff81111561021657610216611208565b60405190808252806020026020018201604052801561024f57816020015b61023c611045565b8152602001906001900390816102345790505b5090506000805b8681101561034e57600060068161026e8460016112f8565b815260208082019290925260409081016000208151610120810183528154815260018201546001600160a01b0390811694820194909452600282015492810192909252600381015483166060830152600481015483166080830152600581015490921660a08201819052600683015460c083015260079092015460ff808216151560e0840152610100918290041615159082015291501561030f575061033c565b808484815181106103225761032261130b565b60209081029190910101526103386001846112f8565b9250505b8061034681611321565b915050610256565b50909695505050505050565b60606101b46040518060400160405280600681526020016539b2b63632b960d11b815250610bc7565b60006002600054036103b05760405162461bcd60e51b81526004016103a79061133a565b60405180910390fd5b6002600055816104025760405162461bcd60e51b815260206004820152601c60248201527f5072696365206d757374206265206174206c656173742031207765690000000060448201526064016103a7565b600554341461045f5760405162461bcd60e51b8152602060048201526024808201527f5072696365206d75737420626520657175616c20746f206c697374696e6720706044820152637269636560e01b60648201526084016103a7565b61046d600180546001019055565b600061047860015490565b60405163867d339760e01b8152600481018690529091506000906001600160a01b0387169063867d339790602401602060405180830381865afa1580156104c3573d6000803e3d6000fd5b505050506040513d601f19601f820116820180604052508101906104e79190611371565b9050604051806101200160405280838152602001876001600160a01b03168152602001868152602001826001600160a01b03168152602001336001600160a01b0316815260200160006001600160a01b0316815260200185815260200160001515815260200160001515815250600660008481526020019081526020016000206000820151816000015560208201518160010160006101000a8154816001600160a01b0302191690836001600160a01b031602179055506040820151816002015560608201518160030160006101000a8154816001600160a01b0302191690836001600160a01b0316021790555060808201518160040160006101000a8154816001600160a01b0302191690836001600160a01b0316021790555060a08201518160050160006101000a8154816001600160a01b0302191690836001600160a01b0316021790555060c0820151816006015560e08201518160070160006101000a81548160ff0219169083151502179055506101008201518160070160016101000a81548160ff021916908315150217905550905050856001600160a01b03166323b872dd3330886040518463ffffffff1660e01b81526004016106cc939291906001600160a01b039384168152919092166020820152604081019190915260600190565b600060405180830381600087803b1580156106e657600080fd5b505af11580156106fa573d6000803e3d6000fd5b5050604080516001600160a01b0385811682523360208301526000828401819052606083018a90526080830181905260a08301529151899450918a16925085917fa3b15201f5409f14cce6233dc60972278c313ff3ddbdee57ff092c0e953135269181900360c00190a4506001600055949350505050565b61077a611045565b60008061078660015490565b9050805b801561084a576000818152600660208181526040928390208351610120810185528154815260018201546001600160a01b03908116938201939093526002820154948101859052600382015483166060820152600482015483166080820152600582015490921660a08301529182015460c082015260079091015460ff808216151560e0840152610100918290041615159082015290861461082c5750610838565b95600195509350505050565b806108428161138e565b91505061078a565b50610853611045565b946000945092505050565b6002600054036108805760405162461bcd60e51b81526004016103a79061133a565b600260008181558281526006602052604090200154806108e25760405162461bcd60e51b815260206004820152601860248201527f4d61726b6574206974656d2068617320746f206578697374000000000000000060448201526064016103a7565b6000828152600660205260409020600401546001600160a01b031633146109445760405162461bcd60e51b81526020600482015260166024820152752cb7ba9030b932903737ba103a34329039b2b63632b960511b60448201526064016103a7565b6040516323b872dd60e01b8152306004820152336024820152604481018290526001600160a01b038416906323b872dd90606401600060405180830381600087803b15801561099257600080fd5b505af11580156109a6573d6000803e3d6000fd5b50505060008381526006602052604090206005810180546001600160a01b03191633179055600701805461ff001916610100179055506109ea600380546001019055565b5050600160005550565b600260005403610a165760405162461bcd60e51b81526004016103a79061133a565b6002600081815582815260066020819052604090912090810154910154348214610a9e5760405162461bcd60e51b815260206004820152603360248201527f506c65617365207375626d6974207468652061736b696e6720707269636520696044820152726e206f7264657220746f20636f6e74696e756560681b60648201526084016103a7565b6000838152600660205260408082206005810180546001600160a01b0319163317905560078101805460ff191660011790556004015490516001600160a01b0391909116913480156108fc02929091818181858888f19350505050158015610b0a573d6000803e3d6000fd5b506040516323b872dd60e01b8152306004820152336024820152604481018290526001600160a01b038516906323b872dd90606401600060405180830381600087803b158015610b5957600080fd5b505af1158015610b6d573d6000803e3d6000fd5b50505050610b7f600280546001019055565b6004546005546040516001600160a01b039092169181156108fc0291906000818181858888f19350505050158015610bbb573d6000803e3d6000fd5b50506001600055505050565b6060610bf1826040518060400160405280600681526020016539b2b63632b960d11b815250610f35565b80610c1e5750610c1e826040518060400160405280600581526020016437bbb732b960d91b815250610f35565b610c3a5760405162461bcd60e51b81526004016103a7906113a5565b6000610c4560015490565b905060008060005b83811015610d40576000600681610c658460016112f8565b8152602080820192909252604090810160009081208251610120810184528154815260018201546001600160a01b0390811695820195909552600282015493810193909352600381015484166060840152600481015484166080840152600581015490931660a0830152600683015460c0830152600783015460ff808216151560e08501526101009182900416151590830152919250610d059089610f8f565b90506001600160a01b0381163314610d1e575050610d2e565b610d296001866112f8565b945050505b80610d3881611321565b915050610c4d565b5060008267ffffffffffffffff811115610d5c57610d5c611208565b604051908082528060200260200182016040528015610d9557816020015b610d82611045565b815260200190600190039081610d7a5790505b50905060005b84811015610f2b576000600681610db38460016112f8565b8152602080820192909252604090810160009081208251610120810184528154815260018201546001600160a01b0390811695820195909552600282015493810193909352600381015484166060840152600481015484166080840152600581015490931660a0830152600683015460c0830152600783015460ff808216151560e08501526101009182900416151590830152919250610e53908a610f8f565b90506001600160a01b0381163314610e6c575050610f19565b60408051610120810182528354815260018401546001600160a01b039081166020830152600285015492820192909252600384015482166060820152600484015482166080820152600584015490911660a0820152600683015460c0820152600783015460ff808216151560e084015261010091829004161515908201528451859087908110610efe57610efe61130b565b6020908102919091010152610f146001866112f8565b945050505b80610f2381611321565b915050610d9b565b5095945050505050565b600081604051602001610f4891906113ea565b6040516020818303038152906040528051906020012083604051602001610f6f91906113ea565b604051602081830303815290604052805190602001201490505b92915050565b6000610fb9826040518060400160405280600681526020016539b2b63632b960d11b815250610f35565b80610fe65750610fe6826040518060400160405280600581526020016437bbb732b960d91b815250610f35565b6110025760405162461bcd60e51b81526004016103a7906113a5565b61102a826040518060400160405280600681526020016539b2b63632b960d11b815250610f35565b611038578260a0015161103e565b82608001515b9392505050565b6040805161012081018252600080825260208201819052918101829052606081018290526080810182905260a0810182905260c0810182905260e0810182905261010081019190915290565b80518252602081015160018060a01b03808216602085015260408301516040850152806060840151166060850152806080840151166080850152505060a08101516110e760a08401826001600160a01b03169052565b5060c081015160c083015260e081015161110560e084018215159052565b50610100908101511515910152565b6020808252825182820181905260009190848201906040850190845b8181101561034e57611143838551611091565b928401926101209290920191600101611130565b6001600160a01b038116811461116c57600080fd5b50565b60008060006060848603121561118457600080fd5b833561118f81611157565b95602085013595506040909401359392505050565b6000602082840312156111b657600080fd5b5035919050565b61014081016111cc8285611091565b8215156101208301529392505050565b600080604083850312156111ef57600080fd5b82356111fa81611157565b946020939093013593505050565b634e487b7160e01b600052604160045260246000fd5b60006020828403121561123057600080fd5b813567ffffffffffffffff8082111561124857600080fd5b818401915084601f83011261125c57600080fd5b81358181111561126e5761126e611208565b604051601f8201601f19908116603f0116810190838211818310171561129657611296611208565b816040528281528760208487010111156112af57600080fd5b826020860160208301376000928101602001929092525095945050505050565b634e487b7160e01b600052601160045260246000fd5b81810381811115610f8957610f896112cf565b80820180821115610f8957610f896112cf565b634e487b7160e01b600052603260045260246000fd5b600060018201611333576113336112cf565b5060010190565b6020808252601f908201527f5265656e7472616e637947756172643a207265656e7472616e742063616c6c00604082015260600190565b60006020828403121561138357600080fd5b815161103e81611157565b60008161139d5761139d6112cf565b506000190190565b60208082526025908201527f506172616d65746572206d757374206265202773656c6c657227206f7220276f604082015264776e65722760d81b606082015260800190565b6000825160005b8181101561140b57602081860181015185830152016113f1565b50600092019182525091905056fea2646970667358221220c84cce82ab25bcec4f2adc0a490fcc960a27a7b7f6788c33e4ce8928c8e99bef64736f6c63430008110033",
    "sourcePath": "d:/repos/lpad/repos/dapp/contracts/src/contracts/Nft.Market/LpadMarketplace.sol",
    "compiler": {
        "name": "solc",
        "version": "0.8.19+commit.8df45f5f"
    },
    "functionHashes": {
        "cancelMarketItem(address,uint256)": "b3e3c42f",
        "createMarketItem(address,uint256,uint256)": "58eb2df5",
        "createMarketSale(address,uint256)": "c23b139e",
        "fetchAvailableMarketItems()": "0e01c969",
        "fetchMarketItemsByAddressProperty(string)": "cd90fdf4",
        "fetchOwnedMarketItems()": "0203c823",
        "fetchSellingMarketItems()": "4cf2a069",
        "getLatestMarketItemByTokenId(uint256)": "6f9b4920",
        "getListingFee()": "b8fe6abe"
    },
    "gasEstimates": {
        "creation": {
            "codeDepositCost": "1039800",
            "executionCost": "69527",
            "totalCost": "1109327"
        },
        "external": {
            "cancelMarketItem(address,uint256)": "infinite",
            "createMarketItem(address,uint256,uint256)": "infinite",
            "createMarketSale(address,uint256)": "infinite",
            "fetchAvailableMarketItems()": "infinite",
            "fetchMarketItemsByAddressProperty(string)": "infinite",
            "fetchOwnedMarketItems()": "infinite",
            "fetchSellingMarketItems()": "infinite",
            "getLatestMarketItemByTokenId(uint256)": "infinite",
            "getListingFee()": "2336"
        },
        "internal": {
            "compareStrings(string memory,string memory)": "infinite",
            "getMarketItemAddressByProperty(struct LPadMarketplace.MarketItem memory,string memory)": "infinite"
        }
    }
}