{
    "contractName": "LPadMultiPoolStaking",
    "abi": [
        {
            "inputs": [],
            "stateMutability": "nonpayable",
            "type": "constructor"
        },
        {
            "anonymous": false,
            "inputs": [
                {
                    "indexed": false,
                    "internalType": "address",
                    "name": "owner",
                    "type": "address"
                }
            ],
            "name": "OwnershipTransferred",
            "type": "event"
        },
        {
            "anonymous": false,
            "inputs": [
                {
                    "indexed": false,
                    "internalType": "uint256",
                    "name": "pid",
                    "type": "uint256"
                },
                {
                    "indexed": true,
                    "internalType": "address",
                    "name": "user",
                    "type": "address"
                },
                {
                    "indexed": true,
                    "internalType": "address",
                    "name": "nftAddress",
                    "type": "address"
                },
                {
                    "indexed": false,
                    "internalType": "uint256",
                    "name": "tokenId",
                    "type": "uint256"
                }
            ],
            "name": "Stake",
            "type": "event"
        },
        {
            "anonymous": false,
            "inputs": [
                {
                    "indexed": false,
                    "internalType": "uint256",
                    "name": "pid",
                    "type": "uint256"
                },
                {
                    "indexed": true,
                    "internalType": "address",
                    "name": "user",
                    "type": "address"
                },
                {
                    "indexed": true,
                    "internalType": "address",
                    "name": "nftAddress",
                    "type": "address"
                },
                {
                    "indexed": false,
                    "internalType": "uint256",
                    "name": "tokenId",
                    "type": "uint256"
                }
            ],
            "name": "UnStake",
            "type": "event"
        },
        {
            "inputs": [
                {
                    "internalType": "address",
                    "name": "_rewardTokenAddress",
                    "type": "address"
                },
                {
                    "internalType": "uint256",
                    "name": "_rewardPerBlock",
                    "type": "uint256"
                },
                {
                    "internalType": "uint256",
                    "name": "_lockTime",
                    "type": "uint256"
                },
                {
                    "internalType": "bool",
                    "name": "_sellable",
                    "type": "bool"
                }
            ],
            "name": "add",
            "outputs": [],
            "stateMutability": "nonpayable",
            "type": "function"
        },
        {
            "inputs": [
                {
                    "internalType": "address",
                    "name": "adr",
                    "type": "address"
                }
            ],
            "name": "authorize",
            "outputs": [],
            "stateMutability": "nonpayable",
            "type": "function"
        },
        {
            "inputs": [
                {
                    "internalType": "uint256",
                    "name": "_pid",
                    "type": "uint256"
                },
                {
                    "internalType": "uint256",
                    "name": "_lockTime",
                    "type": "uint256"
                }
            ],
            "name": "changeLockTime",
            "outputs": [],
            "stateMutability": "nonpayable",
            "type": "function"
        },
        {
            "inputs": [
                {
                    "internalType": "uint256",
                    "name": "_pid",
                    "type": "uint256"
                },
                {
                    "internalType": "bool",
                    "name": "_sell",
                    "type": "bool"
                }
            ],
            "name": "changePoolInfoSell",
            "outputs": [],
            "stateMutability": "nonpayable",
            "type": "function"
        },
        {
            "inputs": [
                {
                    "internalType": "uint256",
                    "name": "_pid",
                    "type": "uint256"
                },
                {
                    "internalType": "address",
                    "name": "_rewardTokenAddress",
                    "type": "address"
                }
            ],
            "name": "changeRewardTokenAddress",
            "outputs": [],
            "stateMutability": "nonpayable",
            "type": "function"
        },
        {
            "inputs": [
                {
                    "internalType": "uint256",
                    "name": "_pid",
                    "type": "uint256"
                },
                {
                    "internalType": "uint256",
                    "name": "_rewardPerBlock",
                    "type": "uint256"
                }
            ],
            "name": "changeRewardTokenPerDay",
            "outputs": [],
            "stateMutability": "nonpayable",
            "type": "function"
        },
        {
            "inputs": [
                {
                    "internalType": "uint256",
                    "name": "_pid",
                    "type": "uint256"
                }
            ],
            "name": "claim",
            "outputs": [],
            "stateMutability": "nonpayable",
            "type": "function"
        },
        {
            "inputs": [],
            "name": "claimAll",
            "outputs": [],
            "stateMutability": "nonpayable",
            "type": "function"
        },
        {
            "inputs": [],
            "name": "claimFee",
            "outputs": [
                {
                    "internalType": "uint256",
                    "name": "",
                    "type": "uint256"
                }
            ],
            "stateMutability": "view",
            "type": "function"
        },
        {
            "inputs": [
                {
                    "internalType": "uint256",
                    "name": "amount",
                    "type": "uint256"
                }
            ],
            "name": "emergencyWithdraw",
            "outputs": [],
            "stateMutability": "nonpayable",
            "type": "function"
        },
        {
            "inputs": [
                {
                    "internalType": "uint256",
                    "name": "_pid",
                    "type": "uint256"
                },
                {
                    "internalType": "uint256",
                    "name": "_amount",
                    "type": "uint256"
                }
            ],
            "name": "emergencyWithdrawToken",
            "outputs": [],
            "stateMutability": "nonpayable",
            "type": "function"
        },
        {
            "inputs": [
                {
                    "internalType": "uint256",
                    "name": "_pid",
                    "type": "uint256"
                },
                {
                    "internalType": "address",
                    "name": "_user",
                    "type": "address"
                },
                {
                    "internalType": "address",
                    "name": "_nftAddress",
                    "type": "address"
                },
                {
                    "internalType": "uint256",
                    "name": "_tokenId",
                    "type": "uint256"
                }
            ],
            "name": "getStakingItemInfo",
            "outputs": [
                {
                    "internalType": "bool",
                    "name": "_isStaked",
                    "type": "bool"
                },
                {
                    "internalType": "uint256",
                    "name": "_startBlock",
                    "type": "uint256"
                }
            ],
            "stateMutability": "view",
            "type": "function"
        },
        {
            "inputs": [
                {
                    "internalType": "uint256",
                    "name": "_pid",
                    "type": "uint256"
                },
                {
                    "internalType": "address",
                    "name": "_user",
                    "type": "address"
                }
            ],
            "name": "getUserInfo",
            "outputs": [
                {
                    "components": [
                        {
                            "internalType": "address",
                            "name": "nftAddress",
                            "type": "address"
                        },
                        {
                            "internalType": "uint256",
                            "name": "tokenId",
                            "type": "uint256"
                        },
                        {
                            "internalType": "uint256",
                            "name": "startBlock",
                            "type": "uint256"
                        }
                    ],
                    "internalType": "struct LPadMultiPoolStaking.StakingInfo[]",
                    "name": "",
                    "type": "tuple[]"
                }
            ],
            "stateMutability": "view",
            "type": "function"
        },
        {
            "inputs": [
                {
                    "internalType": "address",
                    "name": "adr",
                    "type": "address"
                }
            ],
            "name": "isAuthorized",
            "outputs": [
                {
                    "internalType": "bool",
                    "name": "",
                    "type": "bool"
                }
            ],
            "stateMutability": "view",
            "type": "function"
        },
        {
            "inputs": [
                {
                    "internalType": "address",
                    "name": "account",
                    "type": "address"
                }
            ],
            "name": "isOwner",
            "outputs": [
                {
                    "internalType": "bool",
                    "name": "",
                    "type": "bool"
                }
            ],
            "stateMutability": "view",
            "type": "function"
        },
        {
            "inputs": [],
            "name": "mainToken",
            "outputs": [
                {
                    "internalType": "address",
                    "name": "",
                    "type": "address"
                }
            ],
            "stateMutability": "view",
            "type": "function"
        },
        {
            "inputs": [],
            "name": "owner",
            "outputs": [
                {
                    "internalType": "address",
                    "name": "",
                    "type": "address"
                }
            ],
            "stateMutability": "view",
            "type": "function"
        },
        {
            "inputs": [
                {
                    "internalType": "uint256",
                    "name": "_pid",
                    "type": "uint256"
                },
                {
                    "internalType": "address",
                    "name": "_user",
                    "type": "address"
                },
                {
                    "internalType": "address",
                    "name": "_nftAddress",
                    "type": "address"
                },
                {
                    "internalType": "uint256",
                    "name": "_tokenId",
                    "type": "uint256"
                }
            ],
            "name": "pendingReward",
            "outputs": [
                {
                    "internalType": "uint256",
                    "name": "",
                    "type": "uint256"
                }
            ],
            "stateMutability": "view",
            "type": "function"
        },
        {
            "inputs": [
                {
                    "internalType": "uint256",
                    "name": "_pid",
                    "type": "uint256"
                },
                {
                    "internalType": "address",
                    "name": "_user",
                    "type": "address"
                }
            ],
            "name": "pendingTotalReward",
            "outputs": [
                {
                    "internalType": "uint256",
                    "name": "",
                    "type": "uint256"
                }
            ],
            "stateMutability": "view",
            "type": "function"
        },
        {
            "inputs": [
                {
                    "internalType": "uint256",
                    "name": "",
                    "type": "uint256"
                }
            ],
            "name": "poolInfos",
            "outputs": [
                {
                    "internalType": "address",
                    "name": "rewardToken",
                    "type": "address"
                },
                {
                    "internalType": "uint256",
                    "name": "rewardPerBlock",
                    "type": "uint256"
                },
                {
                    "internalType": "uint256",
                    "name": "lockTime",
                    "type": "uint256"
                },
                {
                    "internalType": "bool",
                    "name": "sell",
                    "type": "bool"
                },
                {
                    "internalType": "bool",
                    "name": "isPaused",
                    "type": "bool"
                }
            ],
            "stateMutability": "view",
            "type": "function"
        },
        {
            "inputs": [],
            "name": "renounceOwnership",
            "outputs": [],
            "stateMutability": "nonpayable",
            "type": "function"
        },
        {
            "inputs": [
                {
                    "internalType": "uint256",
                    "name": "_newFee",
                    "type": "uint256"
                }
            ],
            "name": "setClaimFee",
            "outputs": [],
            "stateMutability": "nonpayable",
            "type": "function"
        },
        {
            "inputs": [
                {
                    "internalType": "address",
                    "name": "_address",
                    "type": "address"
                }
            ],
            "name": "setMainToken",
            "outputs": [],
            "stateMutability": "nonpayable",
            "type": "function"
        },
        {
            "inputs": [
                {
                    "internalType": "uint256",
                    "name": "_pid",
                    "type": "uint256"
                },
                {
                    "internalType": "bool",
                    "name": "_isPaused",
                    "type": "bool"
                }
            ],
            "name": "setPoolPaused",
            "outputs": [],
            "stateMutability": "nonpayable",
            "type": "function"
        },
        {
            "inputs": [
                {
                    "internalType": "uint256",
                    "name": "_newFee",
                    "type": "uint256"
                }
            ],
            "name": "setStakingFee",
            "outputs": [],
            "stateMutability": "nonpayable",
            "type": "function"
        },
        {
            "inputs": [
                {
                    "internalType": "uint256",
                    "name": "_pid",
                    "type": "uint256"
                },
                {
                    "internalType": "address",
                    "name": "_nftAddress",
                    "type": "address"
                },
                {
                    "internalType": "uint256[]",
                    "name": "tokenIds",
                    "type": "uint256[]"
                }
            ],
            "name": "stake",
            "outputs": [],
            "stateMutability": "payable",
            "type": "function"
        },
        {
            "inputs": [],
            "name": "stakingFee",
            "outputs": [
                {
                    "internalType": "uint256",
                    "name": "",
                    "type": "uint256"
                }
            ],
            "stateMutability": "view",
            "type": "function"
        },
        {
            "inputs": [
                {
                    "internalType": "address payable",
                    "name": "adr",
                    "type": "address"
                }
            ],
            "name": "transferOwnership",
            "outputs": [],
            "stateMutability": "nonpayable",
            "type": "function"
        },
        {
            "inputs": [
                {
                    "internalType": "address",
                    "name": "adr",
                    "type": "address"
                }
            ],
            "name": "unauthorize",
            "outputs": [],
            "stateMutability": "nonpayable",
            "type": "function"
        },
        {
            "inputs": [],
            "name": "uniswapV2Router",
            "outputs": [
                {
                    "internalType": "contract IUniswapV2Router02",
                    "name": "",
                    "type": "address"
                }
            ],
            "stateMutability": "view",
            "type": "function"
        },
        {
            "inputs": [
                {
                    "internalType": "uint256",
                    "name": "_pid",
                    "type": "uint256"
                },
                {
                    "internalType": "address",
                    "name": "_nftAddress",
                    "type": "address"
                },
                {
                    "internalType": "uint256[]",
                    "name": "tokenIds",
                    "type": "uint256[]"
                }
            ],
            "name": "unstake",
            "outputs": [],
            "stateMutability": "nonpayable",
            "type": "function"
        },
        {
            "inputs": [
                {
                    "internalType": "uint256",
                    "name": "",
                    "type": "uint256"
                },
                {
                    "internalType": "address",
                    "name": "",
                    "type": "address"
                },
                {
                    "internalType": "uint256",
                    "name": "",
                    "type": "uint256"
                }
            ],
            "name": "userInfos",
            "outputs": [
                {
                    "internalType": "address",
                    "name": "nftAddress",
                    "type": "address"
                },
                {
                    "internalType": "uint256",
                    "name": "tokenId",
                    "type": "uint256"
                },
                {
                    "internalType": "uint256",
                    "name": "startBlock",
                    "type": "uint256"
                }
            ],
            "stateMutability": "view",
            "type": "function"
        },
        {
            "stateMutability": "payable",
            "type": "receive"
        }
    ],
    "bytecode": "60806040526a013da329b6336471800000600655600260075534801561002457600080fd5b50600080546001600160a01b0319163390811782558152600160208190526040909120805460ff191690911790556123e0806100616000396000f3fe6080604052600436106101e75760003560e01c80637223c8c911610102578063c04aff2e11610095578063eff9884311610064578063eff9884314610615578063f0b37c041461062b578063f2fde38b1461064b578063fe9fbb801461066b57600080fd5b8063c04aff2e146105a0578063d1058e59146105c0578063d902e4fc146105d5578063e4a76315146105f557600080fd5b8063a9e3ddc9116100d1578063a9e3ddc91461052d578063b3288dbb1461054d578063b6a5d7de1461056d578063b809e01b1461058d57600080fd5b80637223c8c91461046d5780638702e3d2146104b25780638da5cb5b146104e957806399d32fc41461050957600080fd5b8063410dbf7e1161017a5780635312ea8e116101495780635312ea8e146103c2578063689d84e4146103e25780636a3e224c14610438578063715018a61461045857600080fd5b8063410dbf7e1461034257806343db13491461036257806348de7a481461038257806350211b67146103a257600080fd5b80632f54bf6e116101b65780632f54bf6e146102a3578063379607f5146102e25780633c5e561a146103025780633fc15f151461032257600080fd5b80631069f3b5146101f35780631694505e1461022957806327ce464e146102615780632e75ab501461028357600080fd5b366101ee57005b600080fd5b3480156101ff57600080fd5b5061021361020e366004611f35565b61068b565b6040516102209190611f65565b60405180910390f35b34801561023557600080fd5b50600254610249906001600160a01b031681565b6040516001600160a01b039091168152602001610220565b34801561026d57600080fd5b5061028161027c366004611fc7565b6107ea565b005b34801561028f57600080fd5b5061028161029e366004611fe4565b61083a565b3480156102af57600080fd5b506102d26102be366004611fc7565b6000546001600160a01b0391821691161490565b6040519015158152602001610220565b3480156102ee57600080fd5b506102816102fd366004611fe4565b610864565b34801561030e57600080fd5b5061028161031d36600461200b565b6109b0565b34801561032e57600080fd5b50600354610249906001600160a01b031681565b34801561034e57600080fd5b5061028161035d366004611fe4565b610a11565b34801561036e57600080fd5b5061028161037d366004612030565b610a3b565b34801561038e57600080fd5b5061028161039d366004611f35565b610a90565b3480156103ae57600080fd5b506102816103bd36600461200b565b610afd565b3480156103ce57600080fd5b506102816103dd366004611fe4565b610b65565b3480156103ee57600080fd5b506104026103fd366004611fe4565b610c68565b604080516001600160a01b039096168652602086019490945292840191909152151560608301521515608082015260a001610220565b34801561044457600080fd5b50610281610453366004612030565b610cb8565b34801561046457600080fd5b50610281610d7a565b34801561047957600080fd5b5061048d610488366004612052565b610ded565b604080516001600160a01b039094168452602084019290925290820152606001610220565b3480156104be57600080fd5b506104d26104cd36600461208a565b610e47565b604080519215158352602083019190915201610220565b3480156104f557600080fd5b50600054610249906001600160a01b031681565b34801561051557600080fd5b5061051f60075481565b604051908152602001610220565b34801561053957600080fd5b506102816105483660046120e8565b610f8f565b34801561055957600080fd5b5061051f610568366004611f35565b61132b565b34801561057957600080fd5b50610281610588366004611fc7565b611421565b61028161059b3660046120e8565b61146d565b3480156105ac57600080fd5b5061051f6105bb36600461208a565b611981565b3480156105cc57600080fd5b50610281611a3d565b3480156105e157600080fd5b506102816105f0366004612030565b611a68565b34801561060157600080fd5b506102816106103660046121c4565b611abd565b34801561062157600080fd5b5061051f60065481565b34801561063757600080fd5b50610281610646366004611fc7565b611bfc565b34801561065757600080fd5b50610281610666366004611fc7565b611c42565b34801561067757600080fd5b506102d2610686366004611fc7565b611ccd565b60008281526004602090815260408083206001600160a01b03851684529091528120546060918167ffffffffffffffff8111156106ca576106ca6120d2565b60405190808252806020026020018201604052801561072857816020015b610715604051806060016040528060006001600160a01b0316815260200160008152602001600081525090565b8152602001906001900390816106e85790505b50905060005b828110156107df5760008681526004602090815260408083206001600160a01b0389168452909152902080548290811061076a5761076a61220e565b600091825260209182902060408051606081018252600390930290910180546001600160a01b031683526001810154938301939093526002909201549181019190915282518390839081106107c1576107c161220e565b602002602001018190525080806107d79061223a565b91505061072e565b509150505b92915050565b6107f333611ccd565b6108185760405162461bcd60e51b815260040161080f90612253565b60405180910390fd5b600380546001600160a01b0319166001600160a01b0392909216919091179055565b61084333611ccd565b61085f5760405162461bcd60e51b815260040161080f90612253565b600755565b6000600582815481106108795761087961220e565b9060005260206000209060040201905060006064600754606461089c9190612278565b6108a6853361132b565b6108b0919061228b565b6108ba91906122a2565b905060005b6000848152600460209081526040808320338452909152902054811015610934576000848152600460209081526040808320338452909152902080544291908390811061090e5761090e61220e565b60009182526020909120600260039092020101558061092c8161223a565b9150506108bf565b50815460405163a9059cbb60e01b8152336004820152602481018390526001600160a01b039091169063a9059cbb906044015b6020604051808303816000875af1158015610986573d6000803e3d6000fd5b505050506040513d601f19601f820116820180604052508101906109aa91906122c4565b50505050565b6109b933611ccd565b6109d55760405162461bcd60e51b815260040161080f90612253565b6000600583815481106109ea576109ea61220e565b60009182526020909120600490910201600301805460ff1916921515929092179091555050565b610a1a33611ccd565b610a365760405162461bcd60e51b815260040161080f90612253565b600655565b610a4433611ccd565b610a605760405162461bcd60e51b815260040161080f90612253565b600060058381548110610a7557610a7561220e565b60009182526020909120600260049092020101919091555050565b610a9933611ccd565b610ab55760405162461bcd60e51b815260040161080f90612253565b600060058381548110610aca57610aca61220e565b6000918252602090912060049091020180546001600160a01b0319166001600160a01b0393909316929092179091555050565b610b0633611ccd565b610b225760405162461bcd60e51b815260040161080f90612253565b600060058381548110610b3757610b3761220e565b6000918252602090912060036004909202010180549215156101000261ff0019909316929092179091555050565b610b6e33611ccd565b610b8a5760405162461bcd60e51b815260040161080f90612253565b478115801590610b9a5750808211155b610bd85760405162461bcd60e51b815260206004820152600f60248201526e43616e6e6f7420776974686472617760881b604482015260640161080f565b604051600090339084908381818185875af1925050503d8060008114610c1a576040519150601f19603f3d011682016040523d82523d6000602084013e610c1f565b606091505b5050905080610c635760405162461bcd60e51b815260206004820152601060248201526f5769746864726177206661696c65642160801b604482015260640161080f565b505050565b60058181548110610c7857600080fd5b600091825260209091206004909102018054600182015460028301546003909301546001600160a01b039092169350919060ff8082169161010090041685565b610cc133611ccd565b610cdd5760405162461bcd60e51b815260040161080f90612253565b600060058381548110610cf257610cf261220e565b60009182526020918290206040805160a081018252600493840290920180546001600160a01b03168084526001820154958401959095526002810154838301526003015460ff8082161515606085015261010090910416151560808301525163a9059cbb60e01b8152339281019290925260248201859052925063a9059cbb90604401610967565b610d8333611ccd565b610d9f5760405162461bcd60e51b815260040161080f90612253565b600080546001600160a01b03191661dead9081179091556040518181527f04dba622d284ed0014ee4b9a6a68386be1a4c08a4913ae272de89199cc686163906020015b60405180910390a150565b60046020528260005260406000206020528160005260406000208181548110610e1557600080fd5b60009182526020909120600390910201805460018201546002909201546001600160a01b039091169450909250905083565b60008060005b60008781526004602090815260408083206001600160a01b038a168452909152902054811015610f855760008781526004602090815260408083206001600160a01b038a1684529091529020805485919083908110610eae57610eae61220e565b906000526020600020906003020160010154148015610f1d575060008781526004602090815260408083206001600160a01b038a81168552925290912080549187169183908110610f0157610f0161220e565b60009182526020909120600390910201546001600160a01b0316145b15610f735760008781526004602090815260408083206001600160a01b038a168452909152902080546001945082908110610f5a57610f5a61220e565b9060005260206000209060030201600201549150610f85565b80610f7d8161223a565b915050610e4d565b5094509492505050565b600060058481548110610fa457610fa461220e565b906000526020600020906004020190506000805b835181101561122f576000610fe8873388888681518110610fdb57610fdb61220e565b6020026020010151610e47565b50905080610ff6575061121d565b600384015460ff1680156110a35750306001600160a01b0316866001600160a01b0316636352211e8785815181106110305761103061220e565b60200260200101516040518263ffffffff1660e01b815260040161105691815260200190565b602060405180830381865afa158015611073573d6000803e3d6000fd5b505050506040513d601f19601f8201168201806040525081019061109791906122e1565b6001600160a01b031614155b156110ae575061121d565b60006110d58833898987815181106110c8576110c861220e565b6020026020010151611981565b90506110e18482611ceb565b93506111088833898987815181106110fb576110fb61220e565b6020026020010151611cfe565b600385015460ff16156111ab57866001600160a01b03166323b872dd30338987815181106111385761113861220e565b60209081029190910101516040516001600160e01b031960e086901b1681526001600160a01b0393841660048201529290911660248301526044820152606401600060405180830381600087803b15801561119257600080fd5b505af11580156111a6573d6000803e3d6000fd5b505050505b866001600160a01b0316336001600160a01b03167fc544f856c32130d17b1c425626be0a3f8d4d0d4dbd9dc7522f3e210ca8f733e18a8987815181106111f3576111f361220e565b6020026020010151604051611212929190918252602082015260400190565b60405180910390a350505b806112278161223a565b915050610fb8565b506000811180156112a9575081546040516370a0823160e01b815230600482015282916001600160a01b0316906370a0823190602401602060405180830381865afa158015611282573d6000803e3d6000fd5b505050506040513d601f19601f820116820180604052508101906112a691906122fe565b10155b1561132457815460405163a9059cbb60e01b8152336004820152602481018390526001600160a01b039091169063a9059cbb906044016020604051808303816000875af11580156112fe573d6000803e3d6000fd5b505050506040513d601f19601f8201168201806040525081019061132291906122c4565b505b5050505050565b600080805b60008581526004602090815260408083206001600160a01b03881684529091529020548110156114195760008581526004602090815260408083206001600160a01b0388168452909152812080546113f7918891889190869081106113975761139761220e565b600091825260208083206003909202909101548b83526004825260408084206001600160a01b038d8116865293529092208054919092169190879081106113e0576113e061220e565b906000526020600020906003020160010154611981565b90506114038382611ceb565b92505080806114119061223a565b915050611330565b509392505050565b61142a33611ccd565b6114465760405162461bcd60e51b815260040161080f90612253565b6001600160a01b03166000908152600160208190526040909120805460ff19169091179055565b6000600584815481106114825761148261220e565b600091825260209091206004909102016003810154909150610100900460ff16156114ef5760405162461bcd60e51b815260206004820152601a60248201527f43616e6e6f74207374616b6520746f207468697320706f6f6c2e000000000000604482015260640161080f565b6006543410156115335760405162461bcd60e51b815260206004820152600f60248201526e4e65656420746f207061792066656560881b604482015260640161080f565b80546001600160a01b03166115795760405162461bcd60e51b815260206004820152600c60248201526b4e6f20506f6f6c20496e666f60a01b604482015260640161080f565b6040805160028082526060820183526000926020830190803683375050600254604080516315ab88c960e31b815290519394506001600160a01b039091169263ad5c4648925060048083019260209291908290030181865afa1580156115e3573d6000803e3d6000fd5b505050506040513d601f19601f8201168201806040525081019061160791906122e1565b8160008151811061161a5761161a61220e565b6001600160a01b03928316602091820292909201015260035482519116908290600190811061164b5761164b61220e565b6001600160a01b0392831660209182029290920101526002541663b6f9de95346000843061167b4261012c611ceb565b6040518663ffffffff1660e01b815260040161169a9493929190612317565b6000604051808303818588803b1580156116b357600080fd5b505af11580156116c7573d6000803e3d6000fd5b505050505060005b83518110156113225760006116f2873388888681518110610fdb57610fdb61220e565b5090508015611701575061196f565b336001600160a01b0316866001600160a01b0316636352211e87858151811061172c5761172c61220e565b60200260200101516040518263ffffffff1660e01b815260040161175291815260200190565b602060405180830381865afa15801561176f573d6000803e3d6000fd5b505050506040513d601f19601f8201168201806040525081019061179391906122e1565b6001600160a01b0316146117a7575061196f565b600384015460ff161561184a57856001600160a01b03166323b872dd33308886815181106117d7576117d761220e565b60209081029190910101516040516001600160e01b031960e086901b1681526001600160a01b0393841660048201529290911660248301526044820152606401600060405180830381600087803b15801561183157600080fd5b505af1158015611845573d6000803e3d6000fd5b505050505b611877604051806060016040528060006001600160a01b0316815260200160008152602001600081525090565b8583815181106118895761188961220e565b6020908102919091018101518282019081524260408085019182526001600160a01b038b811680875260008e8152600487528381203380835290885293812080546001808201835591835297909120885160039098020180546001600160a01b03191697909316969096178255935194810194909455905160029093019290925587519091907ff7373f56c201647feae85a62d3cf56286ed3a43d20c5eb7f9883d6ea690ef7c0908b908a90889081106119455761194561220e565b6020026020010151604051611964929190918252602082015260400190565b60405180910390a350505b806119798161223a565b9150506116cf565b600080600586815481106119975761199761220e565b906000526020600020906004020190506000806119b688888888610e47565b91509150816119cb5760009350505050611a35565b600283015442906000906119df8385611efc565b1115611a055760018501546119fe906119f88486611efc565b90611f08565b9050611a2e565b611a2b6002611a2587600101546119f88787611efc90919063ffffffff16565b90611f14565b90505b9450505050505b949350505050565b60005b600554811015611a6557611a5381610864565b80611a5d8161223a565b915050611a40565b50565b611a7133611ccd565b611a8d5760405162461bcd60e51b815260040161080f90612253565b600060058381548110611aa257611aa261220e565b60009182526020909120600160049092020101919091555050565b611ac633611ccd565b611ae25760405162461bcd60e51b815260040161080f90612253565b6040805160a0810182526000608082018181526001600160a01b039788168352602083019687529282019485529215156060820190815260058054600181018255945290517f036b6384b5eca791c62761152d0c79bb0604c104a5fb6f4eb0703f3154bb3db0600490940293840180546001600160a01b031916919097161790955592517f036b6384b5eca791c62761152d0c79bb0604c104a5fb6f4eb0703f3154bb3db182015590517f036b6384b5eca791c62761152d0c79bb0604c104a5fb6f4eb0703f3154bb3db282015591517f036b6384b5eca791c62761152d0c79bb0604c104a5fb6f4eb0703f3154bb3db39092018054915161ffff1990921692151561ff0019169290921761010091151591909102179055565b611c0533611ccd565b611c215760405162461bcd60e51b815260040161080f90612253565b6001600160a01b03166000908152600160205260409020805460ff19169055565b611c4b33611ccd565b611c675760405162461bcd60e51b815260040161080f90612253565b600080546001600160a01b0319166001600160a01b038316908117825580825260016020818152604093849020805460ff191690921790915591519081527f04dba622d284ed0014ee4b9a6a68386be1a4c08a4913ae272de89199cc6861639101610de2565b6001600160a01b031660009081526001602052604090205460ff1690565b6000611cf78284612381565b9392505050565b60005b60008581526004602090815260408083203384529091529020548110156113245760008581526004602090815260408083206001600160a01b03881684529091529020805483919083908110611d5957611d5961220e565b906000526020600020906003020160010154148015611dc8575060008581526004602090815260408083206001600160a01b038881168552925290912080549185169183908110611dac57611dac61220e565b60009182526020909120600390910201546001600160a01b0316145b15611eea5760008581526004602090815260408083206001600160a01b038816845290915290208054611dfd90600190612278565b81548110611e0d57611e0d61220e565b600091825260208083208884526004825260408085206001600160a01b038a168652909252922080546003909202909201919083908110611e5057611e5061220e565b60009182526020808320845460039093020180546001600160a01b0319166001600160a01b03938416178155600180860154908201556002948501549401939093558782526004835260408083209188168352925220805480611eb557611eb5612394565b60008281526020812060036000199093019283020180546001600160a01b031916815560018101829055600201559055611324565b80611ef48161223a565b915050611d01565b6000611cf78284612278565b6000611cf7828461228b565b6000611cf782846122a2565b6001600160a01b0381168114611a6557600080fd5b60008060408385031215611f4857600080fd5b823591506020830135611f5a81611f20565b809150509250929050565b602080825282518282018190526000919060409081850190868401855b82811015611fba57815180516001600160a01b0316855286810151878601528501518585015260609093019290850190600101611f82565b5091979650505050505050565b600060208284031215611fd957600080fd5b8135611cf781611f20565b600060208284031215611ff657600080fd5b5035919050565b8015158114611a6557600080fd5b6000806040838503121561201e57600080fd5b823591506020830135611f5a81611ffd565b6000806040838503121561204357600080fd5b50508035926020909101359150565b60008060006060848603121561206757600080fd5b83359250602084013561207981611f20565b929592945050506040919091013590565b600080600080608085870312156120a057600080fd5b8435935060208501356120b281611f20565b925060408501356120c281611f20565b9396929550929360600135925050565b634e487b7160e01b600052604160045260246000fd5b6000806000606084860312156120fd57600080fd5b8335925060208085013561211081611f20565b9250604085013567ffffffffffffffff8082111561212d57600080fd5b818701915087601f83011261214157600080fd5b813581811115612153576121536120d2565b8060051b604051601f19603f83011681018181108582111715612178576121786120d2565b60405291825284820192508381018501918a83111561219657600080fd5b938501935b828510156121b45784358452938501939285019261219b565b8096505050505050509250925092565b600080600080608085870312156121da57600080fd5b84356121e581611f20565b93506020850135925060408501359150606085013561220381611ffd565b939692955090935050565b634e487b7160e01b600052603260045260246000fd5b634e487b7160e01b600052601160045260246000fd5b60006001820161224c5761224c612224565b5060010190565b6020808252600b908201526a085055551213d49256915160aa1b604082015260600190565b818103818111156107e4576107e4612224565b80820281158282048414176107e4576107e4612224565b6000826122bf57634e487b7160e01b600052601260045260246000fd5b500490565b6000602082840312156122d657600080fd5b8151611cf781611ffd565b6000602082840312156122f357600080fd5b8151611cf781611f20565b60006020828403121561231057600080fd5b5051919050565b600060808201868352602060808185015281875180845260a086019150828901935060005b818110156123615784516001600160a01b03168352938301939183019160010161233c565b50506001600160a01b039690961660408501525050506060015292915050565b808201808211156107e4576107e4612224565b634e487b7160e01b600052603160045260246000fdfea26469706673582212203370d4f72ce863e610952dafc4536d418ebad4ce7e0af43438239676109a8d9d64736f6c63430008130033",
    "sourcePath": "d:/repos/lpad/repos/dapp/contracts/src/contracts/MultiStaking/LPadMultiPoolStaking.sol",
    "compiler": {
        "name": "solc",
        "version": "0.8.19+commit.7dd6d404"
    },
    "functionHashes": {
        "add(address,uint256,uint256,bool)": "e4a76315",
        "authorize(address)": "b6a5d7de",
        "changeLockTime(uint256,uint256)": "43db1349",
        "changePoolInfoSell(uint256,bool)": "3c5e561a",
        "changeRewardTokenAddress(uint256,address)": "48de7a48",
        "changeRewardTokenPerDay(uint256,uint256)": "d902e4fc",
        "claim(uint256)": "379607f5",
        "claimAll()": "d1058e59",
        "claimFee()": "99d32fc4",
        "emergencyWithdraw(uint256)": "5312ea8e",
        "emergencyWithdrawToken(uint256,uint256)": "6a3e224c",
        "getStakingItemInfo(uint256,address,address,uint256)": "8702e3d2",
        "getUserInfo(uint256,address)": "1069f3b5",
        "isAuthorized(address)": "fe9fbb80",
        "isOwner(address)": "2f54bf6e",
        "mainToken()": "3fc15f15",
        "owner()": "8da5cb5b",
        "pendingReward(uint256,address,address,uint256)": "c04aff2e",
        "pendingTotalReward(uint256,address)": "b3288dbb",
        "poolInfos(uint256)": "689d84e4",
        "renounceOwnership()": "715018a6",
        "setClaimFee(uint256)": "2e75ab50",
        "setMainToken(address)": "27ce464e",
        "setPoolPaused(uint256,bool)": "50211b67",
        "setStakingFee(uint256)": "410dbf7e",
        "stake(uint256,address,uint256[])": "b809e01b",
        "stakingFee()": "eff98843",
        "transferOwnership(address)": "f2fde38b",
        "unauthorize(address)": "f0b37c04",
        "uniswapV2Router()": "1694505e",
        "unstake(uint256,address,uint256[])": "a9e3ddc9",
        "userInfos(uint256,address,uint256)": "7223c8c9"
    },
    "gasEstimates": {
        "creation": {
            "codeDepositCost": "1836800",
            "executionCost": "94682",
            "totalCost": "1931482"
        },
        "external": {
            "add(address,uint256,uint256,bool)": "infinite",
            "authorize(address)": "26941",
            "changeLockTime(uint256,uint256)": "26873",
            "changePoolInfoSell(uint256,bool)": "29096",
            "changeRewardTokenAddress(uint256,address)": "29132",
            "changeRewardTokenPerDay(uint256,uint256)": "26894",
            "claim(uint256)": "infinite",
            "claimAll()": "infinite",
            "claimFee()": "2407",
            "emergencyWithdraw(uint256)": "infinite",
            "emergencyWithdrawToken(uint256,uint256)": "infinite",
            "getStakingItemInfo(uint256,address,address,uint256)": "infinite",
            "getUserInfo(uint256,address)": "infinite",
            "isAuthorized(address)": "2665",
            "isOwner(address)": "2532",
            "mainToken()": "2449",
            "owner()": "2427",
            "pendingReward(uint256,address,address,uint256)": "infinite",
            "pendingTotalReward(uint256,address)": "infinite",
            "poolInfos(uint256)": "11162",
            "renounceOwnership()": "27796",
            "setClaimFee(uint256)": "24673",
            "setMainToken(address)": "26892",
            "setPoolPaused(uint256,bool)": "29132",
            "setStakingFee(uint256)": "24606",
            "stake(uint256,address,uint256[])": "infinite",
            "stakingFee()": "2339",
            "transferOwnership(address)": "52253",
            "unauthorize(address)": "26900",
            "uniswapV2Router()": "2406",
            "unstake(uint256,address,uint256[])": "infinite",
            "userInfos(uint256,address,uint256)": "9210"
        },
        "internal": {
            "removeFromStakingInfo(uint256,address,address,uint256)": "infinite",
            "swapETHForToken(address)": "infinite"
        }
    }
}